{
  "_format": "hh-sol-artifact-1",
  "contractName": "ZyftySalesContract",
  "sourceName": "contracts/ZyftySalesContract.sol",
  "abi": [
    {
      "anonymous": false,
      "inputs": [
        {
          "indexed": false,
          "internalType": "uint256",
          "name": "propertyId",
          "type": "uint256"
        }
      ],
      "name": "E_PropertyListed",
      "type": "event"
    },
    {
      "anonymous": false,
      "inputs": [
        {
          "indexed": true,
          "internalType": "uint256",
          "name": "propertyId",
          "type": "uint256"
        },
        {
          "indexed": false,
          "internalType": "address",
          "name": "from",
          "type": "address"
        },
        {
          "indexed": false,
          "internalType": "address",
          "name": "to",
          "type": "address"
        }
      ],
      "name": "E_PropertySold",
      "type": "event"
    },
    {
      "anonymous": false,
      "inputs": [
        {
          "indexed": true,
          "internalType": "address",
          "name": "previousOwner",
          "type": "address"
        },
        {
          "indexed": true,
          "internalType": "address",
          "name": "newOwner",
          "type": "address"
        }
      ],
      "name": "OwnershipTransferred",
      "type": "event"
    },
    {
      "inputs": [
        {
          "internalType": "uint256",
          "name": "id",
          "type": "uint256"
        },
        {
          "internalType": "address",
          "name": "buyer",
          "type": "address"
        }
      ],
      "name": "addBuyer",
      "outputs": [],
      "stateMutability": "nonpayable",
      "type": "function"
    },
    {
      "inputs": [
        {
          "internalType": "uint256",
          "name": "id",
          "type": "uint256"
        },
        {
          "internalType": "bytes",
          "name": "agreementSignature",
          "type": "bytes"
        }
      ],
      "name": "buyProperty",
      "outputs": [],
      "stateMutability": "nonpayable",
      "type": "function"
    },
    {
      "inputs": [
        {
          "internalType": "uint256",
          "name": "id",
          "type": "uint256"
        }
      ],
      "name": "execute",
      "outputs": [],
      "stateMutability": "nonpayable",
      "type": "function"
    },
    {
      "inputs": [
        {
          "internalType": "uint256",
          "name": "id",
          "type": "uint256"
        }
      ],
      "name": "getProperty",
      "outputs": [
        {
          "components": [
            {
              "internalType": "address",
              "name": "nftContract",
              "type": "address"
            },
            {
              "internalType": "uint256",
              "name": "tokenID",
              "type": "uint256"
            },
            {
              "internalType": "address",
              "name": "seller",
              "type": "address"
            },
            {
              "internalType": "address",
              "name": "buyer",
              "type": "address"
            },
            {
              "internalType": "uint256",
              "name": "time",
              "type": "uint256"
            },
            {
              "internalType": "address",
              "name": "asset",
              "type": "address"
            },
            {
              "internalType": "uint256",
              "name": "price",
              "type": "uint256"
            },
            {
              "internalType": "uint256",
              "name": "created",
              "type": "uint256"
            },
            {
              "internalType": "enum ZyftySalesContract.EscrowState",
              "name": "state",
              "type": "uint8"
            }
          ],
          "internalType": "struct ZyftySalesContract.ListedProperty",
          "name": "",
          "type": "tuple"
        }
      ],
      "stateMutability": "view",
      "type": "function"
    },
    {
      "inputs": [],
      "name": "owner",
      "outputs": [
        {
          "internalType": "address",
          "name": "",
          "type": "address"
        }
      ],
      "stateMutability": "view",
      "type": "function"
    },
    {
      "inputs": [
        {
          "internalType": "uint256",
          "name": "id",
          "type": "uint256"
        },
        {
          "internalType": "address",
          "name": "buyer",
          "type": "address"
        }
      ],
      "name": "removeBuyer",
      "outputs": [],
      "stateMutability": "nonpayable",
      "type": "function"
    },
    {
      "inputs": [],
      "name": "renounceOwnership",
      "outputs": [],
      "stateMutability": "nonpayable",
      "type": "function"
    },
    {
      "inputs": [
        {
          "internalType": "uint256",
          "name": "id",
          "type": "uint256"
        }
      ],
      "name": "revertBuyer",
      "outputs": [],
      "stateMutability": "nonpayable",
      "type": "function"
    },
    {
      "inputs": [
        {
          "internalType": "uint256",
          "name": "id",
          "type": "uint256"
        }
      ],
      "name": "revertSeller",
      "outputs": [],
      "stateMutability": "nonpayable",
      "type": "function"
    },
    {
      "inputs": [
        {
          "internalType": "address",
          "name": "nftContract",
          "type": "address"
        },
        {
          "internalType": "uint256",
          "name": "tokenId",
          "type": "uint256"
        },
        {
          "internalType": "address",
          "name": "asset",
          "type": "address"
        },
        {
          "internalType": "uint256",
          "name": "price",
          "type": "uint256"
        },
        {
          "internalType": "uint256",
          "name": "time",
          "type": "uint256"
        }
      ],
      "name": "sellProperty",
      "outputs": [
        {
          "internalType": "uint256",
          "name": "",
          "type": "uint256"
        }
      ],
      "stateMutability": "nonpayable",
      "type": "function"
    },
    {
      "inputs": [
        {
          "internalType": "address",
          "name": "newOwner",
          "type": "address"
        }
      ],
      "name": "transferOwnership",
      "outputs": [],
      "stateMutability": "nonpayable",
      "type": "function"
    }
  ],
  "bytecode": "0x608060405234801561001057600080fd5b5061001a3361001f565b61006f565b600080546001600160a01b038381166001600160a01b0319831681178455604051919092169283917f8be0079c531659141344cd1fd0a4f28419497f9722a3daafe3b4186f6b6457e09190a35050565b6121c18061007e6000396000f3fe608060405234801561001057600080fd5b50600436106100a95760003560e01c8063bb47214411610071578063bb4721441461012c578063bd8a92371461013f578063d2bbe0b814610152578063ef2a174714610165578063f2fde38b14610178578063fe0d94c11461018b57600080fd5b806314fd4783146100ae57806332665ffb146100d4578063715018a6146100f45780637d3a8ae7146100fe5780638da5cb5b14610111575b600080fd5b6100c16100bc366004611d66565b61019e565b6040519081526020015b60405180910390f35b6100e76100e2366004611def565b6104fd565b6040516100cb9190612054565b6100fc61061e565b005b6100fc61010c366004611e07565b610684565b6000546040516001600160a01b0390911681526020016100cb565b6100fc61013a366004611def565b610788565b6100fc61014d366004611def565b6109d2565b6100fc610160366004611e36565b610b45565b6100fc610173366004611e07565b610ead565b6100fc610186366004611d27565b610fb4565b6100fc610199366004611def565b61107f565b60006001600160a01b0386166102145760405162461bcd60e51b815260206004820152603060248201527f5a7966747953616c6573436f6e74726163743a204e465420436f6e747261637460448201526f206973207a65726f206164647265737360801b60648201526084015b60405180910390fd5b6040516323b872dd60e01b815286906001600160a01b038216906323b872dd9061024690339030908b90600401611f0e565b600060405180830381600087803b15801561026057600080fd5b505af1158015610274573d6000803e3d6000fd5b5050604051630312ddfb60e01b815260048101899052600092506001600160a01b0384169150630312ddfb9060240160206040518083038186803b1580156102bb57600080fd5b505afa1580156102cf573d6000803e3d6000fd5b505050506040513d601f19601f820116820180604052508101906102f39190611d4a565b9050806001600160a01b031663a2e620456040518163ffffffff1660e01b8152600401600060405180830381600087803b15801561033057600080fd5b505af1925050508015610341575060015b50610350600180546001019055565b600061035b60015490565b90506040518061012001604052808a6001600160a01b03168152602001898152602001336001600160a01b0316815260200160006001600160a01b03168152602001868152602001886001600160a01b03168152602001878152602001428152602001600160038111156103df57634e487b7160e01b600052602160045260246000fd5b9052600082815260026020818152604092839020845181546001600160a01b03199081166001600160a01b03928316178355928601516001808401919091559486015193820180548416948216949094179093556060850151600380830180548516928616929092179091556080860151600483015560a086015160058301805490941694169390931790915560c0840151600682015560e0840151600782015561010084015160088201805492949193909260ff1916919084908111156104b757634e487b7160e01b600052602160045260246000fd5b0217905550506040518281527f582634b9f2f7569e346c45a9b6f10dce101ab15c39ba873bafe98fd18e0a1cb0915060200160405180910390a198975050505050505050565b61054a6040805161012081018252600080825260208201819052918101829052606081018290526080810182905260a0810182905260c0810182905260e081018290529061010082015290565b60008281526002602081815260409283902083516101208101855281546001600160a01b039081168252600183015493820193909352928101548216938301939093526003808401548216606084015260048401546080840152600584015490911660a0830152600683015460c0830152600783015460e0830152600883015491929161010084019160ff909116908111156105f657634e487b7160e01b600052602160045260246000fd5b600381111561061557634e487b7160e01b600052602160045260246000fd5b90525092915050565b6000546001600160a01b031633146106785760405162461bcd60e51b815260206004820181905260248201527f4f776e61626c653a2063616c6c6572206973206e6f7420746865206f776e6572604482015260640161020b565b61068260006118b3565b565b8160018060008381526002602052604090206008015460ff1660038111156106bc57634e487b7160e01b600052602160045260246000fd5b146106d95760405162461bcd60e51b815260040161020b90612008565b600084815260026020526040902060048101546007909101548591429161070091906120fb565b101561071e5760405162461bcd60e51b815260040161020b90611f7a565b600085815260026020819052604090912001546001600160a01b031633146107585760405162461bcd60e51b815260040161020b90611fbe565b50505060009182526003602090815260408084206001600160a01b0390931684529190529020805460ff19169055565b6000818152600260205260409020600481015460079091015482916107ac916120fb565b4210156107cb5760405162461bcd60e51b815260040161020b90611f32565b6000828152600260205260409020600301546001600160a01b0316806108445760405162461bcd60e51b815260206004820152602860248201527f5a7966747953616c6573436f6e74726163743a20427579657220646f6573206e6044820152671bdd08195e1a5cdd60c21b606482015260840161020b565b336001600160a01b038216146108ae5760405162461bcd60e51b815260206004820152602960248201527f5a7966747953616c6573436f6e74726163743a20596f75206d757374206265206044820152683a343290313abcb2b960b91b606482015260840161020b565b6000838152600260205260409081902060058101546003820154600690920154925163a9059cbb60e01b81526001600160a01b03928316600482015260248101939093521690819063a9059cbb90604401602060405180830381600087803b15801561091957600080fd5b505af115801561092d573d6000803e3d6000fd5b505050506040513d601f19601f820116820180604052508101906109519190611db7565b50600360008581526002602052604090206008015460ff16600381111561098857634e487b7160e01b600052602160045260246000fd5b141561099c5761099784611903565b6109cc565b600084815260026020526040902060088101805460ff191660039081179091550180546001600160a01b03191690555b50505050565b6000818152600260205260409020600481015460079091015482916109f6916120fb565b421015610a155760405162461bcd60e51b815260040161020b90611f32565b600082815260026020819052604090912001546001600160a01b03163314610a925760405162461bcd60e51b815260206004820152602a60248201527f5a7966747953616c6573436f6e74726163743a20596f75206d757374206265206044820152693a34329039b2b63632b960b11b606482015260840161020b565b600082815260026020526040908190205490516323b872dd60e01b81526001600160a01b039091169081906323b872dd90610ad590309033908890600401611f0e565b600060405180830381600087803b158015610aef57600080fd5b505af1158015610b03573d6000803e3d6000fd5b505050600084815260026020526040902060088101805460ff1916600390811790915501546001600160a01b03169050610b4057610b4083611903565b505050565b8160018060008381526002602052604090206008015460ff166003811115610b7d57634e487b7160e01b600052602160045260246000fd5b14610b9a5760405162461bcd60e51b815260040161020b90612008565b6000848152600260205260409020600481015460079091015485914291610bc191906120fb565b1015610bdf5760405162461bcd60e51b815260040161020b90611f7a565b6000858152600360209081526040808320338452909152902054859060ff161515600114610c615760405162461bcd60e51b815260206004820152602960248201527f5a7966747953616c6573436f6e74726163743a204e6f7420616e20617070726f6044820152683b32b210313abcb2b960b91b606482015260840161020b565b60008681526002602052604080822080546001909101549151637d1bd52b60e11b815260048101929092523360248301526001600160a01b03169190610d5b908890610d5590859063fa37aa569060440160206040518083038186803b158015610cca57600080fd5b505afa158015610cde573d6000803e3d6000fd5b505050506040513d601f19601f82011682018060405250810190610d029190611dd7565b6040517f19457468657265756d205369676e6564204d6573736167653a0a3332000000006020820152603c8101829052600090605c01604051602081830303815290604052805190602001209050919050565b9061196c565b90506001600160a01b0381163314610dcf5760405162461bcd60e51b815260206004820152603160248201527f5a7966747953616c6573436f6e74726163743a20496e636f72726563742041676044820152707265656d656e74205369676e617475726560781b606482015260840161020b565b60008881526002602052604090819020600581015460069091015491516323b872dd60e01b81526001600160a01b039091169182916323b872dd91610e1a9133913091600401611f0e565b602060405180830381600087803b158015610e3457600080fd5b505af1158015610e48573d6000803e3d6000fd5b505050506040513d601f19601f82011682018060405250810190610e6c9190611db7565b5050506000968752505060026020819052604090952060088101805460ff1916909617909555505050600390910180546001600160a01b0319163317905550565b8160018060008381526002602052604090206008015460ff166003811115610ee557634e487b7160e01b600052602160045260246000fd5b14610f025760405162461bcd60e51b815260040161020b90612008565b6000848152600260205260409020600481015460079091015485914291610f2991906120fb565b1015610f475760405162461bcd60e51b815260040161020b90611f7a565b600085815260026020819052604090912001546001600160a01b03163314610f815760405162461bcd60e51b815260040161020b90611fbe565b50505060009182526003602090815260408084206001600160a01b0390931684529190529020805460ff19166001179055565b6000546001600160a01b0316331461100e5760405162461bcd60e51b815260206004820181905260248201527f4f776e61626c653a2063616c6c6572206973206e6f7420746865206f776e6572604482015260640161020b565b6001600160a01b0381166110735760405162461bcd60e51b815260206004820152602660248201527f4f776e61626c653a206e6577206f776e657220697320746865207a65726f206160448201526564647265737360d01b606482015260840161020b565b61107c816118b3565b50565b60008181526002602052604090206004810154600790910154829142916110a691906120fb565b10156110c45760405162461bcd60e51b815260040161020b90611f7a565b8160028060008381526002602052604090206008015460ff1660038111156110fc57634e487b7160e01b600052602160045260246000fd5b146111195760405162461bcd60e51b815260040161020b90612008565b6000848152600260205260409020600301546001600160a01b031633148061115b5750600084815260026020819052604090912001546001600160a01b031633145b61116457600080fd5b6000848152600260205260408120805460058201546006909201546001600160a01b0391821693919092169161119c9060c890612113565b600088815260026020526040808220600101549051630312ddfb60e01b81526004810191909152919250906001600160a01b03851690630312ddfb9060240160206040518083038186803b1580156111f357600080fd5b505afa158015611207573d6000803e3d6000fd5b505050506040513d601f19601f8201168201806040525081019061122b9190611d4a565b6001600160a01b031663b69ef8a86040518163ffffffff1660e01b8152600401602060405180830381600087803b15801561126557600080fd5b505af1158015611279573d6000803e3d6000fd5b505050506040513d601f19601f8201168201806040525081019061129d9190611dd7565b600089815260026020526040908190206001015490516377778db360e01b8152600481019190915290915081906001600160a01b038616906377778db39060240160206040518083038186803b1580156112f657600080fd5b505afa15801561130a573d6000803e3d6000fd5b505050506040513d601f19601f8201168201806040525081019061132e9190611dd7565b10156113a25760405162461bcd60e51b815260206004820152603a60248201527f5a7966747953616c6573436f6e74726163743a204e6f7420656e6f756768206660448201527f756e647320746f2066756c6c79207061796f7574206c69656e73000000000000606482015260840161020b565b6000888152600260205260409081902060010154905163d9ca30f960e01b81526004810191909152602481018290526001600160a01b0385169063d9ca30f990604401602060405180830381600087803b1580156113ff57600080fd5b505af1158015611413573d6000803e3d6000fd5b505050506040513d601f19601f820116820180604052508101906114379190611dd7565b506000888152600260205260408082206001015490516377778db360e01b815260048101919091526001600160a01b038616906377778db39060240160206040518083038186803b15801561148b57600080fd5b505afa15801561149f573d6000803e3d6000fd5b505050506040513d601f19601f820116820180604052508101906114c39190611dd7565b60008a815260026020526040808220600101549051638ea06f8160e01b81526004810191909152919250906001600160a01b03871690638ea06f819060240160206040518083038186803b15801561151a57600080fd5b505afa15801561152e573d6000803e3d6000fd5b505050506040513d601f19601f820116820180604052508101906115529190611d4a565b60008b815260026020526040908190206001015490516305f9598760e51b81529192506001600160a01b0388169163bf2b30e09161159d918690600401918252602082015260400190565b600060405180830381600087803b1580156115b757600080fd5b505af11580156115cb573d6000803e3d6000fd5b50505050846001600160a01b031663a9059cbb6115f06000546001600160a01b031690565b6040516001600160e01b031960e084901b1681526001600160a01b03909116600482015260248101879052604401602060405180830381600087803b15801561163857600080fd5b505af115801561164c573d6000803e3d6000fd5b505050506040513d601f19601f820116820180604052508101906116709190611db7565b5060008a8152600260208190526040909120908101546006909101546001600160a01b038088169263a9059cbb929116906116ac908890612133565b6040516001600160e01b031960e085901b1681526001600160a01b0390921660048301526024820152604401602060405180830381600087803b1580156116f257600080fd5b505af1158015611706573d6000803e3d6000fd5b505050506040513d601f19601f8201168201806040525081019061172a9190611db7565b5060008a8152600260208190526040918290200154905163a9059cbb60e01b81526001600160a01b039182166004820152602481018490529082169063a9059cbb90604401602060405180830381600087803b15801561178957600080fd5b505af115801561179d573d6000803e3d6000fd5b505050506040513d601f19601f820116820180604052508101906117c19190611db7565b5060008a81526002602052604090819020600381015460019091015491516323b872dd60e01b81526001600160a01b03898116936323b872dd9361180e9330939091169190600401611f0e565b600060405180830381600087803b15801561182857600080fd5b505af115801561183c573d6000803e3d6000fd5b50505060008b8152600260208181526040928390209182015460039092015483516001600160a01b0393841681529216908201528c92507f91bef9d2887684cdf932ec87ca0a69e391b83f2256ec9072cc7d9c924119c0d2910160405180910390a26118a78a611903565b50505050505050505050565b600080546001600160a01b038381166001600160a01b0319831681178455604051919092169283917f8be0079c531659141344cd1fd0a4f28419497f9722a3daafe3b4186f6b6457e09190a35050565b6000908152600260208190526040822080546001600160a01b03199081168255600182018490559181018054831690556003810180548316905560048101839055600581018054909216909155600681018290556007810191909155600801805460ff19169055565b600080600061197b8585611990565b9150915061198881611a00565b509392505050565b6000808251604114156119c75760208301516040840151606085015160001a6119bb87828585611c01565b945094505050506119f9565b8251604014156119f157602083015160408401516119e6868383611cee565b9350935050506119f9565b506000905060025b9250929050565b6000816004811115611a2257634e487b7160e01b600052602160045260246000fd5b1415611a2b5750565b6001816004811115611a4d57634e487b7160e01b600052602160045260246000fd5b1415611a9b5760405162461bcd60e51b815260206004820152601860248201527f45434453413a20696e76616c6964207369676e61747572650000000000000000604482015260640161020b565b6002816004811115611abd57634e487b7160e01b600052602160045260246000fd5b1415611b0b5760405162461bcd60e51b815260206004820152601f60248201527f45434453413a20696e76616c6964207369676e6174757265206c656e67746800604482015260640161020b565b6003816004811115611b2d57634e487b7160e01b600052602160045260246000fd5b1415611b865760405162461bcd60e51b815260206004820152602260248201527f45434453413a20696e76616c6964207369676e6174757265202773272076616c604482015261756560f01b606482015260840161020b565b6004816004811115611ba857634e487b7160e01b600052602160045260246000fd5b141561107c5760405162461bcd60e51b815260206004820152602260248201527f45434453413a20696e76616c6964207369676e6174757265202776272076616c604482015261756560f01b606482015260840161020b565b6000807f7fffffffffffffffffffffffffffffff5d576e7357a4501ddfe92f46681b20a0831115611c385750600090506003611ce5565b8460ff16601b14158015611c5057508460ff16601c14155b15611c615750600090506004611ce5565b6040805160008082526020820180845289905260ff881692820192909252606081018690526080810185905260019060a0016020604051602081039080840390855afa158015611cb5573d6000803e3d6000fd5b5050604051601f1901519150506001600160a01b038116611cde57600060019250925050611ce5565b9150600090505b94509492505050565b6000806001600160ff1b03831681611d0b60ff86901c601b6120fb565b9050611d1987828885611c01565b935093505050935093915050565b600060208284031215611d38578081fd5b8135611d4381612176565b9392505050565b600060208284031215611d5b578081fd5b8151611d4381612176565b600080600080600060a08688031215611d7d578081fd5b8535611d8881612176565b9450602086013593506040860135611d9f81612176565b94979396509394606081013594506080013592915050565b600060208284031215611dc8578081fd5b81518015158114611d43578182fd5b600060208284031215611de8578081fd5b5051919050565b600060208284031215611e00578081fd5b5035919050565b60008060408385031215611e19578182fd5b823591506020830135611e2b81612176565b809150509250929050565b60008060408385031215611e48578182fd5b82359150602083013567ffffffffffffffff80821115611e66578283fd5b818501915085601f830112611e79578283fd5b813581811115611e8b57611e8b612160565b604051601f8201601f19908116603f01168101908382118183101715611eb357611eb3612160565b81604052828152886020848701011115611ecb578586fd5b82602086016020830137856020848301015280955050505050509250929050565b60048110611f0a57634e487b7160e01b600052602160045260246000fd5b9052565b6001600160a01b039384168152919092166020820152604081019190915260600190565b60208082526028908201527f5a7966747953616c6573436f6e74726163743a2057696e646f7720697320737460408201526734b6361037b832b760c11b606082015260800190565b60208082526024908201527f5a7966747953616c6573436f6e74726163743a2057696e646f7720697320636c6040820152631bdcd95960e21b606082015260800190565b6020808252602a908201527f5a7966747953616c6573436f6e74726163743a20596f7520617265206e6f74206040820152693a34329039b2b63632b960b11b606082015260800190565b6020808252602c908201527f5a7966747953616c6573436f6e74726163743a204e6f7420696e20746865206360408201526b6f727265637420737461746560a01b606082015260800190565b81516001600160a01b031681526020808301519082015260408083015161012083019161208b908401826001600160a01b03169052565b5060608301516120a660608401826001600160a01b03169052565b506080830151608083015260a08301516120cb60a08401826001600160a01b03169052565b5060c083015160c083015260e083015160e0830152610100808401516120f382850182611eec565b505092915050565b6000821982111561210e5761210e61214a565b500190565b60008261212e57634e487b7160e01b81526012600452602481fd5b500490565b6000828210156121455761214561214a565b500390565b634e487b7160e01b600052601160045260246000fd5b634e487b7160e01b600052604160045260246000fd5b6001600160a01b038116811461107c57600080fdfea264697066735822122033c03c0cb62f8210cf1e8c42fbc8604ad0b9cf0be1491fd0ce254a2f26f6543764736f6c63430008040033",
  "linkReferences": {},
  "deployedLinkReferences": {}
}