{
  "_format": "hh-sol-artifact-1",
  "contractName": "ZyftySalesContract",
  "sourceName": "contracts/ZyftySalesContract.sol",
  "abi": [
    {
      "anonymous": false,
      "inputs": [
        {
          "indexed": false,
          "internalType": "uint256",
          "name": "propertyId",
          "type": "uint256"
        }
      ],
      "name": "E_PropertyListed",
      "type": "event"
    },
    {
      "anonymous": false,
      "inputs": [
        {
          "indexed": true,
          "internalType": "uint256",
          "name": "propertyId",
          "type": "uint256"
        },
        {
          "indexed": false,
          "internalType": "address",
          "name": "from",
          "type": "address"
        },
        {
          "indexed": false,
          "internalType": "address",
          "name": "to",
          "type": "address"
        }
      ],
      "name": "E_PropertySold",
      "type": "event"
    },
    {
      "anonymous": false,
      "inputs": [
        {
          "indexed": true,
          "internalType": "address",
          "name": "previousOwner",
          "type": "address"
        },
        {
          "indexed": true,
          "internalType": "address",
          "name": "newOwner",
          "type": "address"
        }
      ],
      "name": "OwnershipTransferred",
      "type": "event"
    },
    {
      "inputs": [
        {
          "internalType": "uint256",
          "name": "id",
          "type": "uint256"
        },
        {
          "internalType": "address",
          "name": "buyer",
          "type": "address"
        }
      ],
      "name": "addBuyer",
      "outputs": [],
      "stateMutability": "nonpayable",
      "type": "function"
    },
    {
      "inputs": [
        {
          "internalType": "uint256",
          "name": "id",
          "type": "uint256"
        },
        {
          "internalType": "bytes",
          "name": "agreementSignature",
          "type": "bytes"
        }
      ],
      "name": "buyProperty",
      "outputs": [],
      "stateMutability": "nonpayable",
      "type": "function"
    },
    {
      "inputs": [
        {
          "internalType": "uint256",
          "name": "id",
          "type": "uint256"
        }
      ],
      "name": "execute",
      "outputs": [],
      "stateMutability": "nonpayable",
      "type": "function"
    },
    {
      "inputs": [
        {
          "internalType": "uint256",
          "name": "id",
          "type": "uint256"
        }
      ],
      "name": "getProperty",
      "outputs": [
        {
          "components": [
            {
              "internalType": "address",
              "name": "nftContract",
              "type": "address"
            },
            {
              "internalType": "uint256",
              "name": "tokenID",
              "type": "uint256"
            },
            {
              "internalType": "address",
              "name": "seller",
              "type": "address"
            },
            {
              "internalType": "address",
              "name": "buyer",
              "type": "address"
            },
            {
              "internalType": "uint256",
              "name": "time",
              "type": "uint256"
            },
            {
              "internalType": "address",
              "name": "asset",
              "type": "address"
            },
            {
              "internalType": "uint256",
              "name": "price",
              "type": "uint256"
            },
            {
              "internalType": "uint256",
              "name": "created",
              "type": "uint256"
            },
            {
              "internalType": "enum ZyftySalesContract.EscrowState",
              "name": "state",
              "type": "uint8"
            }
          ],
          "internalType": "struct ZyftySalesContract.ListedProperty",
          "name": "",
          "type": "tuple"
        }
      ],
      "stateMutability": "view",
      "type": "function"
    },
    {
      "inputs": [],
      "name": "owner",
      "outputs": [
        {
          "internalType": "address",
          "name": "",
          "type": "address"
        }
      ],
      "stateMutability": "view",
      "type": "function"
    },
    {
      "inputs": [
        {
          "internalType": "uint256",
          "name": "id",
          "type": "uint256"
        },
        {
          "internalType": "address",
          "name": "buyer",
          "type": "address"
        }
      ],
      "name": "removeBuyer",
      "outputs": [],
      "stateMutability": "nonpayable",
      "type": "function"
    },
    {
      "inputs": [],
      "name": "renounceOwnership",
      "outputs": [],
      "stateMutability": "nonpayable",
      "type": "function"
    },
    {
      "inputs": [
        {
          "internalType": "uint256",
          "name": "id",
          "type": "uint256"
        }
      ],
      "name": "revertBuyer",
      "outputs": [],
      "stateMutability": "nonpayable",
      "type": "function"
    },
    {
      "inputs": [
        {
          "internalType": "uint256",
          "name": "id",
          "type": "uint256"
        }
      ],
      "name": "revertSeller",
      "outputs": [],
      "stateMutability": "nonpayable",
      "type": "function"
    },
    {
      "inputs": [
        {
          "internalType": "address",
          "name": "nftContract",
          "type": "address"
        },
        {
          "internalType": "uint256",
          "name": "tokenId",
          "type": "uint256"
        },
        {
          "internalType": "address",
          "name": "asset",
          "type": "address"
        },
        {
          "internalType": "uint256",
          "name": "price",
          "type": "uint256"
        },
        {
          "internalType": "uint256",
          "name": "time",
          "type": "uint256"
        }
      ],
      "name": "sellProperty",
      "outputs": [
        {
          "internalType": "uint256",
          "name": "",
          "type": "uint256"
        }
      ],
      "stateMutability": "nonpayable",
      "type": "function"
    },
    {
      "inputs": [
        {
          "internalType": "address",
          "name": "newOwner",
          "type": "address"
        }
      ],
      "name": "transferOwnership",
      "outputs": [],
      "stateMutability": "nonpayable",
      "type": "function"
    }
  ],
  "bytecode": "0x608060405234801561001057600080fd5b5061001a3361001f565b61006f565b600080546001600160a01b038381166001600160a01b0319831681178455604051919092169283917f8be0079c531659141344cd1fd0a4f28419497f9722a3daafe3b4186f6b6457e09190a35050565b6121148061007e6000396000f3fe608060405234801561001057600080fd5b50600436106100a95760003560e01c8063bb47214411610071578063bb4721441461012c578063bd8a92371461013f578063d2bbe0b814610152578063ef2a174714610165578063f2fde38b14610178578063fe0d94c11461018b57600080fd5b806314fd4783146100ae57806332665ffb146100d4578063715018a6146100f45780637d3a8ae7146100fe5780638da5cb5b14610111575b600080fd5b6100c16100bc366004611cb9565b61019e565b6040519081526020015b60405180910390f35b6100e76100e2366004611d42565b6104fd565b6040516100cb9190611fa7565b6100fc61061e565b005b6100fc61010c366004611d5a565b610632565b6000546040516001600160a01b0390911681526020016100cb565b6100fc61013a366004611d42565b610736565b6100fc61014d366004611d42565b610980565b6100fc610160366004611d89565b610af3565b6100fc610173366004611d5a565b610e5b565b6100fc610186366004611c7a565b610f62565b6100fc610199366004611d42565b610fdb565b60006001600160a01b0386166102145760405162461bcd60e51b815260206004820152603060248201527f5a7966747953616c6573436f6e74726163743a204e465420436f6e747261637460448201526f206973207a65726f206164647265737360801b60648201526084015b60405180910390fd5b6040516323b872dd60e01b815286906001600160a01b038216906323b872dd9061024690339030908b90600401611e61565b600060405180830381600087803b15801561026057600080fd5b505af1158015610274573d6000803e3d6000fd5b5050604051630312ddfb60e01b815260048101899052600092506001600160a01b0384169150630312ddfb9060240160206040518083038186803b1580156102bb57600080fd5b505afa1580156102cf573d6000803e3d6000fd5b505050506040513d601f19601f820116820180604052508101906102f39190611c9d565b9050806001600160a01b031663a2e620456040518163ffffffff1660e01b8152600401600060405180830381600087803b15801561033057600080fd5b505af1925050508015610341575060015b50610350600180546001019055565b600061035b60015490565b90506040518061012001604052808a6001600160a01b03168152602001898152602001336001600160a01b0316815260200160006001600160a01b03168152602001868152602001886001600160a01b03168152602001878152602001428152602001600160038111156103df57634e487b7160e01b600052602160045260246000fd5b9052600082815260026020818152604092839020845181546001600160a01b03199081166001600160a01b03928316178355928601516001808401919091559486015193820180548416948216949094179093556060850151600380830180548516928616929092179091556080860151600483015560a086015160058301805490941694169390931790915560c0840151600682015560e0840151600782015561010084015160088201805492949193909260ff1916919084908111156104b757634e487b7160e01b600052602160045260246000fd5b0217905550506040518281527f582634b9f2f7569e346c45a9b6f10dce101ab15c39ba873bafe98fd18e0a1cb0915060200160405180910390a198975050505050505050565b61054a6040805161012081018252600080825260208201819052918101829052606081018290526080810182905260a0810182905260c0810182905260e081018290529061010082015290565b60008281526002602081815260409283902083516101208101855281546001600160a01b039081168252600183015493820193909352928101548216938301939093526003808401548216606084015260048401546080840152600584015490911660a0830152600683015460c0830152600783015460e0830152600883015491929161010084019160ff909116908111156105f657634e487b7160e01b600052602160045260246000fd5b600381111561061557634e487b7160e01b600052602160045260246000fd5b90525092915050565b61062661180f565b6106306000611869565b565b8160018060008381526002602052604090206008015460ff16600381111561066a57634e487b7160e01b600052602160045260246000fd5b146106875760405162461bcd60e51b815260040161020b90611f5b565b60008481526002602052604090206004810154600790910154859142916106ae919061204e565b10156106cc5760405162461bcd60e51b815260040161020b90611ecd565b600085815260026020819052604090912001546001600160a01b031633146107065760405162461bcd60e51b815260040161020b90611f11565b50505060009182526003602090815260408084206001600160a01b0390931684529190529020805460ff19169055565b60008181526002602052604090206004810154600790910154829161075a9161204e565b4210156107795760405162461bcd60e51b815260040161020b90611e85565b6000828152600260205260409020600301546001600160a01b0316806107f25760405162461bcd60e51b815260206004820152602860248201527f5a7966747953616c6573436f6e74726163743a20427579657220646f6573206e6044820152671bdd08195e1a5cdd60c21b606482015260840161020b565b336001600160a01b0382161461085c5760405162461bcd60e51b815260206004820152602960248201527f5a7966747953616c6573436f6e74726163743a20596f75206d757374206265206044820152683a343290313abcb2b960b91b606482015260840161020b565b6000838152600260205260409081902060058101546003820154600690920154925163a9059cbb60e01b81526001600160a01b03928316600482015260248101939093521690819063a9059cbb90604401602060405180830381600087803b1580156108c757600080fd5b505af11580156108db573d6000803e3d6000fd5b505050506040513d601f19601f820116820180604052508101906108ff9190611d0a565b50600360008581526002602052604090206008015460ff16600381111561093657634e487b7160e01b600052602160045260246000fd5b141561094a57610945846118b9565b61097a565b600084815260026020526040902060088101805460ff191660039081179091550180546001600160a01b03191690555b50505050565b6000818152600260205260409020600481015460079091015482916109a49161204e565b4210156109c35760405162461bcd60e51b815260040161020b90611e85565b600082815260026020819052604090912001546001600160a01b03163314610a405760405162461bcd60e51b815260206004820152602a60248201527f5a7966747953616c6573436f6e74726163743a20596f75206d757374206265206044820152693a34329039b2b63632b960b11b606482015260840161020b565b600082815260026020526040908190205490516323b872dd60e01b81526001600160a01b039091169081906323b872dd90610a8390309033908890600401611e61565b600060405180830381600087803b158015610a9d57600080fd5b505af1158015610ab1573d6000803e3d6000fd5b505050600084815260026020526040902060088101805460ff1916600390811790915501546001600160a01b03169050610aee57610aee836118b9565b505050565b8160018060008381526002602052604090206008015460ff166003811115610b2b57634e487b7160e01b600052602160045260246000fd5b14610b485760405162461bcd60e51b815260040161020b90611f5b565b6000848152600260205260409020600481015460079091015485914291610b6f919061204e565b1015610b8d5760405162461bcd60e51b815260040161020b90611ecd565b6000858152600360209081526040808320338452909152902054859060ff161515600114610c0f5760405162461bcd60e51b815260206004820152602960248201527f5a7966747953616c6573436f6e74726163743a204e6f7420616e20617070726f6044820152683b32b210313abcb2b960b91b606482015260840161020b565b60008681526002602052604080822080546001909101549151637d1bd52b60e11b815260048101929092523360248301526001600160a01b03169190610d09908890610d0390859063fa37aa569060440160206040518083038186803b158015610c7857600080fd5b505afa158015610c8c573d6000803e3d6000fd5b505050506040513d601f19601f82011682018060405250810190610cb09190611d2a565b6040517f19457468657265756d205369676e6564204d6573736167653a0a3332000000006020820152603c8101829052600090605c01604051602081830303815290604052805190602001209050919050565b90611922565b90506001600160a01b0381163314610d7d5760405162461bcd60e51b815260206004820152603160248201527f5a7966747953616c6573436f6e74726163743a20496e636f72726563742041676044820152707265656d656e74205369676e617475726560781b606482015260840161020b565b60008881526002602052604090819020600581015460069091015491516323b872dd60e01b81526001600160a01b039091169182916323b872dd91610dc89133913091600401611e61565b602060405180830381600087803b158015610de257600080fd5b505af1158015610df6573d6000803e3d6000fd5b505050506040513d601f19601f82011682018060405250810190610e1a9190611d0a565b5050506000968752505060026020819052604090952060088101805460ff1916909617909555505050600390910180546001600160a01b0319163317905550565b8160018060008381526002602052604090206008015460ff166003811115610e9357634e487b7160e01b600052602160045260246000fd5b14610eb05760405162461bcd60e51b815260040161020b90611f5b565b6000848152600260205260409020600481015460079091015485914291610ed7919061204e565b1015610ef55760405162461bcd60e51b815260040161020b90611ecd565b600085815260026020819052604090912001546001600160a01b03163314610f2f5760405162461bcd60e51b815260040161020b90611f11565b50505060009182526003602090815260408084206001600160a01b0390931684529190529020805460ff19166001179055565b610f6a61180f565b6001600160a01b038116610fcf5760405162461bcd60e51b815260206004820152602660248201527f4f776e61626c653a206e6577206f776e657220697320746865207a65726f206160448201526564647265737360d01b606482015260840161020b565b610fd881611869565b50565b6000818152600260205260409020600481015460079091015482914291611002919061204e565b10156110205760405162461bcd60e51b815260040161020b90611ecd565b8160028060008381526002602052604090206008015460ff16600381111561105857634e487b7160e01b600052602160045260246000fd5b146110755760405162461bcd60e51b815260040161020b90611f5b565b6000848152600260205260409020600301546001600160a01b03163314806110b75750600084815260026020819052604090912001546001600160a01b031633145b6110c057600080fd5b6000848152600260205260408120805460058201546006909201546001600160a01b039182169391909216916110f89060c890612066565b600088815260026020526040808220600101549051630312ddfb60e01b81526004810191909152919250906001600160a01b03851690630312ddfb9060240160206040518083038186803b15801561114f57600080fd5b505afa158015611163573d6000803e3d6000fd5b505050506040513d601f19601f820116820180604052508101906111879190611c9d565b6001600160a01b031663b69ef8a86040518163ffffffff1660e01b8152600401602060405180830381600087803b1580156111c157600080fd5b505af11580156111d5573d6000803e3d6000fd5b505050506040513d601f19601f820116820180604052508101906111f99190611d2a565b600089815260026020526040908190206001015490516377778db360e01b8152600481019190915290915081906001600160a01b038616906377778db39060240160206040518083038186803b15801561125257600080fd5b505afa158015611266573d6000803e3d6000fd5b505050506040513d601f19601f8201168201806040525081019061128a9190611d2a565b10156112fe5760405162461bcd60e51b815260206004820152603a60248201527f5a7966747953616c6573436f6e74726163743a204e6f7420656e6f756768206660448201527f756e647320746f2066756c6c79207061796f7574206c69656e73000000000000606482015260840161020b565b6000888152600260205260409081902060010154905163d9ca30f960e01b81526004810191909152602481018290526001600160a01b0385169063d9ca30f990604401602060405180830381600087803b15801561135b57600080fd5b505af115801561136f573d6000803e3d6000fd5b505050506040513d601f19601f820116820180604052508101906113939190611d2a565b506000888152600260205260408082206001015490516377778db360e01b815260048101919091526001600160a01b038616906377778db39060240160206040518083038186803b1580156113e757600080fd5b505afa1580156113fb573d6000803e3d6000fd5b505050506040513d601f19601f8201168201806040525081019061141f9190611d2a565b60008a815260026020526040808220600101549051638ea06f8160e01b81526004810191909152919250906001600160a01b03871690638ea06f819060240160206040518083038186803b15801561147657600080fd5b505afa15801561148a573d6000803e3d6000fd5b505050506040513d601f19601f820116820180604052508101906114ae9190611c9d565b60008b815260026020526040908190206001015490516305f9598760e51b81529192506001600160a01b0388169163bf2b30e0916114f9918690600401918252602082015260400190565b600060405180830381600087803b15801561151357600080fd5b505af1158015611527573d6000803e3d6000fd5b50505050846001600160a01b031663a9059cbb61154c6000546001600160a01b031690565b6040516001600160e01b031960e084901b1681526001600160a01b03909116600482015260248101879052604401602060405180830381600087803b15801561159457600080fd5b505af11580156115a8573d6000803e3d6000fd5b505050506040513d601f19601f820116820180604052508101906115cc9190611d0a565b5060008a8152600260208190526040909120908101546006909101546001600160a01b038088169263a9059cbb92911690611608908890612086565b6040516001600160e01b031960e085901b1681526001600160a01b0390921660048301526024820152604401602060405180830381600087803b15801561164e57600080fd5b505af1158015611662573d6000803e3d6000fd5b505050506040513d601f19601f820116820180604052508101906116869190611d0a565b5060008a8152600260208190526040918290200154905163a9059cbb60e01b81526001600160a01b039182166004820152602481018490529082169063a9059cbb90604401602060405180830381600087803b1580156116e557600080fd5b505af11580156116f9573d6000803e3d6000fd5b505050506040513d601f19601f8201168201806040525081019061171d9190611d0a565b5060008a81526002602052604090819020600381015460019091015491516323b872dd60e01b81526001600160a01b03898116936323b872dd9361176a9330939091169190600401611e61565b600060405180830381600087803b15801561178457600080fd5b505af1158015611798573d6000803e3d6000fd5b50505060008b8152600260208181526040928390209182015460039092015483516001600160a01b0393841681529216908201528c92507f91bef9d2887684cdf932ec87ca0a69e391b83f2256ec9072cc7d9c924119c0d2910160405180910390a26118038a6118b9565b50505050505050505050565b6000546001600160a01b031633146106305760405162461bcd60e51b815260206004820181905260248201527f4f776e61626c653a2063616c6c6572206973206e6f7420746865206f776e6572604482015260640161020b565b600080546001600160a01b038381166001600160a01b0319831681178455604051919092169283917f8be0079c531659141344cd1fd0a4f28419497f9722a3daafe3b4186f6b6457e09190a35050565b6000908152600260208190526040822080546001600160a01b03199081168255600182018490559181018054831690556003810180548316905560048101839055600581018054909216909155600681018290556007810191909155600801805460ff19169055565b60008060006119318585611946565b9150915061193e8161198c565b509392505050565b60008082516041141561197d5760208301516040840151606085015160001a61197187828585611b8d565b94509450505050611985565b506000905060025b9250929050565b60008160048111156119ae57634e487b7160e01b600052602160045260246000fd5b14156119b75750565b60018160048111156119d957634e487b7160e01b600052602160045260246000fd5b1415611a275760405162461bcd60e51b815260206004820152601860248201527f45434453413a20696e76616c6964207369676e61747572650000000000000000604482015260640161020b565b6002816004811115611a4957634e487b7160e01b600052602160045260246000fd5b1415611a975760405162461bcd60e51b815260206004820152601f60248201527f45434453413a20696e76616c6964207369676e6174757265206c656e67746800604482015260640161020b565b6003816004811115611ab957634e487b7160e01b600052602160045260246000fd5b1415611b125760405162461bcd60e51b815260206004820152602260248201527f45434453413a20696e76616c6964207369676e6174757265202773272076616c604482015261756560f01b606482015260840161020b565b6004816004811115611b3457634e487b7160e01b600052602160045260246000fd5b1415610fd85760405162461bcd60e51b815260206004820152602260248201527f45434453413a20696e76616c6964207369676e6174757265202776272076616c604482015261756560f01b606482015260840161020b565b6000807f7fffffffffffffffffffffffffffffff5d576e7357a4501ddfe92f46681b20a0831115611bc45750600090506003611c71565b8460ff16601b14158015611bdc57508460ff16601c14155b15611bed5750600090506004611c71565b6040805160008082526020820180845289905260ff881692820192909252606081018690526080810185905260019060a0016020604051602081039080840390855afa158015611c41573d6000803e3d6000fd5b5050604051601f1901519150506001600160a01b038116611c6a57600060019250925050611c71565b9150600090505b94509492505050565b600060208284031215611c8b578081fd5b8135611c96816120c9565b9392505050565b600060208284031215611cae578081fd5b8151611c96816120c9565b600080600080600060a08688031215611cd0578081fd5b8535611cdb816120c9565b9450602086013593506040860135611cf2816120c9565b94979396509394606081013594506080013592915050565b600060208284031215611d1b578081fd5b81518015158114611c96578182fd5b600060208284031215611d3b578081fd5b5051919050565b600060208284031215611d53578081fd5b5035919050565b60008060408385031215611d6c578182fd5b823591506020830135611d7e816120c9565b809150509250929050565b60008060408385031215611d9b578182fd5b82359150602083013567ffffffffffffffff80821115611db9578283fd5b818501915085601f830112611dcc578283fd5b813581811115611dde57611dde6120b3565b604051601f8201601f19908116603f01168101908382118183101715611e0657611e066120b3565b81604052828152886020848701011115611e1e578586fd5b82602086016020830137856020848301015280955050505050509250929050565b60048110611e5d57634e487b7160e01b600052602160045260246000fd5b9052565b6001600160a01b039384168152919092166020820152604081019190915260600190565b60208082526028908201527f5a7966747953616c6573436f6e74726163743a2057696e646f7720697320737460408201526734b6361037b832b760c11b606082015260800190565b60208082526024908201527f5a7966747953616c6573436f6e74726163743a2057696e646f7720697320636c6040820152631bdcd95960e21b606082015260800190565b6020808252602a908201527f5a7966747953616c6573436f6e74726163743a20596f7520617265206e6f74206040820152693a34329039b2b63632b960b11b606082015260800190565b6020808252602c908201527f5a7966747953616c6573436f6e74726163743a204e6f7420696e20746865206360408201526b6f727265637420737461746560a01b606082015260800190565b81516001600160a01b0316815260208083015190820152604080830151610120830191611fde908401826001600160a01b03169052565b506060830151611ff960608401826001600160a01b03169052565b506080830151608083015260a083015161201e60a08401826001600160a01b03169052565b5060c083015160c083015260e083015160e08301526101008084015161204682850182611e3f565b505092915050565b600082198211156120615761206161209d565b500190565b60008261208157634e487b7160e01b81526012600452602481fd5b500490565b6000828210156120985761209861209d565b500390565b634e487b7160e01b600052601160045260246000fd5b634e487b7160e01b600052604160045260246000fd5b6001600160a01b0381168114610fd857600080fdfea2646970667358221220749ad93e3463b8f4be97c5dc81fca05c7f0fb3b178a8b63faa8e67bfd5521aca64736f6c63430008040033",
  "linkReferences": {},
  "deployedLinkReferences": {}
}