{
  "_format": "hh-sol-artifact-1",
  "contractName": "ZyftyKYC",
  "sourceName": "contracts/ZyftyKYC.sol",
  "abi": [
    {
      "inputs": [
        {
          "internalType": "address",
          "name": "issuer",
          "type": "address"
        },
        {
          "internalType": "string",
          "name": "name_",
          "type": "string"
        },
        {
          "internalType": "string",
          "name": "symbol_",
          "type": "string"
        }
      ],
      "stateMutability": "nonpayable",
      "type": "constructor"
    },
    {
      "anonymous": false,
      "inputs": [
        {
          "indexed": false,
          "internalType": "address",
          "name": "owner",
          "type": "address"
        },
        {
          "indexed": false,
          "internalType": "uint256",
          "name": "tokenId",
          "type": "uint256"
        }
      ],
      "name": "Minted",
      "type": "event"
    },
    {
      "anonymous": false,
      "inputs": [
        {
          "indexed": true,
          "internalType": "address",
          "name": "previousOwner",
          "type": "address"
        },
        {
          "indexed": true,
          "internalType": "address",
          "name": "newOwner",
          "type": "address"
        }
      ],
      "name": "OwnershipTransferred",
      "type": "event"
    },
    {
      "anonymous": false,
      "inputs": [
        {
          "indexed": false,
          "internalType": "address",
          "name": "owner",
          "type": "address"
        },
        {
          "indexed": false,
          "internalType": "uint256",
          "name": "tokenId",
          "type": "uint256"
        }
      ],
      "name": "Revoked",
      "type": "event"
    },
    {
      "inputs": [
        {
          "internalType": "address",
          "name": "owner",
          "type": "address"
        }
      ],
      "name": "balanceOf",
      "outputs": [
        {
          "internalType": "uint256",
          "name": "",
          "type": "uint256"
        }
      ],
      "stateMutability": "view",
      "type": "function"
    },
    {
      "inputs": [
        {
          "internalType": "address",
          "name": "newAddress",
          "type": "address"
        }
      ],
      "name": "changeIssuer",
      "outputs": [],
      "stateMutability": "nonpayable",
      "type": "function"
    },
    {
      "inputs": [],
      "name": "emittedCount",
      "outputs": [
        {
          "internalType": "uint256",
          "name": "",
          "type": "uint256"
        }
      ],
      "stateMutability": "view",
      "type": "function"
    },
    {
      "inputs": [
        {
          "internalType": "address",
          "name": "owner",
          "type": "address"
        }
      ],
      "name": "hasValid",
      "outputs": [
        {
          "internalType": "bool",
          "name": "",
          "type": "bool"
        }
      ],
      "stateMutability": "view",
      "type": "function"
    },
    {
      "inputs": [],
      "name": "holdersCount",
      "outputs": [
        {
          "internalType": "uint256",
          "name": "",
          "type": "uint256"
        }
      ],
      "stateMutability": "view",
      "type": "function"
    },
    {
      "inputs": [
        {
          "internalType": "uint256",
          "name": "tokenId",
          "type": "uint256"
        }
      ],
      "name": "isValid",
      "outputs": [
        {
          "internalType": "bool",
          "name": "",
          "type": "bool"
        }
      ],
      "stateMutability": "view",
      "type": "function"
    },
    {
      "inputs": [
        {
          "internalType": "address",
          "name": "owner",
          "type": "address"
        }
      ],
      "name": "mint",
      "outputs": [],
      "stateMutability": "nonpayable",
      "type": "function"
    },
    {
      "inputs": [],
      "name": "name",
      "outputs": [
        {
          "internalType": "string",
          "name": "",
          "type": "string"
        }
      ],
      "stateMutability": "view",
      "type": "function"
    },
    {
      "inputs": [],
      "name": "owner",
      "outputs": [
        {
          "internalType": "address",
          "name": "",
          "type": "address"
        }
      ],
      "stateMutability": "view",
      "type": "function"
    },
    {
      "inputs": [
        {
          "internalType": "uint256",
          "name": "tokenId",
          "type": "uint256"
        }
      ],
      "name": "ownerOf",
      "outputs": [
        {
          "internalType": "address",
          "name": "",
          "type": "address"
        }
      ],
      "stateMutability": "view",
      "type": "function"
    },
    {
      "inputs": [],
      "name": "renounceOwnership",
      "outputs": [],
      "stateMutability": "nonpayable",
      "type": "function"
    },
    {
      "inputs": [
        {
          "internalType": "address",
          "name": "badActor",
          "type": "address"
        }
      ],
      "name": "revoke",
      "outputs": [],
      "stateMutability": "nonpayable",
      "type": "function"
    },
    {
      "inputs": [
        {
          "internalType": "bytes4",
          "name": "interfaceId",
          "type": "bytes4"
        }
      ],
      "name": "supportsInterface",
      "outputs": [
        {
          "internalType": "bool",
          "name": "",
          "type": "bool"
        }
      ],
      "stateMutability": "view",
      "type": "function"
    },
    {
      "inputs": [],
      "name": "symbol",
      "outputs": [
        {
          "internalType": "string",
          "name": "",
          "type": "string"
        }
      ],
      "stateMutability": "view",
      "type": "function"
    },
    {
      "inputs": [
        {
          "internalType": "uint256",
          "name": "index",
          "type": "uint256"
        }
      ],
      "name": "tokenByIndex",
      "outputs": [
        {
          "internalType": "uint256",
          "name": "",
          "type": "uint256"
        }
      ],
      "stateMutability": "view",
      "type": "function"
    },
    {
      "inputs": [
        {
          "internalType": "address",
          "name": "owner",
          "type": "address"
        },
        {
          "internalType": "uint256",
          "name": "index",
          "type": "uint256"
        }
      ],
      "name": "tokenOfOwnerByIndex",
      "outputs": [
        {
          "internalType": "uint256",
          "name": "",
          "type": "uint256"
        }
      ],
      "stateMutability": "view",
      "type": "function"
    },
    {
      "inputs": [
        {
          "internalType": "uint256",
          "name": "tokenId",
          "type": "uint256"
        }
      ],
      "name": "tokenURI",
      "outputs": [
        {
          "internalType": "string",
          "name": "",
          "type": "string"
        }
      ],
      "stateMutability": "view",
      "type": "function"
    },
    {
      "inputs": [
        {
          "internalType": "address",
          "name": "newOwner",
          "type": "address"
        }
      ],
      "name": "transferOwnership",
      "outputs": [],
      "stateMutability": "nonpayable",
      "type": "function"
    }
  ],
  "bytecode": "0x60806040523480156200001157600080fd5b506040516200135a3803806200135a833981016040819052620000349162000250565b81816200004133620000a7565b815162000056906005906020850190620000f7565b5080516200006c906006906020840190620000f7565b505060098054336001600160a01b031991821617909155600a80549091166001600160a01b0395909516949094179093555062000329915050565b600080546001600160a01b038381166001600160a01b0319831681178455604051919092169283917f8be0079c531659141344cd1fd0a4f28419497f9722a3daafe3b4186f6b6457e09190a35050565b8280546200010590620002d6565b90600052602060002090601f01602090048101928262000129576000855562000174565b82601f106200014457805160ff191683800117855562000174565b8280016001018555821562000174579182015b828111156200017457825182559160200191906001019062000157565b506200018292915062000186565b5090565b5b8082111562000182576000815560010162000187565b600082601f830112620001ae578081fd5b81516001600160401b0380821115620001cb57620001cb62000313565b604051601f8301601f19908116603f01168101908282118183101715620001f657620001f662000313565b8160405283815260209250868385880101111562000212578485fd5b8491505b8382101562000235578582018301518183018401529082019062000216565b838211156200024657848385830101525b9695505050505050565b60008060006060848603121562000265578283fd5b83516001600160a01b03811681146200027c578384fd5b60208501519093506001600160401b038082111562000299578384fd5b620002a7878388016200019d565b93506040860151915080821115620002bd578283fd5b50620002cc868287016200019d565b9150509250925092565b600181811c90821680620002eb57607f821691505b602082108114156200030d57634e487b7160e01b600052602260045260246000fd5b50919050565b634e487b7160e01b600052604160045260246000fd5b61102180620003396000396000f3fe608060405234801561001057600080fd5b50600436106101165760003560e01c806370a08231116100a25780638da5cb5b116100715780638da5cb5b1461025857806395d89b4114610269578063c87b56dd14610271578063f2fde38b14610284578063f577a5001461029757600080fd5b806370a0823114610201578063715018a61461022a57806374a8f103146102325780637e8931591461024557600080fd5b806343945512116100e9578063439455121461017d5780634f6ccce7146101a85780636352211e146101b95780636a627842146101e45780636b4ed21b146101f957600080fd5b806301ffc9a71461011b57806306fdde031461014357806326019c18146101585780632f745c591461016a575b600080fd5b61012e610129366004610dcf565b6102aa565b60405190151581526020015b60405180910390f35b61014b610317565b60405161013a9190610e3e565b6007545b60405190815260200161013a565b61015c610178366004610da6565b6103a9565b61012e61018b366004610d8c565b6001600160a01b0316600090815260046020526040902054151590565b61015c6101b6366004610df7565b90565b6101cc6101c7366004610df7565b610441565b6040516001600160a01b03909116815260200161013a565b6101f76101f2366004610d8c565b61045f565b005b60085461015c565b61015c61020f366004610d8c565b6001600160a01b031660009081526002602052604090205490565b6101f7610512565b6101f7610240366004610d8c565b610548565b6101f7610253366004610d8c565b610633565b6000546001600160a01b03166101cc565b61014b61067f565b61014b61027f366004610df7565b61068e565b6101f7610292366004610d8c565b610705565b61012e6102a5366004610df7565b6107a0565b60006001600160e01b0319821663a511533d60e01b14806102db57506001600160e01b03198216635b5e139f60e01b145b806102f657506001600160e01b03198216632d57debd60e01b145b8061031157506301ffc9a760e01b6001600160e01b03198316145b92915050565b60606005805461032690610f7f565b80601f016020809104026020016040519081016040528092919081815260200182805461035290610f7f565b801561039f5780601f106103745761010080835404028352916020019161039f565b820191906000526020600020905b81548152906001019060200180831161038257829003601f168201915b5050505050905090565b6001600160a01b03821660009081526002602052604081208054831061040d5760405162461bcd60e51b8152602060048201526014602482015273151bdad95b88191bd95cc81b9bdd08195e1a5cdd60621b60448201526064015b60405180910390fd5b80838154811061042d57634e487b7160e01b600052603260045260246000fd5b906000526020600020015491505092915050565b600061044c826107bf565b600101546001600160a01b031692915050565b600a546001600160a01b031633146104895760405162461bcd60e51b815260040161040490610ea6565b6001600160a01b038116600090815260046020526040902054156105055760405162461bcd60e51b815260206004820152602d60248201527f43616e206f6e6c7920697373756520612073696e676c652076616c696420746f60448201526c6b656e20617420612074696d6560981b6064820152608401610404565b61050e8161081f565b5050565b6000546001600160a01b0316331461053c5760405162461bcd60e51b815260040161040490610e71565b610546600061088e565b565b600a546001600160a01b031633146105725760405162461bcd60e51b815260040161040490610ea6565b6001600160a01b0381166000908152600460205260409020546105ea5760405162461bcd60e51b815260206004820152602a60248201527f43616e6e6f74207265766f6b6520746f6b656e2c20686173206e6f7468696e6760448201526920746f207265766f6b6560b01b6064820152608401610404565b6000806105f783836103a9565b90505b610603816107a0565b610625578161061181610fba565b92505061061e83836103a9565b90506105fa565b61062e816108de565b505050565b6000546001600160a01b0316331461065d5760405162461bcd60e51b815260040161040490610e71565b600a80546001600160a01b0319166001600160a01b0392909216919091179055565b60606006805461032690610f7f565b6060610699826107bf565b5060006106b160408051602081019091526000815290565b8051909150156106ef57806106c7846020610a08565b6040516020016106d8929190610e0f565b604051602081830303815290604052915050919050565b5050604080516020810190915260008152919050565b6000546001600160a01b0316331461072f5760405162461bcd60e51b815260040161040490610e71565b6001600160a01b0381166107945760405162461bcd60e51b815260206004820152602660248201527f4f776e61626c653a206e6577206f776e657220697320746865207a65726f206160448201526564647265737360d01b6064820152608401610404565b61079d8161088e565b50565b60006107ab826107bf565b60010154600160a01b900460ff1692915050565b60008181526001602081905260408220908101546001600160a01b03166103115760405162461bcd60e51b8152602060048201526014602482015273151bdad95b88191bd95cc81b9bdd08195e1a5cdd60621b6044820152606401610404565b60075461082e82826001610bf1565b604080516001600160a01b0384168152602081018390527f30385c845b448a36257a6a1716e6ad2e1bc2cbe333cde1e69fe849ad6511adfe910160405180910390a16001600760008282546108839190610eea565b909155509092915050565b600080546001600160a01b038381166001600160a01b0319831681178455604051919092169283917f8be0079c531659141344cd1fd0a4f28419497f9722a3daafe3b4186f6b6457e09190a35050565b60006108e9826107bf565b6001810154909150600160a01b900460ff166109475760405162461bcd60e51b815260206004820152601860248201527f546f6b656e20697320616c726561647920696e76616c696400000000000000006044820152606401610404565b60018101805460ff60a01b1981169091556001600160a01b031660009081526004602052604090205461098a57634e487b7160e01b600052600160045260246000fd5b6001818101546001600160a01b0316600090815260046020526040812080549091906109b7908490610f21565b90915550506001810154604080516001600160a01b039092168252602082018490527f713b90881ad62c4fa8ab6bd9197fa86481fc0c11b2edba60026514281b2dbac4910160405180910390a15050565b60606000610a17836002610f02565b610a22906002610eea565b67ffffffffffffffff811115610a4857634e487b7160e01b600052604160045260246000fd5b6040519080825280601f01601f191660200182016040528015610a72576020820181803683370190505b509050600360fc1b81600081518110610a9b57634e487b7160e01b600052603260045260246000fd5b60200101906001600160f81b031916908160001a905350600f60fb1b81600181518110610ad857634e487b7160e01b600052603260045260246000fd5b60200101906001600160f81b031916908160001a9053506000610afc846002610f02565b610b07906001610eea565b90505b6001811115610b9b576f181899199a1a9b1b9c1cb0b131b232b360811b85600f1660108110610b4957634e487b7160e01b600052603260045260246000fd5b1a60f81b828281518110610b6d57634e487b7160e01b600052603260045260246000fd5b60200101906001600160f81b031916908160001a90535060049490941c93610b9481610f68565b9050610b0a565b508315610bea5760405162461bcd60e51b815260206004820181905260248201527f537472696e67733a20686578206c656e67746820696e73756666696369656e746044820152606401610404565b9392505050565b600082815260016020819052604090912001546001600160a01b031615610c5a5760405162461bcd60e51b815260206004820152601d60248201527f43616e6e6f74206d696e7420616e2061737369676e656420746f6b656e0000006044820152606401610404565b6001600160a01b038316600090815260026020526040902054610c9057600160086000828254610c8a9190610eea565b90915550505b604080516060810182523381526001600160a01b0385811660208084018281528615801586880190815260008a81526001808652898220985189549089166001600160a01b03199091161789559351978401805492511515600160a01b026001600160a81b031990931698909716979097171790945591845260028082528585208054600384528787208a88528452968620879055908252918501825590835290912090910183905561062e576001600160a01b0383166000908152600460205260408120805460019290610d66908490610eea565b9091555050505050565b80356001600160a01b0381168114610d8757600080fd5b919050565b600060208284031215610d9d578081fd5b610bea82610d70565b60008060408385031215610db8578081fd5b610dc183610d70565b946020939093013593505050565b600060208284031215610de0578081fd5b81356001600160e01b031981168114610bea578182fd5b600060208284031215610e08578081fd5b5035919050565b60008351610e21818460208801610f38565b835190830190610e35818360208801610f38565b01949350505050565b6020815260008251806020840152610e5d816040850160208701610f38565b601f01601f19169190910160400192915050565b6020808252818101527f4f776e61626c653a2063616c6c6572206973206e6f7420746865206f776e6572604082015260600190565b60208082526024908201527f4163636573732064656e6965642c206e6f74207369676e6564206279205f697360408201526339bab2b960e11b606082015260800190565b60008219821115610efd57610efd610fd5565b500190565b6000816000190483118215151615610f1c57610f1c610fd5565b500290565b600082821015610f3357610f33610fd5565b500390565b60005b83811015610f53578181015183820152602001610f3b565b83811115610f62576000848401525b50505050565b600081610f7757610f77610fd5565b506000190190565b600181811c90821680610f9357607f821691505b60208210811415610fb457634e487b7160e01b600052602260045260246000fd5b50919050565b6000600019821415610fce57610fce610fd5565b5060010190565b634e487b7160e01b600052601160045260246000fdfea2646970667358221220e69351bb60b6d1ac36cbdcda90989507bdb6bd532b13e10bd0964b36082d4ac864736f6c63430008040033",
  "linkReferences": {},
  "deployedLinkReferences": {}
}