{
  "_format": "hh-sol-artifact-1",
  "contractName": "ZyftyKYC",
  "sourceName": "contracts/ZyftyKYC.sol",
  "abi": [
    {
      "inputs": [
        {
          "internalType": "address",
          "name": "issuer",
          "type": "address"
        },
        {
          "internalType": "string",
          "name": "name_",
          "type": "string"
        },
        {
          "internalType": "string",
          "name": "symbol_",
          "type": "string"
        }
      ],
      "stateMutability": "nonpayable",
      "type": "constructor"
    },
    {
      "anonymous": false,
      "inputs": [
        {
          "indexed": false,
          "internalType": "address",
          "name": "owner",
          "type": "address"
        },
        {
          "indexed": false,
          "internalType": "uint256",
          "name": "tokenId",
          "type": "uint256"
        }
      ],
      "name": "Minted",
      "type": "event"
    },
    {
      "anonymous": false,
      "inputs": [
        {
          "indexed": true,
          "internalType": "address",
          "name": "previousOwner",
          "type": "address"
        },
        {
          "indexed": true,
          "internalType": "address",
          "name": "newOwner",
          "type": "address"
        }
      ],
      "name": "OwnershipTransferred",
      "type": "event"
    },
    {
      "anonymous": false,
      "inputs": [
        {
          "indexed": false,
          "internalType": "address",
          "name": "owner",
          "type": "address"
        },
        {
          "indexed": false,
          "internalType": "uint256",
          "name": "tokenId",
          "type": "uint256"
        }
      ],
      "name": "Revoked",
      "type": "event"
    },
    {
      "inputs": [
        {
          "internalType": "address",
          "name": "owner",
          "type": "address"
        }
      ],
      "name": "balanceOf",
      "outputs": [
        {
          "internalType": "uint256",
          "name": "",
          "type": "uint256"
        }
      ],
      "stateMutability": "view",
      "type": "function"
    },
    {
      "inputs": [
        {
          "internalType": "address",
          "name": "newAddress",
          "type": "address"
        }
      ],
      "name": "changeIssuer",
      "outputs": [],
      "stateMutability": "nonpayable",
      "type": "function"
    },
    {
      "inputs": [],
      "name": "emittedCount",
      "outputs": [
        {
          "internalType": "uint256",
          "name": "",
          "type": "uint256"
        }
      ],
      "stateMutability": "view",
      "type": "function"
    },
    {
      "inputs": [
        {
          "internalType": "address",
          "name": "owner",
          "type": "address"
        }
      ],
      "name": "hasValid",
      "outputs": [
        {
          "internalType": "bool",
          "name": "",
          "type": "bool"
        }
      ],
      "stateMutability": "view",
      "type": "function"
    },
    {
      "inputs": [],
      "name": "holdersCount",
      "outputs": [
        {
          "internalType": "uint256",
          "name": "",
          "type": "uint256"
        }
      ],
      "stateMutability": "view",
      "type": "function"
    },
    {
      "inputs": [
        {
          "internalType": "uint256",
          "name": "tokenId",
          "type": "uint256"
        }
      ],
      "name": "isValid",
      "outputs": [
        {
          "internalType": "bool",
          "name": "",
          "type": "bool"
        }
      ],
      "stateMutability": "view",
      "type": "function"
    },
    {
      "inputs": [
        {
          "internalType": "address",
          "name": "owner",
          "type": "address"
        }
      ],
      "name": "mint",
      "outputs": [],
      "stateMutability": "nonpayable",
      "type": "function"
    },
    {
      "inputs": [],
      "name": "name",
      "outputs": [
        {
          "internalType": "string",
          "name": "",
          "type": "string"
        }
      ],
      "stateMutability": "view",
      "type": "function"
    },
    {
      "inputs": [],
      "name": "owner",
      "outputs": [
        {
          "internalType": "address",
          "name": "",
          "type": "address"
        }
      ],
      "stateMutability": "view",
      "type": "function"
    },
    {
      "inputs": [
        {
          "internalType": "uint256",
          "name": "tokenId",
          "type": "uint256"
        }
      ],
      "name": "ownerOf",
      "outputs": [
        {
          "internalType": "address",
          "name": "",
          "type": "address"
        }
      ],
      "stateMutability": "view",
      "type": "function"
    },
    {
      "inputs": [],
      "name": "renounceOwnership",
      "outputs": [],
      "stateMutability": "nonpayable",
      "type": "function"
    },
    {
      "inputs": [
        {
          "internalType": "address",
          "name": "badActor",
          "type": "address"
        }
      ],
      "name": "revoke",
      "outputs": [],
      "stateMutability": "nonpayable",
      "type": "function"
    },
    {
      "inputs": [
        {
          "internalType": "bytes4",
          "name": "interfaceId",
          "type": "bytes4"
        }
      ],
      "name": "supportsInterface",
      "outputs": [
        {
          "internalType": "bool",
          "name": "",
          "type": "bool"
        }
      ],
      "stateMutability": "view",
      "type": "function"
    },
    {
      "inputs": [],
      "name": "symbol",
      "outputs": [
        {
          "internalType": "string",
          "name": "",
          "type": "string"
        }
      ],
      "stateMutability": "view",
      "type": "function"
    },
    {
      "inputs": [
        {
          "internalType": "uint256",
          "name": "index",
          "type": "uint256"
        }
      ],
      "name": "tokenByIndex",
      "outputs": [
        {
          "internalType": "uint256",
          "name": "",
          "type": "uint256"
        }
      ],
      "stateMutability": "view",
      "type": "function"
    },
    {
      "inputs": [
        {
          "internalType": "address",
          "name": "owner",
          "type": "address"
        },
        {
          "internalType": "uint256",
          "name": "index",
          "type": "uint256"
        }
      ],
      "name": "tokenOfOwnerByIndex",
      "outputs": [
        {
          "internalType": "uint256",
          "name": "",
          "type": "uint256"
        }
      ],
      "stateMutability": "view",
      "type": "function"
    },
    {
      "inputs": [
        {
          "internalType": "uint256",
          "name": "tokenId",
          "type": "uint256"
        }
      ],
      "name": "tokenURI",
      "outputs": [
        {
          "internalType": "string",
          "name": "",
          "type": "string"
        }
      ],
      "stateMutability": "view",
      "type": "function"
    },
    {
      "inputs": [
        {
          "internalType": "address",
          "name": "newOwner",
          "type": "address"
        }
      ],
      "name": "transferOwnership",
      "outputs": [],
      "stateMutability": "nonpayable",
      "type": "function"
    }
  ],
  "bytecode": "0x60806040523480156200001157600080fd5b506040516200131938038062001319833981016040819052620000349162000250565b81816200004133620000a7565b815162000056906005906020850190620000f7565b5080516200006c906006906020840190620000f7565b505060098054336001600160a01b031991821617909155600a80549091166001600160a01b0395909516949094179093555062000329915050565b600080546001600160a01b038381166001600160a01b0319831681178455604051919092169283917f8be0079c531659141344cd1fd0a4f28419497f9722a3daafe3b4186f6b6457e09190a35050565b8280546200010590620002d6565b90600052602060002090601f01602090048101928262000129576000855562000174565b82601f106200014457805160ff191683800117855562000174565b8280016001018555821562000174579182015b828111156200017457825182559160200191906001019062000157565b506200018292915062000186565b5090565b5b8082111562000182576000815560010162000187565b600082601f830112620001ae578081fd5b81516001600160401b0380821115620001cb57620001cb62000313565b604051601f8301601f19908116603f01168101908282118183101715620001f657620001f662000313565b8160405283815260209250868385880101111562000212578485fd5b8491505b8382101562000235578582018301518183018401529082019062000216565b838211156200024657848385830101525b9695505050505050565b60008060006060848603121562000265578283fd5b83516001600160a01b03811681146200027c578384fd5b60208501519093506001600160401b038082111562000299578384fd5b620002a7878388016200019d565b93506040860151915080821115620002bd578283fd5b50620002cc868287016200019d565b9150509250925092565b600181811c90821680620002eb57607f821691505b602082108114156200030d57634e487b7160e01b600052602260045260246000fd5b50919050565b634e487b7160e01b600052604160045260246000fd5b610fe080620003396000396000f3fe608060405234801561001057600080fd5b50600436106101165760003560e01c806370a08231116100a25780638da5cb5b116100715780638da5cb5b1461025857806395d89b4114610269578063c87b56dd14610271578063f2fde38b14610284578063f577a5001461029757600080fd5b806370a0823114610201578063715018a61461022a57806374a8f103146102325780637e8931591461024557600080fd5b806343945512116100e9578063439455121461017d5780634f6ccce7146101a85780636352211e146101b95780636a627842146101e45780636b4ed21b146101f957600080fd5b806301ffc9a71461011b57806306fdde031461014357806326019c18146101585780632f745c591461016a575b600080fd5b61012e610129366004610dc3565b6102aa565b60405190151581526020015b60405180910390f35b61014b610317565b60405161013a9190610e32565b6007545b60405190815260200161013a565b61015c610178366004610d9a565b6103a9565b61012e61018b366004610d80565b6001600160a01b0316600090815260046020526040902054151590565b61015c6101b6366004610deb565b90565b6101cc6101c7366004610deb565b610441565b6040516001600160a01b03909116815260200161013a565b6101f76101f2366004610d80565b61045f565b005b60085461015c565b61015c61020f366004610d80565b6001600160a01b031660009081526002602052604090205490565b6101f7610512565b6101f7610240366004610d80565b610526565b6101f7610253366004610d80565b610611565b6000546001600160a01b03166101cc565b61014b61063b565b61014b61027f366004610deb565b61064a565b6101f7610292366004610d80565b6106c1565b61012e6102a5366004610deb565b61073a565b60006001600160e01b0319821663a511533d60e01b14806102db57506001600160e01b03198216635b5e139f60e01b145b806102f657506001600160e01b03198216632d57debd60e01b145b8061031157506301ffc9a760e01b6001600160e01b03198316145b92915050565b60606005805461032690610f3e565b80601f016020809104026020016040519081016040528092919081815260200182805461035290610f3e565b801561039f5780601f106103745761010080835404028352916020019161039f565b820191906000526020600020905b81548152906001019060200180831161038257829003601f168201915b5050505050905090565b6001600160a01b03821660009081526002602052604081208054831061040d5760405162461bcd60e51b8152602060048201526014602482015273151bdad95b88191bd95cc81b9bdd08195e1a5cdd60621b60448201526064015b60405180910390fd5b80838154811061042d57634e487b7160e01b600052603260045260246000fd5b906000526020600020015491505092915050565b600061044c82610759565b600101546001600160a01b031692915050565b600a546001600160a01b031633146104895760405162461bcd60e51b815260040161040490610e65565b6001600160a01b038116600090815260046020526040902054156105055760405162461bcd60e51b815260206004820152602d60248201527f43616e206f6e6c7920697373756520612073696e676c652076616c696420746f60448201526c6b656e20617420612074696d6560981b6064820152608401610404565b61050e816107b9565b5050565b61051a610828565b6105246000610882565b565b600a546001600160a01b031633146105505760405162461bcd60e51b815260040161040490610e65565b6001600160a01b0381166000908152600460205260409020546105c85760405162461bcd60e51b815260206004820152602a60248201527f43616e6e6f74207265766f6b6520746f6b656e2c20686173206e6f7468696e6760448201526920746f207265766f6b6560b01b6064820152608401610404565b6000806105d583836103a9565b90505b6105e18161073a565b61060357816105ef81610f79565b9250506105fc83836103a9565b90506105d8565b61060c816108d2565b505050565b610619610828565b600a80546001600160a01b0319166001600160a01b0392909216919091179055565b60606006805461032690610f3e565b606061065582610759565b50600061066d60408051602081019091526000815290565b8051909150156106ab57806106838460206109fc565b604051602001610694929190610e03565b604051602081830303815290604052915050919050565b5050604080516020810190915260008152919050565b6106c9610828565b6001600160a01b03811661072e5760405162461bcd60e51b815260206004820152602660248201527f4f776e61626c653a206e6577206f776e657220697320746865207a65726f206160448201526564647265737360d01b6064820152608401610404565b61073781610882565b50565b600061074582610759565b60010154600160a01b900460ff1692915050565b60008181526001602081905260408220908101546001600160a01b03166103115760405162461bcd60e51b8152602060048201526014602482015273151bdad95b88191bd95cc81b9bdd08195e1a5cdd60621b6044820152606401610404565b6007546107c882826001610be5565b604080516001600160a01b0384168152602081018390527f30385c845b448a36257a6a1716e6ad2e1bc2cbe333cde1e69fe849ad6511adfe910160405180910390a160016007600082825461081d9190610ea9565b909155509092915050565b6000546001600160a01b031633146105245760405162461bcd60e51b815260206004820181905260248201527f4f776e61626c653a2063616c6c6572206973206e6f7420746865206f776e65726044820152606401610404565b600080546001600160a01b038381166001600160a01b0319831681178455604051919092169283917f8be0079c531659141344cd1fd0a4f28419497f9722a3daafe3b4186f6b6457e09190a35050565b60006108dd82610759565b6001810154909150600160a01b900460ff1661093b5760405162461bcd60e51b815260206004820152601860248201527f546f6b656e20697320616c726561647920696e76616c696400000000000000006044820152606401610404565b60018101805460ff60a01b1981169091556001600160a01b031660009081526004602052604090205461097e57634e487b7160e01b600052600160045260246000fd5b6001818101546001600160a01b0316600090815260046020526040812080549091906109ab908490610ee0565b90915550506001810154604080516001600160a01b039092168252602082018490527f713b90881ad62c4fa8ab6bd9197fa86481fc0c11b2edba60026514281b2dbac4910160405180910390a15050565b60606000610a0b836002610ec1565b610a16906002610ea9565b67ffffffffffffffff811115610a3c57634e487b7160e01b600052604160045260246000fd5b6040519080825280601f01601f191660200182016040528015610a66576020820181803683370190505b509050600360fc1b81600081518110610a8f57634e487b7160e01b600052603260045260246000fd5b60200101906001600160f81b031916908160001a905350600f60fb1b81600181518110610acc57634e487b7160e01b600052603260045260246000fd5b60200101906001600160f81b031916908160001a9053506000610af0846002610ec1565b610afb906001610ea9565b90505b6001811115610b8f576f181899199a1a9b1b9c1cb0b131b232b360811b85600f1660108110610b3d57634e487b7160e01b600052603260045260246000fd5b1a60f81b828281518110610b6157634e487b7160e01b600052603260045260246000fd5b60200101906001600160f81b031916908160001a90535060049490941c93610b8881610f27565b9050610afe565b508315610bde5760405162461bcd60e51b815260206004820181905260248201527f537472696e67733a20686578206c656e67746820696e73756666696369656e746044820152606401610404565b9392505050565b600082815260016020819052604090912001546001600160a01b031615610c4e5760405162461bcd60e51b815260206004820152601d60248201527f43616e6e6f74206d696e7420616e2061737369676e656420746f6b656e0000006044820152606401610404565b6001600160a01b038316600090815260026020526040902054610c8457600160086000828254610c7e9190610ea9565b90915550505b604080516060810182523381526001600160a01b0385811660208084018281528615801586880190815260008a81526001808652898220985189549089166001600160a01b03199091161789559351978401805492511515600160a01b026001600160a81b031990931698909716979097171790945591845260028082528585208054600384528787208a88528452968620879055908252918501825590835290912090910183905561060c576001600160a01b0383166000908152600460205260408120805460019290610d5a908490610ea9565b9091555050505050565b80356001600160a01b0381168114610d7b57600080fd5b919050565b600060208284031215610d91578081fd5b610bde82610d64565b60008060408385031215610dac578081fd5b610db583610d64565b946020939093013593505050565b600060208284031215610dd4578081fd5b81356001600160e01b031981168114610bde578182fd5b600060208284031215610dfc578081fd5b5035919050565b60008351610e15818460208801610ef7565b835190830190610e29818360208801610ef7565b01949350505050565b6020815260008251806020840152610e51816040850160208701610ef7565b601f01601f19169190910160400192915050565b60208082526024908201527f4163636573732064656e6965642c206e6f74207369676e6564206279205f697360408201526339bab2b960e11b606082015260800190565b60008219821115610ebc57610ebc610f94565b500190565b6000816000190483118215151615610edb57610edb610f94565b500290565b600082821015610ef257610ef2610f94565b500390565b60005b83811015610f12578181015183820152602001610efa565b83811115610f21576000848401525b50505050565b600081610f3657610f36610f94565b506000190190565b600181811c90821680610f5257607f821691505b60208210811415610f7357634e487b7160e01b600052602260045260246000fd5b50919050565b6000600019821415610f8d57610f8d610f94565b5060010190565b634e487b7160e01b600052601160045260246000fdfea2646970667358221220be34f074512da0d3f7d4b85697db0e37c2b704f2598c587b9672e18120db537b64736f6c63430008040033",
  "linkReferences": {},
  "deployedLinkReferences": {}
}