{
  "_format": "hh-sol-artifact-1",
  "contractName": "TokenFactory",
  "sourceName": "contracts/TokenEscrow.sol",
  "abi": [
    {
      "inputs": [
        {
          "internalType": "address",
          "name": "kycContract",
          "type": "address"
        }
      ],
      "stateMutability": "nonpayable",
      "type": "constructor"
    },
    {
      "anonymous": false,
      "inputs": [
        {
          "indexed": true,
          "internalType": "address",
          "name": "previousOwner",
          "type": "address"
        },
        {
          "indexed": true,
          "internalType": "address",
          "name": "newOwner",
          "type": "address"
        }
      ],
      "name": "OwnershipTransferred",
      "type": "event"
    },
    {
      "inputs": [],
      "name": "allProperties",
      "outputs": [
        {
          "components": [
            {
              "internalType": "address",
              "name": "seller",
              "type": "address"
            },
            {
              "internalType": "address",
              "name": "asset",
              "type": "address"
            },
            {
              "internalType": "uint256",
              "name": "pricePer",
              "type": "uint256"
            },
            {
              "internalType": "uint256",
              "name": "created",
              "type": "uint256"
            },
            {
              "internalType": "uint256",
              "name": "time",
              "type": "uint256"
            },
            {
              "internalType": "uint256",
              "name": "tokensLeft",
              "type": "uint256"
            },
            {
              "internalType": "uint256",
              "name": "totalAssets",
              "type": "uint256"
            },
            {
              "internalType": "address",
              "name": "createdToken",
              "type": "address"
            }
          ],
          "internalType": "struct TokenFactory.ListedProperty[]",
          "name": "",
          "type": "tuple[]"
        }
      ],
      "stateMutability": "view",
      "type": "function"
    },
    {
      "inputs": [
        {
          "internalType": "uint256",
          "name": "id",
          "type": "uint256"
        },
        {
          "internalType": "uint256",
          "name": "numberOfTokens",
          "type": "uint256"
        }
      ],
      "name": "buyToken",
      "outputs": [],
      "stateMutability": "nonpayable",
      "type": "function"
    },
    {
      "inputs": [
        {
          "internalType": "uint256",
          "name": "id",
          "type": "uint256"
        }
      ],
      "name": "cancelNow",
      "outputs": [],
      "stateMutability": "nonpayable",
      "type": "function"
    },
    {
      "inputs": [
        {
          "internalType": "uint256",
          "name": "id",
          "type": "uint256"
        }
      ],
      "name": "contractOf",
      "outputs": [
        {
          "internalType": "address",
          "name": "",
          "type": "address"
        }
      ],
      "stateMutability": "view",
      "type": "function"
    },
    {
      "inputs": [
        {
          "internalType": "uint256",
          "name": "id",
          "type": "uint256"
        },
        {
          "internalType": "string",
          "name": "symbol",
          "type": "string"
        },
        {
          "internalType": "string",
          "name": "name",
          "type": "string"
        }
      ],
      "name": "execute",
      "outputs": [
        {
          "internalType": "address",
          "name": "",
          "type": "address"
        }
      ],
      "stateMutability": "nonpayable",
      "type": "function"
    },
    {
      "inputs": [
        {
          "internalType": "uint256",
          "name": "id",
          "type": "uint256"
        }
      ],
      "name": "getProperty",
      "outputs": [
        {
          "components": [
            {
              "internalType": "address",
              "name": "seller",
              "type": "address"
            },
            {
              "internalType": "address",
              "name": "asset",
              "type": "address"
            },
            {
              "internalType": "uint256",
              "name": "pricePer",
              "type": "uint256"
            },
            {
              "internalType": "uint256",
              "name": "created",
              "type": "uint256"
            },
            {
              "internalType": "uint256",
              "name": "time",
              "type": "uint256"
            },
            {
              "internalType": "uint256",
              "name": "tokensLeft",
              "type": "uint256"
            },
            {
              "internalType": "uint256",
              "name": "totalAssets",
              "type": "uint256"
            },
            {
              "internalType": "address",
              "name": "createdToken",
              "type": "address"
            }
          ],
          "internalType": "struct TokenFactory.ListedProperty",
          "name": "",
          "type": "tuple"
        }
      ],
      "stateMutability": "view",
      "type": "function"
    },
    {
      "inputs": [
        {
          "internalType": "uint256",
          "name": "id",
          "type": "uint256"
        }
      ],
      "name": "isOpen",
      "outputs": [
        {
          "internalType": "bool",
          "name": "",
          "type": "bool"
        }
      ],
      "stateMutability": "view",
      "type": "function"
    },
    {
      "inputs": [],
      "name": "kycContract",
      "outputs": [
        {
          "internalType": "address",
          "name": "",
          "type": "address"
        }
      ],
      "stateMutability": "view",
      "type": "function"
    },
    {
      "inputs": [
        {
          "internalType": "address",
          "name": "seller",
          "type": "address"
        },
        {
          "internalType": "address",
          "name": "asset",
          "type": "address"
        },
        {
          "internalType": "uint256",
          "name": "numTokens",
          "type": "uint256"
        },
        {
          "internalType": "uint256",
          "name": "pricePer",
          "type": "uint256"
        },
        {
          "internalType": "uint256",
          "name": "time",
          "type": "uint256"
        }
      ],
      "name": "listProperty",
      "outputs": [
        {
          "internalType": "uint256",
          "name": "",
          "type": "uint256"
        }
      ],
      "stateMutability": "nonpayable",
      "type": "function"
    },
    {
      "inputs": [
        {
          "internalType": "uint256",
          "name": "id",
          "type": "uint256"
        }
      ],
      "name": "owedTokens",
      "outputs": [
        {
          "internalType": "uint256",
          "name": "",
          "type": "uint256"
        }
      ],
      "stateMutability": "view",
      "type": "function"
    },
    {
      "inputs": [],
      "name": "owner",
      "outputs": [
        {
          "internalType": "address",
          "name": "",
          "type": "address"
        }
      ],
      "stateMutability": "view",
      "type": "function"
    },
    {
      "inputs": [
        {
          "internalType": "uint256",
          "name": "id",
          "type": "uint256"
        }
      ],
      "name": "pricePer",
      "outputs": [
        {
          "internalType": "uint256",
          "name": "",
          "type": "uint256"
        }
      ],
      "stateMutability": "view",
      "type": "function"
    },
    {
      "inputs": [],
      "name": "renounceOwnership",
      "outputs": [],
      "stateMutability": "nonpayable",
      "type": "function"
    },
    {
      "inputs": [
        {
          "internalType": "uint256",
          "name": "id",
          "type": "uint256"
        }
      ],
      "name": "revertBuyer",
      "outputs": [],
      "stateMutability": "nonpayable",
      "type": "function"
    },
    {
      "inputs": [
        {
          "internalType": "address",
          "name": "newAddress",
          "type": "address"
        }
      ],
      "name": "setKYCcontract",
      "outputs": [],
      "stateMutability": "nonpayable",
      "type": "function"
    },
    {
      "inputs": [
        {
          "internalType": "uint256",
          "name": "id",
          "type": "uint256"
        }
      ],
      "name": "tokensLeft",
      "outputs": [
        {
          "internalType": "uint256",
          "name": "",
          "type": "uint256"
        }
      ],
      "stateMutability": "view",
      "type": "function"
    },
    {
      "inputs": [
        {
          "internalType": "address",
          "name": "newOwner",
          "type": "address"
        }
      ],
      "name": "transferOwnership",
      "outputs": [],
      "stateMutability": "nonpayable",
      "type": "function"
    }
  ],
  "bytecode": "0x608060405234801561001057600080fd5b5060405161231038038061231083398101604081905261002f916100ad565b6100383361005d565b600280546001600160a01b0319166001600160a01b03929092169190911790556100db565b600080546001600160a01b038381166001600160a01b0319831681178455604051919092169283917f8be0079c531659141344cd1fd0a4f28419497f9722a3daafe3b4186f6b6457e09190a35050565b6000602082840312156100be578081fd5b81516001600160a01b03811681146100d4578182fd5b9392505050565b612226806100ea6000396000f3fe60806040523480156200001157600080fd5b5060043610620001215760003560e01c8063715018a611620000af578063b060becd116200007a578063b060becd1462000291578063bb430fd314620002bf578063bb47214414620002d6578063f2fde38b14620002ed578063faa3b379146200030457600080fd5b8063715018a614620002475780638da5cb5b14620002515780639448bddb1462000263578063aa3245fc146200027a57600080fd5b80634d6861a611620000f05780634d6861a6146200019e5780635e7446d714620001c65780635e93d7a514620001fb5780636d3123eb146200022157600080fd5b8063057466ea14620001265780631558e2ab146200013f578063248441fa146200015657806332665ffb1462000178575b600080fd5b6200013d6200013736600462001184565b6200031b565b005b6200013d620001503660046200105d565b620005cc565b62000160620005f8565b6040516200016f919062001228565b60405180910390f35b6200018f62000189366004620010ed565b62000759565b6040516200016f9190620012e3565b620001b5620001af366004620010ed565b620007de565b60405190151581526020016200016f565b620001ec620001d7366004620010ed565b60009081526003602052604090206005015490565b6040519081526020016200016f565b620001ec6200020c366004620010ed565b60009081526003602052604090206002015490565b6002546001600160a01b03165b6040516001600160a01b0390911681526020016200016f565b6200013d6200080b565b6000546001600160a01b03166200022e565b6200022e62000274366004620010ed565b62000823565b620001ec6200028b3660046200107a565b62000893565b620001ec620002a2366004620010ed565b600090815260046020908152604080832033845290915290205490565b6200022e620002d036600462001106565b620009d3565b6200013d620002e7366004620010ed565b62000da3565b6200013d620002fe3660046200105d565b62000df9565b6200013d62000315366004620010ed565b62000e78565b6002546040516321ca2a8960e11b81523360048201526001600160a01b039091169063439455129060240160206040518083038186803b1580156200035f57600080fd5b505afa15801562000374573d6000803e3d6000fd5b505050506040513d601f19601f820116820180604052508101906200039a9190620010cb565b620003ec5760405162461bcd60e51b815260206004820152601f60248201527f4163636573732064656e6965642c206e6f74204b59432076657269666965640060448201526064015b60405180910390fd5b81620003f881620007de565b620004175760405162461bcd60e51b8152600401620003e390620012b9565b600083815260036020526040902060050154821115620004735760405162461bcd60e51b8152602060048201526016602482015275139bdd08195b9bdd59da081d1bdad95b9cc81b19599d60521b6044820152606401620003e3565b6000838152600360205260408120600281015490919062000495908562000ec7565b60018301546040516323b872dd60e01b8152336004820152306024820152604481018390529192506001600160a01b03169081906323b872dd90606401602060405180830381600087803b158015620004ed57600080fd5b505af115801562000502573d6000803e3d6000fd5b505050506040513d601f19601f82011682018060405250810190620005289190620010cb565b506000868152600460209081526040808320338452909152902054620005775760008681526005602090815260408220805460018101825590835291200180546001600160a01b031916331790555b600086815260046020908152604080832033845290915281208054879290620005a2908490620012f4565b9250508190555084836005016000828254620005bf919062001331565b9091555050505050505050565b620005d662000edc565b600280546001600160a01b0319166001600160a01b0392909216919091179055565b606060006200060660015490565b905060008167ffffffffffffffff8111156200063257634e487b7160e01b600052604160045260246000fd5b6040519080825280602002602001820160405280156200066f57816020015b6200065b62000f88565b815260200190600190039081620006515790505b50905060015b62000682836001620012f4565b811015620007525760008181526003602081815260409283902083516101008101855281546001600160a01b03908116825260018084015482169483019490945260028301549582019590955292810154606084015260048101546080840152600581015460a0840152600681015460c0840152600781015490931660e0830152849062000711908562001331565b815181106200073057634e487b7160e01b600052603260045260246000fd5b602002602001018190525050808062000749906200134b565b91505062000675565b5092915050565b6200076362000f88565b5060009081526003602081815260409283902083516101008101855281546001600160a01b039081168252600183015481169382019390935260028201549481019490945291820154606084015260048201546080840152600582015460a0840152600682015460c08401526007909101541660e082015290565b60008181526003602081905260408220600481015491015442916200080391620012f4565b101592915050565b6200081562000edc565b62000821600062000f38565b565b6000818152600360205260408120600701546001600160a01b0316806200088d5760405162461bcd60e51b815260206004820152601a60248201527f455243323020636f6e7472616374206e6f7420637265617465640000000000006044820152606401620003e3565b92915050565b60006200089f62000edc565b6001600160a01b038616620008f75760405162461bcd60e51b815260206004820152601f60248201527f53656c6c65722061646472657373206d757374206e6f74206265206e756c6c006044820152606401620003e3565b62000906600180546001019055565b60006200091260015490565b60408051610100810182526001600160a01b03998a1681529789166020808a019182528983019788524260608b0190815260808b0197885260a08b018a815260c08c019a8b52600060e08d018181528782526003948590529590209b518c54908e166001600160a01b0319918216178d55935160018d018054918f16918616919091179055985160028c015551908a015594516004890155945160058801559451600687015550509051600790930180549390941692169190911790915590565b6002546040516321ca2a8960e11b81523360048201526000916001600160a01b03169063439455129060240160206040518083038186803b15801562000a1857600080fd5b505afa15801562000a2d573d6000803e3d6000fd5b505050506040513d601f19601f8201168201806040525081019062000a539190620010cb565b62000aa15760405162461bcd60e51b815260206004820152601f60248201527f4163636573732064656e6965642c206e6f74204b5943207665726966696564006044820152606401620003e3565b8562000aad81620007de565b62000acc5760405162461bcd60e51b8152600401620003e390620012b9565b600087815260036020526040902060058101541562000b2e5760405162461bcd60e51b815260206004820152601860248201527f4e6f7420616c6c20746f6b656e732070757263686173656400000000000000006044820152606401620003e3565b6001810154600282015460068301546001600160a01b039092169160009162000b58919062000ec7565b835460405163a9059cbb60e01b81526001600160a01b0391821660048201526024810183905291925083169063a9059cbb90604401602060405180830381600087803b15801562000ba857600080fd5b505af115801562000bbd573d6000803e3d6000fd5b505050506040513d601f19601f8201168201806040525081019062000be39190620010cb565b50600087878b8b876006015460405162000bfd9062000fe8565b62000c0d9594939291906200127b565b604051809103906000f08015801562000c2a573d6000803e3d6000fd5b5060008c81526005602090815260408083208054825181850281018501909352808352949550929390929183018282801562000c9057602002820191906000526020600020905b81546001600160a01b0316815260019091019060200180831162000c71575b50505060008f81526004602052604081209394509150505b825181101562000d6f57600083828151811062000cd557634e487b7160e01b600052603260045260246000fd5b6020908102919091018101516001600160a01b0380821660008181529387905260409384902054935163785d04f560e01b81526004810194909452602484015290925086169063785d04f590604401600060405180830381600087803b15801562000d3f57600080fd5b505af115801562000d54573d6000803e3d6000fd5b5050505050808062000d66906200134b565b91505062000ca8565b50505060079390930180546001600160a01b0319166001600160a01b03909416939093179092555091979650505050505050565b8062000daf81620007de565b1562000df55760405162461bcd60e51b81526020600482015260146024820152732bb4b73237bb9034b99039ba34b6361037b832b760611b6044820152606401620003e3565b5050565b62000e0362000edc565b6001600160a01b03811662000e6a5760405162461bcd60e51b815260206004820152602660248201527f4f776e61626c653a206e6577206f776e657220697320746865207a65726f206160448201526564647265737360d01b6064820152608401620003e3565b62000e758162000f38565b50565b8062000e8481620007de565b62000ea35760405162461bcd60e51b8152600401620003e390620012b9565b62000ead62000edc565b600062000eba8362000759565b6000608090910152505050565b600062000ed582846200130f565b9392505050565b6000546001600160a01b03163314620008215760405162461bcd60e51b815260206004820181905260248201527f4f776e61626c653a2063616c6c6572206973206e6f7420746865206f776e65726044820152606401620003e3565b600080546001600160a01b038381166001600160a01b0319831681178455604051919092169283917f8be0079c531659141344cd1fd0a4f28419497f9722a3daafe3b4186f6b6457e09190a35050565b60405180610100016040528060006001600160a01b0316815260200160006001600160a01b03168152602001600081526020016000815260200160008152602001600081526020016000815260200160006001600160a01b031681525090565b610e71806200138083390190565b80356001600160a01b03811681146200100e57600080fd5b919050565b60008083601f84011262001025578182fd5b50813567ffffffffffffffff8111156200103d578182fd5b6020830191508360208285010111156200105657600080fd5b9250929050565b6000602082840312156200106f578081fd5b62000ed58262000ff6565b600080600080600060a0868803121562001092578081fd5b6200109d8662000ff6565b9450620010ad6020870162000ff6565b94979496505050506040830135926060810135926080909101359150565b600060208284031215620010dd578081fd5b8151801515811462000ed5578182fd5b600060208284031215620010ff578081fd5b5035919050565b6000806000806000606086880312156200111e578081fd5b85359450602086013567ffffffffffffffff808211156200113d578283fd5b6200114b89838a0162001013565b9096509450604088013591508082111562001164578283fd5b50620011738882890162001013565b969995985093965092949392505050565b6000806040838503121562001197578182fd5b50508035926020909101359150565b81835281816020850137506000828201602090810191909152601f909101601f19169091010190565b80516001600160a01b03908116835260208083015182169084015260408083015190840152606080830151908401526080808301519084015260a0828101519084015260c0808301519084015260e09182015116910152565b6020808252825182820181905260009190848201906040850190845b818110156200126f576200125a838551620011cf565b92840192610100929092019160010162001244565b50909695505050505050565b60608152600062001291606083018789620011a6565b8281036020840152620012a6818688620011a6565b9150508260408301529695505050505050565b60208082526010908201526f15da5b991bddc81a5cc818db1bdcd95960821b604082015260600190565b61010081016200088d8284620011cf565b600082198211156200130a576200130a62001369565b500190565b60008160001904831182151516156200132c576200132c62001369565b500290565b60008282101562001346576200134662001369565b500390565b600060001982141562001362576200136262001369565b5060010190565b634e487b7160e01b600052601160045260246000fdfe60806040523480156200001157600080fd5b5060405162000e7138038062000e71833981016040819052620000349162000238565b8251839083906200004d906003906020850190620000df565b50805162000063906004906020840190620000df565b505050620000806200007a6200008960201b60201c565b6200008d565b505050620002fb565b3390565b600580546001600160a01b038381166001600160a01b0319831681179093556040519116919082907f8be0079c531659141344cd1fd0a4f28419497f9722a3daafe3b4186f6b6457e090600090a35050565b828054620000ed90620002a8565b90600052602060002090601f0160209004810192826200011157600085556200015c565b82601f106200012c57805160ff19168380011785556200015c565b828001600101855582156200015c579182015b828111156200015c5782518255916020019190600101906200013f565b506200016a9291506200016e565b5090565b5b808211156200016a57600081556001016200016f565b600082601f83011262000196578081fd5b81516001600160401b0380821115620001b357620001b3620002e5565b604051601f8301601f19908116603f01168101908282118183101715620001de57620001de620002e5565b81604052838152602092508683858801011115620001fa578485fd5b8491505b838210156200021d5785820183015181830184015290820190620001fe565b838211156200022e57848385830101525b9695505050505050565b6000806000606084860312156200024d578283fd5b83516001600160401b038082111562000264578485fd5b620002728783880162000185565b9450602086015191508082111562000288578384fd5b50620002978682870162000185565b925050604084015190509250925092565b600181811c90821680620002bd57607f821691505b60208210811415620002df57634e487b7160e01b600052602260045260246000fd5b50919050565b634e487b7160e01b600052604160045260246000fd5b610b66806200030b6000396000f3fe608060405234801561001057600080fd5b50600436106100f55760003560e01c8063715018a611610097578063a457c2d711610066578063a457c2d7146101eb578063a9059cbb146101fe578063dd62ed3e14610211578063f2fde38b1461022457600080fd5b8063715018a6146101ab578063785d04f5146101b55780638da5cb5b146101c857806395d89b41146101e357600080fd5b806323b872dd116100d357806323b872dd1461014d578063313ce56714610160578063395093511461016f57806370a082311461018257600080fd5b806306fdde03146100fa578063095ea7b31461011857806318160ddd1461013b575b600080fd5b610102610237565b60405161010f9190610a7e565b60405180910390f35b61012b610126366004610a33565b6102c9565b604051901515815260200161010f565b6002545b60405190815260200161010f565b61012b61015b3660046109f8565b6102e1565b6040516012815260200161010f565b61012b61017d366004610a33565b610305565b61013f6101903660046109a5565b6001600160a01b031660009081526020819052604090205490565b6101b3610327565b005b6101b36101c3366004610a5c565b61033b565b6005546040516001600160a01b03909116815260200161010f565b610102610351565b61012b6101f9366004610a33565b610360565b61012b61020c366004610a33565b6103e0565b61013f61021f3660046109c6565b6103ee565b6101b36102323660046109a5565b610419565b60606003805461024690610af5565b80601f016020809104026020016040519081016040528092919081815260200182805461027290610af5565b80156102bf5780601f10610294576101008083540402835291602001916102bf565b820191906000526020600020905b8154815290600101906020018083116102a257829003601f168201915b5050505050905090565b6000336102d7818585610492565b5060019392505050565b6000336102ef8582856105b6565b6102fa858585610630565b506001949350505050565b6000336102d781858561031883836103ee565b6103229190610ad1565b610492565b61032f6107fe565b6103396000610858565b565b6103436107fe565b61034d81836108aa565b5050565b60606004805461024690610af5565b6000338161036e82866103ee565b9050838110156103d35760405162461bcd60e51b815260206004820152602560248201527f45524332303a2064656372656173656420616c6c6f77616e63652062656c6f77604482015264207a65726f60d81b60648201526084015b60405180910390fd5b6102fa8286868403610492565b6000336102d7818585610630565b6001600160a01b03918216600090815260016020908152604080832093909416825291909152205490565b6104216107fe565b6001600160a01b0381166104865760405162461bcd60e51b815260206004820152602660248201527f4f776e61626c653a206e6577206f776e657220697320746865207a65726f206160448201526564647265737360d01b60648201526084016103ca565b61048f81610858565b50565b6001600160a01b0383166104f45760405162461bcd60e51b8152602060048201526024808201527f45524332303a20617070726f76652066726f6d20746865207a65726f206164646044820152637265737360e01b60648201526084016103ca565b6001600160a01b0382166105555760405162461bcd60e51b815260206004820152602260248201527f45524332303a20617070726f766520746f20746865207a65726f206164647265604482015261737360f01b60648201526084016103ca565b6001600160a01b0383811660008181526001602090815260408083209487168084529482529182902085905590518481527f8c5be1e5ebec7d5bd14f71427d1e84f3dd0314c0f7b2291e5b200ac8c7c3b925910160405180910390a3505050565b60006105c284846103ee565b9050600019811461062a578181101561061d5760405162461bcd60e51b815260206004820152601d60248201527f45524332303a20696e73756666696369656e7420616c6c6f77616e636500000060448201526064016103ca565b61062a8484848403610492565b50505050565b6001600160a01b0383166106945760405162461bcd60e51b815260206004820152602560248201527f45524332303a207472616e736665722066726f6d20746865207a65726f206164604482015264647265737360d81b60648201526084016103ca565b6001600160a01b0382166106f65760405162461bcd60e51b815260206004820152602360248201527f45524332303a207472616e7366657220746f20746865207a65726f206164647260448201526265737360e81b60648201526084016103ca565b6001600160a01b0383166000908152602081905260409020548181101561076e5760405162461bcd60e51b815260206004820152602660248201527f45524332303a207472616e7366657220616d6f756e7420657863656564732062604482015265616c616e636560d01b60648201526084016103ca565b6001600160a01b038085166000908152602081905260408082208585039055918516815290812080548492906107a5908490610ad1565b92505081905550826001600160a01b0316846001600160a01b03167fddf252ad1be2c89b69c2b068fc378daa952ba7f163c4a11628f55a4df523b3ef846040516107f191815260200190565b60405180910390a361062a565b6005546001600160a01b031633146103395760405162461bcd60e51b815260206004820181905260248201527f4f776e61626c653a2063616c6c6572206973206e6f7420746865206f776e657260448201526064016103ca565b600580546001600160a01b038381166001600160a01b0319831681179093556040519116919082907f8be0079c531659141344cd1fd0a4f28419497f9722a3daafe3b4186f6b6457e090600090a35050565b6001600160a01b0382166109005760405162461bcd60e51b815260206004820152601f60248201527f45524332303a206d696e7420746f20746865207a65726f20616464726573730060448201526064016103ca565b80600260008282546109129190610ad1565b90915550506001600160a01b0382166000908152602081905260408120805483929061093f908490610ad1565b90915550506040518181526001600160a01b038316906000907fddf252ad1be2c89b69c2b068fc378daa952ba7f163c4a11628f55a4df523b3ef9060200160405180910390a35050565b80356001600160a01b03811681146109a057600080fd5b919050565b6000602082840312156109b6578081fd5b6109bf82610989565b9392505050565b600080604083850312156109d8578081fd5b6109e183610989565b91506109ef60208401610989565b90509250929050565b600080600060608486031215610a0c578081fd5b610a1584610989565b9250610a2360208501610989565b9150604084013590509250925092565b60008060408385031215610a45578182fd5b610a4e83610989565b946020939093013593505050565b60008060408385031215610a6e578182fd5b823591506109ef60208401610989565b6000602080835283518082850152825b81811015610aaa57858101830151858201604001528201610a8e565b81811115610abb5783604083870101525b50601f01601f1916929092016040019392505050565b60008219821115610af057634e487b7160e01b81526011600452602481fd5b500190565b600181811c90821680610b0957607f821691505b60208210811415610b2a57634e487b7160e01b600052602260045260246000fd5b5091905056fea2646970667358221220191755ebbbe5802b696ffd11f41d82834477b08ba21e39b313f77f4935a2805464736f6c63430008040033a264697066735822122039dbdf07b075abc32fc334c68801c4ce39baa83b5ca8f417ab56b071ad99970b64736f6c63430008040033",
  "linkReferences": {},
  "deployedLinkReferences": {}
}