{
  "_format": "hh-sol-artifact-1",
  "contractName": "TokenFactory",
  "sourceName": "contracts/TokenEscrow.sol",
  "abi": [
    {
      "anonymous": false,
      "inputs": [
        {
          "indexed": true,
          "internalType": "address",
          "name": "previousOwner",
          "type": "address"
        },
        {
          "indexed": true,
          "internalType": "address",
          "name": "newOwner",
          "type": "address"
        }
      ],
      "name": "OwnershipTransferred",
      "type": "event"
    },
    {
      "inputs": [
        {
          "internalType": "uint256",
          "name": "id",
          "type": "uint256"
        },
        {
          "internalType": "uint256",
          "name": "numberOfTokens",
          "type": "uint256"
        }
      ],
      "name": "buyToken",
      "outputs": [],
      "stateMutability": "nonpayable",
      "type": "function"
    },
    {
      "inputs": [
        {
          "internalType": "uint256",
          "name": "id",
          "type": "uint256"
        }
      ],
      "name": "cancelNow",
      "outputs": [],
      "stateMutability": "nonpayable",
      "type": "function"
    },
    {
      "inputs": [
        {
          "internalType": "uint256",
          "name": "id",
          "type": "uint256"
        }
      ],
      "name": "contractOf",
      "outputs": [
        {
          "internalType": "address",
          "name": "",
          "type": "address"
        }
      ],
      "stateMutability": "view",
      "type": "function"
    },
    {
      "inputs": [
        {
          "internalType": "uint256",
          "name": "id",
          "type": "uint256"
        },
        {
          "internalType": "string",
          "name": "symbol",
          "type": "string"
        },
        {
          "internalType": "string",
          "name": "name",
          "type": "string"
        }
      ],
      "name": "execute",
      "outputs": [
        {
          "internalType": "address",
          "name": "",
          "type": "address"
        }
      ],
      "stateMutability": "nonpayable",
      "type": "function"
    },
    {
      "inputs": [
        {
          "internalType": "uint256",
          "name": "id",
          "type": "uint256"
        }
      ],
      "name": "getProperty",
      "outputs": [
        {
          "components": [
            {
              "internalType": "address",
              "name": "seller",
              "type": "address"
            },
            {
              "internalType": "address",
              "name": "asset",
              "type": "address"
            },
            {
              "internalType": "uint256",
              "name": "pricePer",
              "type": "uint256"
            },
            {
              "internalType": "uint256",
              "name": "created",
              "type": "uint256"
            },
            {
              "internalType": "uint256",
              "name": "time",
              "type": "uint256"
            },
            {
              "internalType": "uint256",
              "name": "tokensLeft",
              "type": "uint256"
            },
            {
              "internalType": "uint256",
              "name": "totalAssets",
              "type": "uint256"
            },
            {
              "internalType": "address",
              "name": "createdToken",
              "type": "address"
            }
          ],
          "internalType": "struct TokenFactory.ListedProperty",
          "name": "",
          "type": "tuple"
        }
      ],
      "stateMutability": "view",
      "type": "function"
    },
    {
      "inputs": [
        {
          "internalType": "address",
          "name": "seller",
          "type": "address"
        },
        {
          "internalType": "address",
          "name": "asset",
          "type": "address"
        },
        {
          "internalType": "uint256",
          "name": "numTokens",
          "type": "uint256"
        },
        {
          "internalType": "uint256",
          "name": "pricePer",
          "type": "uint256"
        },
        {
          "internalType": "uint256",
          "name": "time",
          "type": "uint256"
        }
      ],
      "name": "listProperty",
      "outputs": [
        {
          "internalType": "uint256",
          "name": "",
          "type": "uint256"
        }
      ],
      "stateMutability": "nonpayable",
      "type": "function"
    },
    {
      "inputs": [
        {
          "internalType": "uint256",
          "name": "id",
          "type": "uint256"
        }
      ],
      "name": "owedTokens",
      "outputs": [
        {
          "internalType": "uint256",
          "name": "",
          "type": "uint256"
        }
      ],
      "stateMutability": "view",
      "type": "function"
    },
    {
      "inputs": [],
      "name": "owner",
      "outputs": [
        {
          "internalType": "address",
          "name": "",
          "type": "address"
        }
      ],
      "stateMutability": "view",
      "type": "function"
    },
    {
      "inputs": [],
      "name": "renounceOwnership",
      "outputs": [],
      "stateMutability": "nonpayable",
      "type": "function"
    },
    {
      "inputs": [
        {
          "internalType": "uint256",
          "name": "id",
          "type": "uint256"
        }
      ],
      "name": "revertBuyer",
      "outputs": [],
      "stateMutability": "nonpayable",
      "type": "function"
    },
    {
      "inputs": [
        {
          "internalType": "uint256",
          "name": "id",
          "type": "uint256"
        }
      ],
      "name": "tokensLeft",
      "outputs": [
        {
          "internalType": "uint256",
          "name": "",
          "type": "uint256"
        }
      ],
      "stateMutability": "view",
      "type": "function"
    },
    {
      "inputs": [
        {
          "internalType": "address",
          "name": "newOwner",
          "type": "address"
        }
      ],
      "name": "transferOwnership",
      "outputs": [],
      "stateMutability": "nonpayable",
      "type": "function"
    }
  ],
  "bytecode": "0x608060405234801561001057600080fd5b5061001a3361001f565b61006f565b600080546001600160a01b038381166001600160a01b0319831681178455604051919092169283917f8be0079c531659141344cd1fd0a4f28419497f9722a3daafe3b4186f6b6457e09190a35050565b611e008061007e6000396000f3fe60806040523480156200001157600080fd5b5060043610620000c35760003560e01c8063aa3245fc116200007a578063aa3245fc14620001e8578063b060becd14620001ff578063bb430fd3146200022d578063bb4721441462000244578063f2fde38b146200025b578063faa3b379146200027257600080fd5b8063057466ea14620000c857806332665ffb14620000e15780635e7446d7146200016c578063715018a614620001a15780638da5cb5b14620001ab5780639448bddb14620001d1575b600080fd5b620000df620000d936600462000e1b565b62000289565b005b620000f8620000f236600462000d84565b62000492565b60405162000163919081516001600160a01b03908116825260208084015182169083015260408084015190830152606080840151908301526080808401519083015260a0838101519083015260c0808401519083015260e09283015116918101919091526101000190565b60405180910390f35b620001926200017d36600462000d84565b60009081526002602052604090206005015490565b60405190815260200162000163565b620000df62000573565b6000546001600160a01b03165b6040516001600160a01b03909116815260200162000163565b620001b8620001e236600462000d84565b6200058b565b62000192620001f936600462000d11565b620005fb565b620001926200021036600462000d84565b600090815260036020908152604080832033845290915290205490565b620001b86200023e36600462000d9d565b6200073e565b620000df6200025536600462000d84565b62000a5f565b620000df6200026c36600462000cf4565b62000ad1565b620000df6200028336600462000d84565b62000b50565b6000828152600260205260409020600481015460039091015483914291620002b2919062000ece565b1015620002dc5760405162461bcd60e51b8152600401620002d39062000ea4565b60405180910390fd5b600083815260026020526040902060050154821115620003385760405162461bcd60e51b8152602060048201526016602482015275139bdd08195b9bdd59da081d1bdad95b9cc81b19599d60521b6044820152606401620002d3565b60008381526002602081905260408220908101549091906200035b908562000bbe565b60018301546040516323b872dd60e01b8152336004820152306024820152604481018390529192506001600160a01b03169081906323b872dd90606401602060405180830381600087803b158015620003b357600080fd5b505af1158015620003c8573d6000803e3d6000fd5b505050506040513d601f19601f82011682018060405250810190620003ee919062000d62565b5060008681526003602090815260408083203384529091529020546200043d5760008681526004602090815260408220805460018101825590835291200180546001600160a01b031916331790555b6000868152600360209081526040808320338452909152812080548792906200046890849062000ece565b925050819055508483600501600082825462000485919062000f0b565b9091555050505050505050565b620004f660405180610100016040528060006001600160a01b0316815260200160006001600160a01b03168152602001600081526020016000815260200160008152602001600081526020016000815260200160006001600160a01b031681525090565b5060009081526002602081815260409283902083516101008101855281546001600160a01b039081168252600183015481169382019390935292810154938301939093526003830154606083015260048301546080830152600583015460a0830152600683015460c083015260079092015490911660e082015290565b6200057d62000bd3565b62000589600062000c2f565b565b6000818152600260205260408120600701546001600160a01b031680620005f55760405162461bcd60e51b815260206004820152601a60248201527f455243323020636f6e7472616374206e6f7420637265617465640000000000006044820152606401620002d3565b92915050565b60006200060762000bd3565b6001600160a01b0386166200065f5760405162461bcd60e51b815260206004820152601f60248201527f53656c6c65722061646472657373206d757374206e6f74206265206e756c6c006044820152606401620002d3565b6200066e600180546001019055565b60006200067a60015490565b60408051610100810182526001600160a01b03998a1681529789166020808a019182528983019788524260608b0190815260808b0197885260a08b018a815260c08c019a8b52600060e08d018181528782526002948590529590209b518c54908e166001600160a01b0319918216178d55935160018d018054918f169186169190911790559851918b01919091555160038a015594516004890155945160058801559451600687015550509051600790930180549390941692169190911790915590565b600085815260026020526040812060048101546003909101548791429162000767919062000ece565b1015620007885760405162461bcd60e51b8152600401620002d39062000ea4565b6000878152600260205260409020600581015415620007ea5760405162461bcd60e51b815260206004820152601860248201527f4e6f7420616c6c20746f6b656e732070757263686173656400000000000000006044820152606401620002d3565b6001810154600282015460068301546001600160a01b039092169160009162000814919062000bbe565b835460405163a9059cbb60e01b81526001600160a01b0391821660048201526024810183905291925083169063a9059cbb90604401602060405180830381600087803b1580156200086457600080fd5b505af115801562000879573d6000803e3d6000fd5b505050506040513d601f19601f820116820180604052508101906200089f919062000d62565b50600087878b8b8760060154604051620008b99062000c7f565b620008c995949392919062000e66565b604051809103906000f080158015620008e6573d6000803e3d6000fd5b5060008c8152600460209081526040808320805482518185028101850190935280835294955092939092918301828280156200094c57602002820191906000526020600020905b81546001600160a01b031681526001909101906020018083116200092d575b50505060008f81526003602052604081209394509150505b825181101562000a2b5760008382815181106200099157634e487b7160e01b600052603260045260246000fd5b6020908102919091018101516001600160a01b0380821660008181529387905260409384902054935163785d04f560e01b81526004810194909452602484015290925086169063785d04f590604401600060405180830381600087803b158015620009fb57600080fd5b505af115801562000a10573d6000803e3d6000fd5b5050505050808062000a229062000f25565b91505062000964565b50505060079390930180546001600160a01b0319166001600160a01b03909416939093179092555091979650505050505050565b60008181526002602052604090206004810154600390910154829162000a859162000ece565b42101562000acd5760405162461bcd60e51b81526020600482015260146024820152732bb4b73237bb9034b99039ba34b6361037b832b760611b6044820152606401620002d3565b5050565b62000adb62000bd3565b6001600160a01b03811662000b425760405162461bcd60e51b815260206004820152602660248201527f4f776e61626c653a206e6577206f776e657220697320746865207a65726f206160448201526564647265737360d01b6064820152608401620002d3565b62000b4d8162000c2f565b50565b600081815260026020526040902060048101546003909101548291429162000b79919062000ece565b101562000b9a5760405162461bcd60e51b8152600401620002d39062000ea4565b62000ba462000bd3565b600062000bb18362000492565b6000608090910152505050565b600062000bcc828462000ee9565b9392505050565b6000546001600160a01b03163314620005895760405162461bcd60e51b815260206004820181905260248201527f4f776e61626c653a2063616c6c6572206973206e6f7420746865206f776e65726044820152606401620002d3565b600080546001600160a01b038381166001600160a01b0319831681178455604051919092169283917f8be0079c531659141344cd1fd0a4f28419497f9722a3daafe3b4186f6b6457e09190a35050565b610e718062000f5a83390190565b80356001600160a01b038116811462000ca557600080fd5b919050565b60008083601f84011262000cbc578182fd5b50813567ffffffffffffffff81111562000cd4578182fd5b60208301915083602082850101111562000ced57600080fd5b9250929050565b60006020828403121562000d06578081fd5b62000bcc8262000c8d565b600080600080600060a0868803121562000d29578081fd5b62000d348662000c8d565b945062000d446020870162000c8d565b94979496505050506040830135926060810135926080909101359150565b60006020828403121562000d74578081fd5b8151801515811462000bcc578182fd5b60006020828403121562000d96578081fd5b5035919050565b60008060008060006060868803121562000db5578081fd5b85359450602086013567ffffffffffffffff8082111562000dd4578283fd5b62000de289838a0162000caa565b9096509450604088013591508082111562000dfb578283fd5b5062000e0a8882890162000caa565b969995985093965092949392505050565b6000806040838503121562000e2e578182fd5b50508035926020909101359150565b81835281816020850137506000828201602090810191909152601f909101601f19169091010190565b60608152600062000e7c60608301878962000e3d565b828103602084015262000e9181868862000e3d565b9150508260408301529695505050505050565b60208082526010908201526f15da5b991bddc81a5cc818db1bdcd95960821b604082015260600190565b6000821982111562000ee45762000ee462000f43565b500190565b600081600019048311821515161562000f065762000f0662000f43565b500290565b60008282101562000f205762000f2062000f43565b500390565b600060001982141562000f3c5762000f3c62000f43565b5060010190565b634e487b7160e01b600052601160045260246000fdfe60806040523480156200001157600080fd5b5060405162000e7138038062000e71833981016040819052620000349162000238565b8251839083906200004d906003906020850190620000df565b50805162000063906004906020840190620000df565b505050620000806200007a6200008960201b60201c565b6200008d565b505050620002fb565b3390565b600580546001600160a01b038381166001600160a01b0319831681179093556040519116919082907f8be0079c531659141344cd1fd0a4f28419497f9722a3daafe3b4186f6b6457e090600090a35050565b828054620000ed90620002a8565b90600052602060002090601f0160209004810192826200011157600085556200015c565b82601f106200012c57805160ff19168380011785556200015c565b828001600101855582156200015c579182015b828111156200015c5782518255916020019190600101906200013f565b506200016a9291506200016e565b5090565b5b808211156200016a57600081556001016200016f565b600082601f83011262000196578081fd5b81516001600160401b0380821115620001b357620001b3620002e5565b604051601f8301601f19908116603f01168101908282118183101715620001de57620001de620002e5565b81604052838152602092508683858801011115620001fa578485fd5b8491505b838210156200021d5785820183015181830184015290820190620001fe565b838211156200022e57848385830101525b9695505050505050565b6000806000606084860312156200024d578283fd5b83516001600160401b038082111562000264578485fd5b620002728783880162000185565b9450602086015191508082111562000288578384fd5b50620002978682870162000185565b925050604084015190509250925092565b600181811c90821680620002bd57607f821691505b60208210811415620002df57634e487b7160e01b600052602260045260246000fd5b50919050565b634e487b7160e01b600052604160045260246000fd5b610b66806200030b6000396000f3fe608060405234801561001057600080fd5b50600436106100f55760003560e01c8063715018a611610097578063a457c2d711610066578063a457c2d7146101eb578063a9059cbb146101fe578063dd62ed3e14610211578063f2fde38b1461022457600080fd5b8063715018a6146101ab578063785d04f5146101b55780638da5cb5b146101c857806395d89b41146101e357600080fd5b806323b872dd116100d357806323b872dd1461014d578063313ce56714610160578063395093511461016f57806370a082311461018257600080fd5b806306fdde03146100fa578063095ea7b31461011857806318160ddd1461013b575b600080fd5b610102610237565b60405161010f9190610a7e565b60405180910390f35b61012b610126366004610a33565b6102c9565b604051901515815260200161010f565b6002545b60405190815260200161010f565b61012b61015b3660046109f8565b6102e1565b6040516012815260200161010f565b61012b61017d366004610a33565b610305565b61013f6101903660046109a5565b6001600160a01b031660009081526020819052604090205490565b6101b3610327565b005b6101b36101c3366004610a5c565b61033b565b6005546040516001600160a01b03909116815260200161010f565b610102610351565b61012b6101f9366004610a33565b610360565b61012b61020c366004610a33565b6103e0565b61013f61021f3660046109c6565b6103ee565b6101b36102323660046109a5565b610419565b60606003805461024690610af5565b80601f016020809104026020016040519081016040528092919081815260200182805461027290610af5565b80156102bf5780601f10610294576101008083540402835291602001916102bf565b820191906000526020600020905b8154815290600101906020018083116102a257829003601f168201915b5050505050905090565b6000336102d7818585610492565b5060019392505050565b6000336102ef8582856105b6565b6102fa858585610630565b506001949350505050565b6000336102d781858561031883836103ee565b6103229190610ad1565b610492565b61032f6107fe565b6103396000610858565b565b6103436107fe565b61034d81836108aa565b5050565b60606004805461024690610af5565b6000338161036e82866103ee565b9050838110156103d35760405162461bcd60e51b815260206004820152602560248201527f45524332303a2064656372656173656420616c6c6f77616e63652062656c6f77604482015264207a65726f60d81b60648201526084015b60405180910390fd5b6102fa8286868403610492565b6000336102d7818585610630565b6001600160a01b03918216600090815260016020908152604080832093909416825291909152205490565b6104216107fe565b6001600160a01b0381166104865760405162461bcd60e51b815260206004820152602660248201527f4f776e61626c653a206e6577206f776e657220697320746865207a65726f206160448201526564647265737360d01b60648201526084016103ca565b61048f81610858565b50565b6001600160a01b0383166104f45760405162461bcd60e51b8152602060048201526024808201527f45524332303a20617070726f76652066726f6d20746865207a65726f206164646044820152637265737360e01b60648201526084016103ca565b6001600160a01b0382166105555760405162461bcd60e51b815260206004820152602260248201527f45524332303a20617070726f766520746f20746865207a65726f206164647265604482015261737360f01b60648201526084016103ca565b6001600160a01b0383811660008181526001602090815260408083209487168084529482529182902085905590518481527f8c5be1e5ebec7d5bd14f71427d1e84f3dd0314c0f7b2291e5b200ac8c7c3b925910160405180910390a3505050565b60006105c284846103ee565b9050600019811461062a578181101561061d5760405162461bcd60e51b815260206004820152601d60248201527f45524332303a20696e73756666696369656e7420616c6c6f77616e636500000060448201526064016103ca565b61062a8484848403610492565b50505050565b6001600160a01b0383166106945760405162461bcd60e51b815260206004820152602560248201527f45524332303a207472616e736665722066726f6d20746865207a65726f206164604482015264647265737360d81b60648201526084016103ca565b6001600160a01b0382166106f65760405162461bcd60e51b815260206004820152602360248201527f45524332303a207472616e7366657220746f20746865207a65726f206164647260448201526265737360e81b60648201526084016103ca565b6001600160a01b0383166000908152602081905260409020548181101561076e5760405162461bcd60e51b815260206004820152602660248201527f45524332303a207472616e7366657220616d6f756e7420657863656564732062604482015265616c616e636560d01b60648201526084016103ca565b6001600160a01b038085166000908152602081905260408082208585039055918516815290812080548492906107a5908490610ad1565b92505081905550826001600160a01b0316846001600160a01b03167fddf252ad1be2c89b69c2b068fc378daa952ba7f163c4a11628f55a4df523b3ef846040516107f191815260200190565b60405180910390a361062a565b6005546001600160a01b031633146103395760405162461bcd60e51b815260206004820181905260248201527f4f776e61626c653a2063616c6c6572206973206e6f7420746865206f776e657260448201526064016103ca565b600580546001600160a01b038381166001600160a01b0319831681179093556040519116919082907f8be0079c531659141344cd1fd0a4f28419497f9722a3daafe3b4186f6b6457e090600090a35050565b6001600160a01b0382166109005760405162461bcd60e51b815260206004820152601f60248201527f45524332303a206d696e7420746f20746865207a65726f20616464726573730060448201526064016103ca565b80600260008282546109129190610ad1565b90915550506001600160a01b0382166000908152602081905260408120805483929061093f908490610ad1565b90915550506040518181526001600160a01b038316906000907fddf252ad1be2c89b69c2b068fc378daa952ba7f163c4a11628f55a4df523b3ef9060200160405180910390a35050565b80356001600160a01b03811681146109a057600080fd5b919050565b6000602082840312156109b6578081fd5b6109bf82610989565b9392505050565b600080604083850312156109d8578081fd5b6109e183610989565b91506109ef60208401610989565b90509250929050565b600080600060608486031215610a0c578081fd5b610a1584610989565b9250610a2360208501610989565b9150604084013590509250925092565b60008060408385031215610a45578182fd5b610a4e83610989565b946020939093013593505050565b60008060408385031215610a6e578182fd5b823591506109ef60208401610989565b6000602080835283518082850152825b81811015610aaa57858101830151858201604001528201610a8e565b81811115610abb5783604083870101525b50601f01601f1916929092016040019392505050565b60008219821115610af057634e487b7160e01b81526011600452602481fd5b500190565b600181811c90821680610b0957607f821691505b60208210811415610b2a57634e487b7160e01b600052602260045260246000fd5b5091905056fea2646970667358221220ec94917e7a93ec8c074144ab2f6d6ce9f8f1f12bb98c82e8a9168ef4b2d8731064736f6c63430008040033a2646970667358221220e79b0ee4b288e552d3a02b02c35fea41e27d3de93c5093a2a0b795270b3def3664736f6c63430008040033",
  "linkReferences": {},
  "deployedLinkReferences": {}
}