{
  "_format": "hh-sol-artifact-1",
  "contractName": "TokenFactory",
  "sourceName": "contracts/TokenEscrow.sol",
  "abi": [
    {
      "inputs": [
        {
          "internalType": "address",
          "name": "kycContract",
          "type": "address"
        }
      ],
      "stateMutability": "nonpayable",
      "type": "constructor"
    },
    {
      "anonymous": false,
      "inputs": [
        {
          "indexed": true,
          "internalType": "address",
          "name": "previousOwner",
          "type": "address"
        },
        {
          "indexed": true,
          "internalType": "address",
          "name": "newOwner",
          "type": "address"
        }
      ],
      "name": "OwnershipTransferred",
      "type": "event"
    },
    {
      "inputs": [],
      "name": "allProperties",
      "outputs": [
        {
          "components": [
            {
              "internalType": "address",
              "name": "seller",
              "type": "address"
            },
            {
              "internalType": "address",
              "name": "asset",
              "type": "address"
            },
            {
              "internalType": "uint256",
              "name": "pricePer",
              "type": "uint256"
            },
            {
              "internalType": "uint256",
              "name": "created",
              "type": "uint256"
            },
            {
              "internalType": "uint256",
              "name": "time",
              "type": "uint256"
            },
            {
              "internalType": "uint256",
              "name": "tokensLeft",
              "type": "uint256"
            },
            {
              "internalType": "uint256",
              "name": "totalAssets",
              "type": "uint256"
            },
            {
              "internalType": "address",
              "name": "createdToken",
              "type": "address"
            },
            {
              "internalType": "string",
              "name": "agreement",
              "type": "string"
            }
          ],
          "internalType": "struct TokenFactory.ListedProperty[]",
          "name": "",
          "type": "tuple[]"
        }
      ],
      "stateMutability": "view",
      "type": "function"
    },
    {
      "inputs": [
        {
          "internalType": "uint256",
          "name": "id",
          "type": "uint256"
        },
        {
          "internalType": "uint256",
          "name": "numberOfTokens",
          "type": "uint256"
        },
        {
          "internalType": "bytes",
          "name": "agreementSignature",
          "type": "bytes"
        }
      ],
      "name": "buyToken",
      "outputs": [],
      "stateMutability": "nonpayable",
      "type": "function"
    },
    {
      "inputs": [
        {
          "internalType": "uint256",
          "name": "id",
          "type": "uint256"
        }
      ],
      "name": "cancelNow",
      "outputs": [],
      "stateMutability": "nonpayable",
      "type": "function"
    },
    {
      "inputs": [
        {
          "internalType": "uint256",
          "name": "id",
          "type": "uint256"
        }
      ],
      "name": "contractOf",
      "outputs": [
        {
          "internalType": "address",
          "name": "",
          "type": "address"
        }
      ],
      "stateMutability": "view",
      "type": "function"
    },
    {
      "inputs": [
        {
          "internalType": "uint256",
          "name": "escrowId",
          "type": "uint256"
        },
        {
          "internalType": "address",
          "name": "addr",
          "type": "address"
        }
      ],
      "name": "createAgreementHash",
      "outputs": [
        {
          "internalType": "bytes32",
          "name": "",
          "type": "bytes32"
        }
      ],
      "stateMutability": "view",
      "type": "function"
    },
    {
      "inputs": [
        {
          "internalType": "uint256",
          "name": "id",
          "type": "uint256"
        },
        {
          "internalType": "string",
          "name": "symbol",
          "type": "string"
        },
        {
          "internalType": "string",
          "name": "name",
          "type": "string"
        }
      ],
      "name": "execute",
      "outputs": [
        {
          "internalType": "address",
          "name": "",
          "type": "address"
        }
      ],
      "stateMutability": "nonpayable",
      "type": "function"
    },
    {
      "inputs": [
        {
          "internalType": "uint256",
          "name": "id",
          "type": "uint256"
        }
      ],
      "name": "getProperty",
      "outputs": [
        {
          "components": [
            {
              "internalType": "address",
              "name": "seller",
              "type": "address"
            },
            {
              "internalType": "address",
              "name": "asset",
              "type": "address"
            },
            {
              "internalType": "uint256",
              "name": "pricePer",
              "type": "uint256"
            },
            {
              "internalType": "uint256",
              "name": "created",
              "type": "uint256"
            },
            {
              "internalType": "uint256",
              "name": "time",
              "type": "uint256"
            },
            {
              "internalType": "uint256",
              "name": "tokensLeft",
              "type": "uint256"
            },
            {
              "internalType": "uint256",
              "name": "totalAssets",
              "type": "uint256"
            },
            {
              "internalType": "address",
              "name": "createdToken",
              "type": "address"
            },
            {
              "internalType": "string",
              "name": "agreement",
              "type": "string"
            }
          ],
          "internalType": "struct TokenFactory.ListedProperty",
          "name": "",
          "type": "tuple"
        }
      ],
      "stateMutability": "view",
      "type": "function"
    },
    {
      "inputs": [
        {
          "internalType": "uint256",
          "name": "id",
          "type": "uint256"
        }
      ],
      "name": "isOpen",
      "outputs": [
        {
          "internalType": "bool",
          "name": "",
          "type": "bool"
        }
      ],
      "stateMutability": "view",
      "type": "function"
    },
    {
      "inputs": [],
      "name": "kycContract",
      "outputs": [
        {
          "internalType": "address",
          "name": "",
          "type": "address"
        }
      ],
      "stateMutability": "view",
      "type": "function"
    },
    {
      "inputs": [
        {
          "internalType": "address",
          "name": "seller",
          "type": "address"
        },
        {
          "internalType": "address",
          "name": "asset",
          "type": "address"
        },
        {
          "internalType": "uint256",
          "name": "numTokens",
          "type": "uint256"
        },
        {
          "internalType": "uint256",
          "name": "pricePer",
          "type": "uint256"
        },
        {
          "internalType": "uint256",
          "name": "time",
          "type": "uint256"
        },
        {
          "internalType": "string",
          "name": "agreement",
          "type": "string"
        }
      ],
      "name": "listProperty",
      "outputs": [
        {
          "internalType": "uint256",
          "name": "",
          "type": "uint256"
        }
      ],
      "stateMutability": "nonpayable",
      "type": "function"
    },
    {
      "inputs": [
        {
          "internalType": "uint256",
          "name": "id",
          "type": "uint256"
        }
      ],
      "name": "owedTokens",
      "outputs": [
        {
          "internalType": "uint256",
          "name": "",
          "type": "uint256"
        }
      ],
      "stateMutability": "view",
      "type": "function"
    },
    {
      "inputs": [],
      "name": "owner",
      "outputs": [
        {
          "internalType": "address",
          "name": "",
          "type": "address"
        }
      ],
      "stateMutability": "view",
      "type": "function"
    },
    {
      "inputs": [
        {
          "internalType": "uint256",
          "name": "id",
          "type": "uint256"
        }
      ],
      "name": "pricePer",
      "outputs": [
        {
          "internalType": "uint256",
          "name": "",
          "type": "uint256"
        }
      ],
      "stateMutability": "view",
      "type": "function"
    },
    {
      "inputs": [],
      "name": "renounceOwnership",
      "outputs": [],
      "stateMutability": "nonpayable",
      "type": "function"
    },
    {
      "inputs": [
        {
          "internalType": "uint256",
          "name": "id",
          "type": "uint256"
        }
      ],
      "name": "revertBuyer",
      "outputs": [],
      "stateMutability": "nonpayable",
      "type": "function"
    },
    {
      "inputs": [
        {
          "internalType": "address",
          "name": "newAddress",
          "type": "address"
        }
      ],
      "name": "setKYCcontract",
      "outputs": [],
      "stateMutability": "nonpayable",
      "type": "function"
    },
    {
      "inputs": [
        {
          "internalType": "uint256",
          "name": "id",
          "type": "uint256"
        }
      ],
      "name": "tokensLeft",
      "outputs": [
        {
          "internalType": "uint256",
          "name": "",
          "type": "uint256"
        }
      ],
      "stateMutability": "view",
      "type": "function"
    },
    {
      "inputs": [
        {
          "internalType": "address",
          "name": "newOwner",
          "type": "address"
        }
      ],
      "name": "transferOwnership",
      "outputs": [],
      "stateMutability": "nonpayable",
      "type": "function"
    }
  ],
  "bytecode": "0x60806040523480156200001157600080fd5b5060405162002d6a38038062002d6a8339810160408190526200003491620000b5565b6200003f3362000065565b600280546001600160a01b0319166001600160a01b0392909216919091179055620000e5565b600080546001600160a01b038381166001600160a01b0319831681178455604051919092169283917f8be0079c531659141344cd1fd0a4f28419497f9722a3daafe3b4186f6b6457e09190a35050565b600060208284031215620000c7578081fd5b81516001600160a01b0381168114620000de578182fd5b9392505050565b612c7580620000f56000396000f3fe60806040523480156200001157600080fd5b50600436106200012d5760003560e01c80638da5cb5b11620000af578063bb430fd3116200007a578063bb430fd314620002cb578063bb47214414620002e2578063f2fde38b14620002f9578063fa37aa561462000310578063faa3b379146200032757600080fd5b80638da5cb5b146200025d5780639448bddb146200026f5780639d75cdf41462000286578063b060becd146200029d57600080fd5b80635e7446d711620000fc5780635e7446d714620001bb5780635e93d7a514620001f05780635fe287b914620002165780636d3123eb146200022d578063715018a6146200025357600080fd5b80631558e2ab1462000132578063248441fa146200014b57806332665ffb146200016d5780634d6861a61462000193575b600080fd5b6200014962000143366004620018bc565b6200033e565b005b620001556200036a565b60405162000164919062001bd0565b60405180910390f35b620001846200017e3660046200198f565b6200056e565b60405162000164919062001cdb565b620001aa620001a43660046200198f565b62000695565b604051901515815260200162000164565b620001e1620001cc3660046200198f565b60009081526003602052604090206005015490565b60405190815260200162000164565b620001e1620002013660046200198f565b60009081526003602052604090206002015490565b620001496200022736600462001a54565b620006c2565b6002546001600160a01b03165b6040516001600160a01b03909116815260200162000164565b6200014962000a5b565b6000546001600160a01b03166200023a565b6200023a620002803660046200198f565b62000a73565b620001e162000297366004620018d9565b62000ae3565b620001e1620002ae3660046200198f565b600090815260046020908152604080832033845290915290205490565b6200023a620002dc366004620019d6565b62000cba565b62000149620002f33660046200198f565b6200108a565b620001496200030a366004620018bc565b620010e0565b620001e162000321366004620019a8565b6200115f565b62000149620003383660046200198f565b6200123e565b620003486200128d565b600280546001600160a01b0319166001600160a01b0392909216919091179055565b606060006200037860015490565b905060008167ffffffffffffffff811115620003a457634e487b7160e01b600052604160045260246000fd5b604051908082528060200260200182016040528015620003e157816020015b620003cd620016c4565b815260200190600190039081620003c35790505b50905060015b620003f483600162001cf0565b811015620005675760008181526003602081815260409283902083516101208101855281546001600160a01b039081168252600183015481169382019390935260028201549481019490945291820154606084015260048201546080840152600582015460a0840152600682015460c084015260078201541660e083015260088101805491929183916101008401916200048e9062001d47565b80601f0160208091040260200160405190810160405280929190818152602001828054620004bc9062001d47565b80156200050d5780601f10620004e1576101008083540402835291602001916200050d565b820191906000526020600020905b815481529060010190602001808311620004ef57829003601f168201915b5050505050815250508360018462000526919062001d2d565b815181106200054557634e487b7160e01b600052603260045260246000fd5b60200260200101819052505080806200055e9062001d84565b915050620003e7565b5092915050565b62000578620016c4565b60008281526003602081815260409283902083516101208101855281546001600160a01b039081168252600183015481169382019390935260028201549481019490945291820154606084015260048201546080840152600582015460a0840152600682015460c084015260078201541660e083015260088101805461010084019190620006069062001d47565b80601f0160208091040260200160405190810160405280929190818152602001828054620006349062001d47565b8015620006855780601f10620006595761010080835404028352916020019162000685565b820191906000526020600020905b8154815290600101906020018083116200066757829003601f168201915b5050505050815250509050919050565b6000818152600360208190526040822060048101549101544291620006ba9162001cf0565b101592915050565b6002546040516321ca2a8960e11b81523360048201526001600160a01b039091169063439455129060240160206040518083038186803b1580156200070657600080fd5b505afa1580156200071b573d6000803e3d6000fd5b505050506040513d601f19601f820116820180604052508101906200074191906200196d565b620007935760405162461bcd60e51b815260206004820152601f60248201527f4163636573732064656e6965642c206e6f74204b59432076657269666965640060448201526064015b60405180910390fd5b826200079f8162000695565b620007be5760405162461bcd60e51b81526004016200078a9062001cb1565b60006200082f8362000828620007d588336200115f565b6040517f19457468657265756d205369676e6564204d6573736167653a0a3332000000006020820152603c8101829052600090605c01604051602081830303815290604052805190602001209050919050565b90620012e9565b90506001600160a01b0381163314620008a45760405162461bcd60e51b815260206004820152603060248201527f5a79667479546f6b656e466163746f72793a20496e636f72726563742041677260448201526f65656d656e74205369676e617475726560801b60648201526084016200078a565b600085815260036020526040902060050154841115620009005760405162461bcd60e51b8152602060048201526016602482015275139bdd08195b9bdd59da081d1bdad95b9cc81b19599d60521b60448201526064016200078a565b6000858152600360205260408120600281015490919062000922908762001311565b60018301546040516323b872dd60e01b8152336004820152306024820152604481018390529192506001600160a01b03169081906323b872dd90606401602060405180830381600087803b1580156200097a57600080fd5b505af11580156200098f573d6000803e3d6000fd5b505050506040513d601f19601f82011682018060405250810190620009b591906200196d565b50600088815260046020908152604080832033845290915290205462000a045760008881526005602090815260408220805460018101825590835291200180546001600160a01b031916331790555b60008881526004602090815260408083203384529091528120805489929062000a2f90849062001cf0565b925050819055508683600501600082825462000a4c919062001d2d565b90915550505050505050505050565b62000a656200128d565b62000a71600062001326565b565b6000818152600360205260408120600701546001600160a01b03168062000add5760405162461bcd60e51b815260206004820152601a60248201527f455243323020636f6e7472616374206e6f74206372656174656400000000000060448201526064016200078a565b92915050565b600062000aef6200128d565b6001600160a01b03871662000b475760405162461bcd60e51b815260206004820152601f60248201527f53656c6c65722061646472657373206d757374206e6f74206265206e756c6c0060448201526064016200078a565b62000b56600180546001019055565b600062000b6260015490565b9050604051806101200160405280896001600160a01b03168152602001886001600160a01b0316815260200186815260200142815260200185815260200187815260200187815260200160006001600160a01b03168152602001848152506003600083815260200190815260200160002060008201518160000160006101000a8154816001600160a01b0302191690836001600160a01b0316021790555060208201518160010160006101000a8154816001600160a01b0302191690836001600160a01b0316021790555060408201518160020155606082015181600301556080820151816004015560a0820151816005015560c0820151816006015560e08201518160070160006101000a8154816001600160a01b0302191690836001600160a01b0316021790555061010082015181600801908051906020019062000cab9291906200172b565b50919998505050505050505050565b6002546040516321ca2a8960e11b81523360048201526000916001600160a01b03169063439455129060240160206040518083038186803b15801562000cff57600080fd5b505afa15801562000d14573d6000803e3d6000fd5b505050506040513d601f19601f8201168201806040525081019062000d3a91906200196d565b62000d885760405162461bcd60e51b815260206004820152601f60248201527f4163636573732064656e6965642c206e6f74204b59432076657269666965640060448201526064016200078a565b8562000d948162000695565b62000db35760405162461bcd60e51b81526004016200078a9062001cb1565b600087815260036020526040902060058101541562000e155760405162461bcd60e51b815260206004820152601860248201527f4e6f7420616c6c20746f6b656e7320707572636861736564000000000000000060448201526064016200078a565b6001810154600282015460068301546001600160a01b039092169160009162000e3f919062001311565b835460405163a9059cbb60e01b81526001600160a01b0391821660048201526024810183905291925083169063a9059cbb90604401602060405180830381600087803b15801562000e8f57600080fd5b505af115801562000ea4573d6000803e3d6000fd5b505050506040513d601f19601f8201168201806040525081019062000eca91906200196d565b50600087878b8b876006015460405162000ee490620017ba565b62000ef495949392919062001c35565b604051809103906000f08015801562000f11573d6000803e3d6000fd5b5060008c81526005602090815260408083208054825181850281018501909352808352949550929390929183018282801562000f7757602002820191906000526020600020905b81546001600160a01b0316815260019091019060200180831162000f58575b50505060008f81526004602052604081209394509150505b82518110156200105657600083828151811062000fbc57634e487b7160e01b600052603260045260246000fd5b6020908102919091018101516001600160a01b0380821660008181529387905260409384902054935163785d04f560e01b81526004810194909452602484015290925086169063785d04f590604401600060405180830381600087803b1580156200102657600080fd5b505af11580156200103b573d6000803e3d6000fd5b505050505080806200104d9062001d84565b91505062000f8f565b50505060079390930180546001600160a01b0319166001600160a01b03909416939093179092555091979650505050505050565b80620010968162000695565b15620010dc5760405162461bcd60e51b81526020600482015260146024820152732bb4b73237bb9034b99039ba34b6361037b832b760611b60448201526064016200078a565b5050565b620010ea6200128d565b6001600160a01b038116620011515760405162461bcd60e51b815260206004820152602660248201527f4f776e61626c653a206e6577206f776e657220697320746865207a65726f206160448201526564647265737360d01b60648201526084016200078a565b6200115c8162001326565b50565b60008281526003602052604081206008018054829190620011809062001d47565b80601f0160208091040260200160405190810160405280929190818152602001828054620011ae9062001d47565b8015620011ff5780601f10620011d357610100808354040283529160200191620011ff565b820191906000526020600020905b815481529060010190602001808311620011e157829003601f168201915b50505050509050808385306040516020016200121f949392919062001c73565b6040516020818303038152906040528051906020012091505092915050565b806200124a8162000695565b620012695760405162461bcd60e51b81526004016200078a9062001cb1565b620012736200128d565b600062001280836200056e565b6000608090910152505050565b6000546001600160a01b0316331462000a715760405162461bcd60e51b815260206004820181905260248201527f4f776e61626c653a2063616c6c6572206973206e6f7420746865206f776e657260448201526064016200078a565b6000806000620012fa858562001376565b915091506200130981620013c0565b509392505050565b60006200131f828462001d0b565b9392505050565b600080546001600160a01b038381166001600160a01b0319831681178455604051919092169283917f8be0079c531659141344cd1fd0a4f28419497f9722a3daafe3b4186f6b6457e09190a35050565b600080825160411415620013b15760208301516040840151606085015160001a620013a487828585620015cf565b94509450505050620013b9565b506000905060025b9250929050565b6000816004811115620013e357634e487b7160e01b600052602160045260246000fd5b1415620013ed5750565b60018160048111156200141057634e487b7160e01b600052602160045260246000fd5b1415620014605760405162461bcd60e51b815260206004820152601860248201527f45434453413a20696e76616c6964207369676e6174757265000000000000000060448201526064016200078a565b60028160048111156200148357634e487b7160e01b600052602160045260246000fd5b1415620014d35760405162461bcd60e51b815260206004820152601f60248201527f45434453413a20696e76616c6964207369676e6174757265206c656e6774680060448201526064016200078a565b6003816004811115620014f657634e487b7160e01b600052602160045260246000fd5b1415620015515760405162461bcd60e51b815260206004820152602260248201527f45434453413a20696e76616c6964207369676e6174757265202773272076616c604482015261756560f01b60648201526084016200078a565b60048160048111156200157457634e487b7160e01b600052602160045260246000fd5b14156200115c5760405162461bcd60e51b815260206004820152602260248201527f45434453413a20696e76616c6964207369676e6174757265202776272076616c604482015261756560f01b60648201526084016200078a565b6000807f7fffffffffffffffffffffffffffffff5d576e7357a4501ddfe92f46681b20a0831115620016085750600090506003620016bb565b8460ff16601b141580156200162157508460ff16601c14155b15620016345750600090506004620016bb565b6040805160008082526020820180845289905260ff881692820192909252606081018690526080810185905260019060a0016020604051602081039080840390855afa15801562001689573d6000803e3d6000fd5b5050604051601f1901519150506001600160a01b038116620016b457600060019250925050620016bb565b9150600090505b94509492505050565b60405180610120016040528060006001600160a01b0316815260200160006001600160a01b03168152602001600081526020016000815260200160008152602001600081526020016000815260200160006001600160a01b03168152602001606081525090565b828054620017399062001d47565b90600052602060002090601f0160209004810192826200175d5760008555620017a8565b82601f106200177857805160ff1916838001178555620017a8565b82800160010185558215620017a8579182015b82811115620017a85782518255916020019190600101906200178b565b50620017b6929150620017c8565b5090565b610e718062001dcf83390190565b5b80821115620017b65760008155600101620017c9565b600067ffffffffffffffff80841115620017fd57620017fd62001db8565b604051601f8501601f19908116603f0116810190828211818310171562001828576200182862001db8565b816040528093508581528686860111156200184257600080fd5b858560208301376000602087830101525050509392505050565b80356001600160a01b03811681146200187457600080fd5b919050565b60008083601f8401126200188b578182fd5b50813567ffffffffffffffff811115620018a3578182fd5b602083019150836020828501011115620013b957600080fd5b600060208284031215620018ce578081fd5b6200131f826200185c565b60008060008060008060c08789031215620018f2578182fd5b620018fd876200185c565b95506200190d602088016200185c565b945060408701359350606087013592506080870135915060a087013567ffffffffffffffff8111156200193e578182fd5b8701601f810189136200194f578182fd5b6200196089823560208401620017df565b9150509295509295509295565b6000602082840312156200197f578081fd5b815180151581146200131f578182fd5b600060208284031215620019a1578081fd5b5035919050565b60008060408385031215620019bb578182fd5b82359150620019cd602084016200185c565b90509250929050565b600080600080600060608688031215620019ee578081fd5b85359450602086013567ffffffffffffffff8082111562001a0d578283fd5b62001a1b89838a0162001879565b9096509450604088013591508082111562001a34578283fd5b5062001a438882890162001879565b969995985093965092949392505050565b60008060006060848603121562001a69578283fd5b8335925060208401359150604084013567ffffffffffffffff81111562001a8e578182fd5b8401601f8101861362001a9f578182fd5b62001ab086823560208401620017df565b9150509250925092565b81835281816020850137506000828201602090810191909152601f909101601f19169091010190565b60008151808452815b8181101562001b0a5760208185018101518683018201520162001aec565b8181111562001b1c5782602083870101525b50601f01601f19169290920160200192915050565b600061012060018060a01b038351168452602083015162001b5d60208601826001600160a01b03169052565b5060408301516040850152606083015160608501526080830151608085015260a083015160a085015260c083015160c085015260e083015162001bab60e08601826001600160a01b03169052565b5061010080840151828287015262001bc68387018262001ae3565b9695505050505050565b6000602080830181845280855180835260408601915060408160051b8701019250838701855b8281101562001c2857603f1988860301845262001c1585835162001b31565b9450928501929085019060010162001bf6565b5092979650505050505050565b60608152600062001c4b60608301878962001aba565b828103602084015262001c6081868862001aba565b9150508260408301529695505050505050565b60808152600062001c88608083018762001ae3565b6001600160a01b0395861660208401526040830194909452509216606090920191909152919050565b60208082526010908201526f15da5b991bddc81a5cc818db1bdcd95960821b604082015260600190565b6020815260006200131f602083018462001b31565b6000821982111562001d065762001d0662001da2565b500190565b600081600019048311821515161562001d285762001d2862001da2565b500290565b60008282101562001d425762001d4262001da2565b500390565b600181811c9082168062001d5c57607f821691505b6020821081141562001d7e57634e487b7160e01b600052602260045260246000fd5b50919050565b600060001982141562001d9b5762001d9b62001da2565b5060010190565b634e487b7160e01b600052601160045260246000fd5b634e487b7160e01b600052604160045260246000fdfe60806040523480156200001157600080fd5b5060405162000e7138038062000e71833981016040819052620000349162000238565b8251839083906200004d906003906020850190620000df565b50805162000063906004906020840190620000df565b505050620000806200007a6200008960201b60201c565b6200008d565b505050620002fb565b3390565b600580546001600160a01b038381166001600160a01b0319831681179093556040519116919082907f8be0079c531659141344cd1fd0a4f28419497f9722a3daafe3b4186f6b6457e090600090a35050565b828054620000ed90620002a8565b90600052602060002090601f0160209004810192826200011157600085556200015c565b82601f106200012c57805160ff19168380011785556200015c565b828001600101855582156200015c579182015b828111156200015c5782518255916020019190600101906200013f565b506200016a9291506200016e565b5090565b5b808211156200016a57600081556001016200016f565b600082601f83011262000196578081fd5b81516001600160401b0380821115620001b357620001b3620002e5565b604051601f8301601f19908116603f01168101908282118183101715620001de57620001de620002e5565b81604052838152602092508683858801011115620001fa578485fd5b8491505b838210156200021d5785820183015181830184015290820190620001fe565b838211156200022e57848385830101525b9695505050505050565b6000806000606084860312156200024d578283fd5b83516001600160401b038082111562000264578485fd5b620002728783880162000185565b9450602086015191508082111562000288578384fd5b50620002978682870162000185565b925050604084015190509250925092565b600181811c90821680620002bd57607f821691505b60208210811415620002df57634e487b7160e01b600052602260045260246000fd5b50919050565b634e487b7160e01b600052604160045260246000fd5b610b66806200030b6000396000f3fe608060405234801561001057600080fd5b50600436106100f55760003560e01c8063715018a611610097578063a457c2d711610066578063a457c2d7146101eb578063a9059cbb146101fe578063dd62ed3e14610211578063f2fde38b1461022457600080fd5b8063715018a6146101ab578063785d04f5146101b55780638da5cb5b146101c857806395d89b41146101e357600080fd5b806323b872dd116100d357806323b872dd1461014d578063313ce56714610160578063395093511461016f57806370a082311461018257600080fd5b806306fdde03146100fa578063095ea7b31461011857806318160ddd1461013b575b600080fd5b610102610237565b60405161010f9190610a7e565b60405180910390f35b61012b610126366004610a33565b6102c9565b604051901515815260200161010f565b6002545b60405190815260200161010f565b61012b61015b3660046109f8565b6102e1565b6040516012815260200161010f565b61012b61017d366004610a33565b610305565b61013f6101903660046109a5565b6001600160a01b031660009081526020819052604090205490565b6101b3610327565b005b6101b36101c3366004610a5c565b61033b565b6005546040516001600160a01b03909116815260200161010f565b610102610351565b61012b6101f9366004610a33565b610360565b61012b61020c366004610a33565b6103e0565b61013f61021f3660046109c6565b6103ee565b6101b36102323660046109a5565b610419565b60606003805461024690610af5565b80601f016020809104026020016040519081016040528092919081815260200182805461027290610af5565b80156102bf5780601f10610294576101008083540402835291602001916102bf565b820191906000526020600020905b8154815290600101906020018083116102a257829003601f168201915b5050505050905090565b6000336102d7818585610492565b5060019392505050565b6000336102ef8582856105b6565b6102fa858585610630565b506001949350505050565b6000336102d781858561031883836103ee565b6103229190610ad1565b610492565b61032f6107fe565b6103396000610858565b565b6103436107fe565b61034d81836108aa565b5050565b60606004805461024690610af5565b6000338161036e82866103ee565b9050838110156103d35760405162461bcd60e51b815260206004820152602560248201527f45524332303a2064656372656173656420616c6c6f77616e63652062656c6f77604482015264207a65726f60d81b60648201526084015b60405180910390fd5b6102fa8286868403610492565b6000336102d7818585610630565b6001600160a01b03918216600090815260016020908152604080832093909416825291909152205490565b6104216107fe565b6001600160a01b0381166104865760405162461bcd60e51b815260206004820152602660248201527f4f776e61626c653a206e6577206f776e657220697320746865207a65726f206160448201526564647265737360d01b60648201526084016103ca565b61048f81610858565b50565b6001600160a01b0383166104f45760405162461bcd60e51b8152602060048201526024808201527f45524332303a20617070726f76652066726f6d20746865207a65726f206164646044820152637265737360e01b60648201526084016103ca565b6001600160a01b0382166105555760405162461bcd60e51b815260206004820152602260248201527f45524332303a20617070726f766520746f20746865207a65726f206164647265604482015261737360f01b60648201526084016103ca565b6001600160a01b0383811660008181526001602090815260408083209487168084529482529182902085905590518481527f8c5be1e5ebec7d5bd14f71427d1e84f3dd0314c0f7b2291e5b200ac8c7c3b925910160405180910390a3505050565b60006105c284846103ee565b9050600019811461062a578181101561061d5760405162461bcd60e51b815260206004820152601d60248201527f45524332303a20696e73756666696369656e7420616c6c6f77616e636500000060448201526064016103ca565b61062a8484848403610492565b50505050565b6001600160a01b0383166106945760405162461bcd60e51b815260206004820152602560248201527f45524332303a207472616e736665722066726f6d20746865207a65726f206164604482015264647265737360d81b60648201526084016103ca565b6001600160a01b0382166106f65760405162461bcd60e51b815260206004820152602360248201527f45524332303a207472616e7366657220746f20746865207a65726f206164647260448201526265737360e81b60648201526084016103ca565b6001600160a01b0383166000908152602081905260409020548181101561076e5760405162461bcd60e51b815260206004820152602660248201527f45524332303a207472616e7366657220616d6f756e7420657863656564732062604482015265616c616e636560d01b60648201526084016103ca565b6001600160a01b038085166000908152602081905260408082208585039055918516815290812080548492906107a5908490610ad1565b92505081905550826001600160a01b0316846001600160a01b03167fddf252ad1be2c89b69c2b068fc378daa952ba7f163c4a11628f55a4df523b3ef846040516107f191815260200190565b60405180910390a361062a565b6005546001600160a01b031633146103395760405162461bcd60e51b815260206004820181905260248201527f4f776e61626c653a2063616c6c6572206973206e6f7420746865206f776e657260448201526064016103ca565b600580546001600160a01b038381166001600160a01b0319831681179093556040519116919082907f8be0079c531659141344cd1fd0a4f28419497f9722a3daafe3b4186f6b6457e090600090a35050565b6001600160a01b0382166109005760405162461bcd60e51b815260206004820152601f60248201527f45524332303a206d696e7420746f20746865207a65726f20616464726573730060448201526064016103ca565b80600260008282546109129190610ad1565b90915550506001600160a01b0382166000908152602081905260408120805483929061093f908490610ad1565b90915550506040518181526001600160a01b038316906000907fddf252ad1be2c89b69c2b068fc378daa952ba7f163c4a11628f55a4df523b3ef9060200160405180910390a35050565b80356001600160a01b03811681146109a057600080fd5b919050565b6000602082840312156109b6578081fd5b6109bf82610989565b9392505050565b600080604083850312156109d8578081fd5b6109e183610989565b91506109ef60208401610989565b90509250929050565b600080600060608486031215610a0c578081fd5b610a1584610989565b9250610a2360208501610989565b9150604084013590509250925092565b60008060408385031215610a45578182fd5b610a4e83610989565b946020939093013593505050565b60008060408385031215610a6e578182fd5b823591506109ef60208401610989565b6000602080835283518082850152825b81811015610aaa57858101830151858201604001528201610a8e565b81811115610abb5783604083870101525b50601f01601f1916929092016040019392505050565b60008219821115610af057634e487b7160e01b81526011600452602481fd5b500190565b600181811c90821680610b0957607f821691505b60208210811415610b2a57634e487b7160e01b600052602260045260246000fd5b5091905056fea2646970667358221220862264d82eb179bb8fbe687f50b522e760af6e1c03bcaea8ba1e656e87d2019b64736f6c63430008040033a264697066735822122021f2733aaf53167c12fd6d60e7771981830b89fd44637fcf713260b5a4e6a27164736f6c63430008040033",
  "linkReferences": {},
  "deployedLinkReferences": {}
}