{
  "_format": "hh-sol-artifact-1",
  "contractName": "TokenFactory",
  "sourceName": "contracts/TokenEscrow.sol",
  "abi": [
    {
      "inputs": [
        {
          "internalType": "address",
          "name": "kycContract",
          "type": "address"
        }
      ],
      "stateMutability": "nonpayable",
      "type": "constructor"
    },
    {
      "anonymous": false,
      "inputs": [
        {
          "indexed": true,
          "internalType": "address",
          "name": "previousOwner",
          "type": "address"
        },
        {
          "indexed": true,
          "internalType": "address",
          "name": "newOwner",
          "type": "address"
        }
      ],
      "name": "OwnershipTransferred",
      "type": "event"
    },
    {
      "inputs": [],
      "name": "allProperties",
      "outputs": [
        {
          "components": [
            {
              "internalType": "address",
              "name": "seller",
              "type": "address"
            },
            {
              "internalType": "address",
              "name": "asset",
              "type": "address"
            },
            {
              "internalType": "uint256",
              "name": "pricePer",
              "type": "uint256"
            },
            {
              "internalType": "uint256",
              "name": "created",
              "type": "uint256"
            },
            {
              "internalType": "uint256",
              "name": "time",
              "type": "uint256"
            },
            {
              "internalType": "uint256",
              "name": "tokensLeft",
              "type": "uint256"
            },
            {
              "internalType": "uint256",
              "name": "totalAssets",
              "type": "uint256"
            },
            {
              "internalType": "address",
              "name": "createdToken",
              "type": "address"
            }
          ],
          "internalType": "struct TokenFactory.ListedProperty[]",
          "name": "",
          "type": "tuple[]"
        }
      ],
      "stateMutability": "view",
      "type": "function"
    },
    {
      "inputs": [
        {
          "internalType": "uint256",
          "name": "id",
          "type": "uint256"
        },
        {
          "internalType": "uint256",
          "name": "numberOfTokens",
          "type": "uint256"
        }
      ],
      "name": "buyToken",
      "outputs": [],
      "stateMutability": "nonpayable",
      "type": "function"
    },
    {
      "inputs": [
        {
          "internalType": "uint256",
          "name": "id",
          "type": "uint256"
        }
      ],
      "name": "cancelNow",
      "outputs": [],
      "stateMutability": "nonpayable",
      "type": "function"
    },
    {
      "inputs": [
        {
          "internalType": "uint256",
          "name": "id",
          "type": "uint256"
        }
      ],
      "name": "contractOf",
      "outputs": [
        {
          "internalType": "address",
          "name": "",
          "type": "address"
        }
      ],
      "stateMutability": "view",
      "type": "function"
    },
    {
      "inputs": [
        {
          "internalType": "uint256",
          "name": "id",
          "type": "uint256"
        },
        {
          "internalType": "string",
          "name": "symbol",
          "type": "string"
        },
        {
          "internalType": "string",
          "name": "name",
          "type": "string"
        }
      ],
      "name": "execute",
      "outputs": [
        {
          "internalType": "address",
          "name": "",
          "type": "address"
        }
      ],
      "stateMutability": "nonpayable",
      "type": "function"
    },
    {
      "inputs": [
        {
          "internalType": "uint256",
          "name": "id",
          "type": "uint256"
        }
      ],
      "name": "getProperty",
      "outputs": [
        {
          "components": [
            {
              "internalType": "address",
              "name": "seller",
              "type": "address"
            },
            {
              "internalType": "address",
              "name": "asset",
              "type": "address"
            },
            {
              "internalType": "uint256",
              "name": "pricePer",
              "type": "uint256"
            },
            {
              "internalType": "uint256",
              "name": "created",
              "type": "uint256"
            },
            {
              "internalType": "uint256",
              "name": "time",
              "type": "uint256"
            },
            {
              "internalType": "uint256",
              "name": "tokensLeft",
              "type": "uint256"
            },
            {
              "internalType": "uint256",
              "name": "totalAssets",
              "type": "uint256"
            },
            {
              "internalType": "address",
              "name": "createdToken",
              "type": "address"
            }
          ],
          "internalType": "struct TokenFactory.ListedProperty",
          "name": "",
          "type": "tuple"
        }
      ],
      "stateMutability": "view",
      "type": "function"
    },
    {
      "inputs": [],
      "name": "kycContract",
      "outputs": [
        {
          "internalType": "address",
          "name": "",
          "type": "address"
        }
      ],
      "stateMutability": "view",
      "type": "function"
    },
    {
      "inputs": [
        {
          "internalType": "address",
          "name": "seller",
          "type": "address"
        },
        {
          "internalType": "address",
          "name": "asset",
          "type": "address"
        },
        {
          "internalType": "uint256",
          "name": "numTokens",
          "type": "uint256"
        },
        {
          "internalType": "uint256",
          "name": "pricePer",
          "type": "uint256"
        },
        {
          "internalType": "uint256",
          "name": "time",
          "type": "uint256"
        }
      ],
      "name": "listProperty",
      "outputs": [
        {
          "internalType": "uint256",
          "name": "",
          "type": "uint256"
        }
      ],
      "stateMutability": "nonpayable",
      "type": "function"
    },
    {
      "inputs": [
        {
          "internalType": "uint256",
          "name": "id",
          "type": "uint256"
        }
      ],
      "name": "owedTokens",
      "outputs": [
        {
          "internalType": "uint256",
          "name": "",
          "type": "uint256"
        }
      ],
      "stateMutability": "view",
      "type": "function"
    },
    {
      "inputs": [],
      "name": "owner",
      "outputs": [
        {
          "internalType": "address",
          "name": "",
          "type": "address"
        }
      ],
      "stateMutability": "view",
      "type": "function"
    },
    {
      "inputs": [
        {
          "internalType": "uint256",
          "name": "id",
          "type": "uint256"
        }
      ],
      "name": "pricePer",
      "outputs": [
        {
          "internalType": "uint256",
          "name": "",
          "type": "uint256"
        }
      ],
      "stateMutability": "view",
      "type": "function"
    },
    {
      "inputs": [],
      "name": "renounceOwnership",
      "outputs": [],
      "stateMutability": "nonpayable",
      "type": "function"
    },
    {
      "inputs": [
        {
          "internalType": "uint256",
          "name": "id",
          "type": "uint256"
        }
      ],
      "name": "revertBuyer",
      "outputs": [],
      "stateMutability": "nonpayable",
      "type": "function"
    },
    {
      "inputs": [
        {
          "internalType": "address",
          "name": "newAddress",
          "type": "address"
        }
      ],
      "name": "setKYCcontract",
      "outputs": [],
      "stateMutability": "nonpayable",
      "type": "function"
    },
    {
      "inputs": [
        {
          "internalType": "uint256",
          "name": "id",
          "type": "uint256"
        }
      ],
      "name": "tokensLeft",
      "outputs": [
        {
          "internalType": "uint256",
          "name": "",
          "type": "uint256"
        }
      ],
      "stateMutability": "view",
      "type": "function"
    },
    {
      "inputs": [
        {
          "internalType": "address",
          "name": "newOwner",
          "type": "address"
        }
      ],
      "name": "transferOwnership",
      "outputs": [],
      "stateMutability": "nonpayable",
      "type": "function"
    }
  ],
  "bytecode": "0x608060405234801561001057600080fd5b5060405161241e38038061241e83398101604081905261002f916100ad565b6100383361005d565b600280546001600160a01b0319166001600160a01b03929092169190911790556100db565b600080546001600160a01b038381166001600160a01b0319831681178455604051919092169283917f8be0079c531659141344cd1fd0a4f28419497f9722a3daafe3b4186f6b6457e09190a35050565b6000602082840312156100be578081fd5b81516001600160a01b03811681146100d4578182fd5b9392505050565b612334806100ea6000396000f3fe60806040523480156200001157600080fd5b5060043610620001155760003560e01c80638da5cb5b11620000a3578063bb430fd3116200006e578063bb430fd3146200028b578063bb47214414620002a2578063f2fde38b14620002b9578063faa3b37914620002d057600080fd5b80638da5cb5b146200021d5780639448bddb146200022f578063aa3245fc1462000246578063b060becd146200025d57600080fd5b80635e7446d711620000e45780635e7446d714620001925780635e93d7a514620001c75780636d3123eb14620001ed578063715018a6146200021357600080fd5b8063057466ea146200011a5780631558e2ab1462000133578063248441fa146200014a57806332665ffb146200016c575b600080fd5b620001316200012b3660046200123c565b620002e7565b005b620001316200014436600462001115565b620005b7565b62000154620005e3565b604051620001639190620012e0565b60405180910390f35b620001836200017d366004620011a5565b62000734565b604051620001639190620013f1565b620001b8620001a3366004620011a5565b60009081526003602052604090206005015490565b60405190815260200162000163565b620001b8620001d8366004620011a5565b60009081526003602052604090206002015490565b6002546001600160a01b03165b6040516001600160a01b03909116815260200162000163565b62000131620007b9565b6000546001600160a01b0316620001fa565b620001fa62000240366004620011a5565b620007d1565b620001b86200025736600462001132565b62000841565b620001b86200026e366004620011a5565b600090815260046020908152604080832033845290915290205490565b620001fa6200029c366004620011be565b62000981565b62000131620002b3366004620011a5565b62000d70565b62000131620002ca36600462001115565b62000de2565b62000131620002e1366004620011a5565b62000e61565b6002546040516321ca2a8960e11b81523360048201526001600160a01b039091169063439455129060240160206040518083038186803b1580156200032b57600080fd5b505afa15801562000340573d6000803e3d6000fd5b505050506040513d601f19601f8201168201806040525081019062000366919062001183565b620003b85760405162461bcd60e51b815260206004820152601f60248201527f4163636573732064656e6965642c206e6f74204b59432076657269666965640060448201526064015b60405180910390fd5b6000828152600360208190526040909120600481015491015483914291620003e1919062001402565b1015620004025760405162461bcd60e51b8152600401620003af90620013c7565b6000838152600360205260409020600501548211156200045e5760405162461bcd60e51b8152602060048201526016602482015275139bdd08195b9bdd59da081d1bdad95b9cc81b19599d60521b6044820152606401620003af565b6000838152600360205260408120600281015490919062000480908562000ecf565b60018301546040516323b872dd60e01b8152336004820152306024820152604481018390529192506001600160a01b03169081906323b872dd90606401602060405180830381600087803b158015620004d857600080fd5b505af1158015620004ed573d6000803e3d6000fd5b505050506040513d601f19601f8201168201806040525081019062000513919062001183565b506000868152600460209081526040808320338452909152902054620005625760008681526005602090815260408220805460018101825590835291200180546001600160a01b031916331790555b6000868152600460209081526040808320338452909152812080548792906200058d90849062001402565b9250508190555084836005016000828254620005aa91906200143f565b9091555050505050505050565b620005c162000ee4565b600280546001600160a01b0319166001600160a01b0392909216919091179055565b60606000620005f160015490565b905060008167ffffffffffffffff8111156200061d57634e487b7160e01b600052604160045260246000fd5b6040519080825280602002602001820160405280156200065a57816020015b6200064662001040565b8152602001906001900390816200063c5790505b5090506200068260405180604001604052806002815260200161686960f01b81525062000f40565b60015b6200069283600162001402565b8110156200072d57620006bf60405180604001604052806002815260200161686960f01b81525062000f40565b6000620006cc8262000734565b9050620006dd8160a0015162000f87565b8083620006ec6001856200143f565b815181106200070b57634e487b7160e01b600052603260045260246000fd5b6020026020010181905250508080620007249062001459565b91505062000685565b5092915050565b6200073e62001040565b5060009081526003602081815260409283902083516101008101855281546001600160a01b039081168252600183015481169382019390935260028201549481019490945291820154606084015260048201546080840152600582015460a0840152600682015460c08401526007909101541660e082015290565b620007c362000ee4565b620007cf600062000fcf565b565b6000818152600360205260408120600701546001600160a01b0316806200083b5760405162461bcd60e51b815260206004820152601a60248201527f455243323020636f6e7472616374206e6f7420637265617465640000000000006044820152606401620003af565b92915050565b60006200084d62000ee4565b6001600160a01b038616620008a55760405162461bcd60e51b815260206004820152601f60248201527f53656c6c65722061646472657373206d757374206e6f74206265206e756c6c006044820152606401620003af565b620008b4600180546001019055565b6000620008c060015490565b60408051610100810182526001600160a01b03998a1681529789166020808a019182528983019788524260608b0190815260808b0197885260a08b018a815260c08c019a8b52600060e08d018181528782526003948590529590209b518c54908e166001600160a01b0319918216178d55935160018d018054918f16918616919091179055985160028c015551908a015594516004890155945160058801559451600687015550509051600790930180549390941692169190911790915590565b6002546040516321ca2a8960e11b81523360048201526000916001600160a01b03169063439455129060240160206040518083038186803b158015620009c657600080fd5b505afa158015620009db573d6000803e3d6000fd5b505050506040513d601f19601f8201168201806040525081019062000a01919062001183565b62000a4f5760405162461bcd60e51b815260206004820152601f60248201527f4163636573732064656e6965642c206e6f74204b5943207665726966696564006044820152606401620003af565b600086815260036020819052604090912060048101549101548791429162000a78919062001402565b101562000a995760405162461bcd60e51b8152600401620003af90620013c7565b600087815260036020526040902060058101541562000afb5760405162461bcd60e51b815260206004820152601860248201527f4e6f7420616c6c20746f6b656e732070757263686173656400000000000000006044820152606401620003af565b6001810154600282015460068301546001600160a01b039092169160009162000b25919062000ecf565b835460405163a9059cbb60e01b81526001600160a01b0391821660048201526024810183905291925083169063a9059cbb90604401602060405180830381600087803b15801562000b7557600080fd5b505af115801562000b8a573d6000803e3d6000fd5b505050506040513d601f19601f8201168201806040525081019062000bb0919062001183565b50600087878b8b876006015460405162000bca90620010a0565b62000bda95949392919062001333565b604051809103906000f08015801562000bf7573d6000803e3d6000fd5b5060008c81526005602090815260408083208054825181850281018501909352808352949550929390929183018282801562000c5d57602002820191906000526020600020905b81546001600160a01b0316815260019091019060200180831162000c3e575b50505060008f81526004602052604081209394509150505b825181101562000d3c57600083828151811062000ca257634e487b7160e01b600052603260045260246000fd5b6020908102919091018101516001600160a01b0380821660008181529387905260409384902054935163785d04f560e01b81526004810194909452602484015290925086169063785d04f590604401600060405180830381600087803b15801562000d0c57600080fd5b505af115801562000d21573d6000803e3d6000fd5b5050505050808062000d339062001459565b91505062000c75565b50505060079390930180546001600160a01b0319166001600160a01b03909416939093179092555091979650505050505050565b60008181526003602081905260409091206004810154910154829162000d969162001402565b42101562000dde5760405162461bcd60e51b81526020600482015260146024820152732bb4b73237bb9034b99039ba34b6361037b832b760611b6044820152606401620003af565b5050565b62000dec62000ee4565b6001600160a01b03811662000e535760405162461bcd60e51b815260206004820152602660248201527f4f776e61626c653a206e6577206f776e657220697320746865207a65726f206160448201526564647265737360d01b6064820152608401620003af565b62000e5e8162000fcf565b50565b600081815260036020819052604090912060048101549101548291429162000e8a919062001402565b101562000eab5760405162461bcd60e51b8152600401620003af90620013c7565b62000eb562000ee4565b600062000ec28362000734565b6000608090910152505050565b600062000edd82846200141d565b9392505050565b6000546001600160a01b03163314620007cf5760405162461bcd60e51b815260206004820181905260248201527f4f776e61626c653a2063616c6c6572206973206e6f7420746865206f776e65726044820152606401620003af565b62000e5e8160405160240162000f57919062001371565b60408051601f198184030181529190526020810180516001600160e01b031663104c13eb60e21b1790526200101f565b62000e5e8160405160240162000f9f91815260200190565b60408051601f198184030181529190526020810180516001600160e01b031663f82c50f160e01b1790526200101f565b600080546001600160a01b038381166001600160a01b0319831681178455604051919092169283917f8be0079c531659141344cd1fd0a4f28419497f9722a3daafe3b4186f6b6457e09190a35050565b80516a636f6e736f6c652e6c6f67602083016000808483855afa5050505050565b60405180610100016040528060006001600160a01b0316815260200160006001600160a01b03168152602001600081526020016000815260200160008152602001600081526020016000815260200160006001600160a01b031681525090565b610e71806200148e83390190565b80356001600160a01b0381168114620010c657600080fd5b919050565b60008083601f840112620010dd578182fd5b50813567ffffffffffffffff811115620010f5578182fd5b6020830191508360208285010111156200110e57600080fd5b9250929050565b60006020828403121562001127578081fd5b62000edd82620010ae565b600080600080600060a086880312156200114a578081fd5b6200115586620010ae565b94506200116560208701620010ae565b94979496505050506040830135926060810135926080909101359150565b60006020828403121562001195578081fd5b8151801515811462000edd578182fd5b600060208284031215620011b7578081fd5b5035919050565b600080600080600060608688031215620011d6578081fd5b85359450602086013567ffffffffffffffff80821115620011f5578283fd5b6200120389838a01620010cb565b909650945060408801359150808211156200121c578283fd5b506200122b88828901620010cb565b969995985093965092949392505050565b600080604083850312156200124f578182fd5b50508035926020909101359150565b81835281816020850137506000828201602090810191909152601f909101601f19169091010190565b80516001600160a01b03908116835260208083015182169084015260408083015190840152606080830151908401526080808301519084015260a0828101519084015260c0808301519084015260e09182015116910152565b6020808252825182820181905260009190848201906040850190845b8181101562001327576200131283855162001287565b928401926101009290920191600101620012fc565b50909695505050505050565b606081526000620013496060830187896200125e565b82810360208401526200135e8186886200125e565b9150508260408301529695505050505050565b6000602080835283518082850152825b818110156200139f5785810183015185820160400152820162001381565b81811115620013b15783604083870101525b50601f01601f1916929092016040019392505050565b60208082526010908201526f15da5b991bddc81a5cc818db1bdcd95960821b604082015260600190565b61010081016200083b828462001287565b6000821982111562001418576200141862001477565b500190565b60008160001904831182151516156200143a576200143a62001477565b500290565b60008282101562001454576200145462001477565b500390565b600060001982141562001470576200147062001477565b5060010190565b634e487b7160e01b600052601160045260246000fdfe60806040523480156200001157600080fd5b5060405162000e7138038062000e71833981016040819052620000349162000238565b8251839083906200004d906003906020850190620000df565b50805162000063906004906020840190620000df565b505050620000806200007a6200008960201b60201c565b6200008d565b505050620002fb565b3390565b600580546001600160a01b038381166001600160a01b0319831681179093556040519116919082907f8be0079c531659141344cd1fd0a4f28419497f9722a3daafe3b4186f6b6457e090600090a35050565b828054620000ed90620002a8565b90600052602060002090601f0160209004810192826200011157600085556200015c565b82601f106200012c57805160ff19168380011785556200015c565b828001600101855582156200015c579182015b828111156200015c5782518255916020019190600101906200013f565b506200016a9291506200016e565b5090565b5b808211156200016a57600081556001016200016f565b600082601f83011262000196578081fd5b81516001600160401b0380821115620001b357620001b3620002e5565b604051601f8301601f19908116603f01168101908282118183101715620001de57620001de620002e5565b81604052838152602092508683858801011115620001fa578485fd5b8491505b838210156200021d5785820183015181830184015290820190620001fe565b838211156200022e57848385830101525b9695505050505050565b6000806000606084860312156200024d578283fd5b83516001600160401b038082111562000264578485fd5b620002728783880162000185565b9450602086015191508082111562000288578384fd5b50620002978682870162000185565b925050604084015190509250925092565b600181811c90821680620002bd57607f821691505b60208210811415620002df57634e487b7160e01b600052602260045260246000fd5b50919050565b634e487b7160e01b600052604160045260246000fd5b610b66806200030b6000396000f3fe608060405234801561001057600080fd5b50600436106100f55760003560e01c8063715018a611610097578063a457c2d711610066578063a457c2d7146101eb578063a9059cbb146101fe578063dd62ed3e14610211578063f2fde38b1461022457600080fd5b8063715018a6146101ab578063785d04f5146101b55780638da5cb5b146101c857806395d89b41146101e357600080fd5b806323b872dd116100d357806323b872dd1461014d578063313ce56714610160578063395093511461016f57806370a082311461018257600080fd5b806306fdde03146100fa578063095ea7b31461011857806318160ddd1461013b575b600080fd5b610102610237565b60405161010f9190610a7e565b60405180910390f35b61012b610126366004610a33565b6102c9565b604051901515815260200161010f565b6002545b60405190815260200161010f565b61012b61015b3660046109f8565b6102e1565b6040516012815260200161010f565b61012b61017d366004610a33565b610305565b61013f6101903660046109a5565b6001600160a01b031660009081526020819052604090205490565b6101b3610327565b005b6101b36101c3366004610a5c565b61033b565b6005546040516001600160a01b03909116815260200161010f565b610102610351565b61012b6101f9366004610a33565b610360565b61012b61020c366004610a33565b6103e0565b61013f61021f3660046109c6565b6103ee565b6101b36102323660046109a5565b610419565b60606003805461024690610af5565b80601f016020809104026020016040519081016040528092919081815260200182805461027290610af5565b80156102bf5780601f10610294576101008083540402835291602001916102bf565b820191906000526020600020905b8154815290600101906020018083116102a257829003601f168201915b5050505050905090565b6000336102d7818585610492565b5060019392505050565b6000336102ef8582856105b6565b6102fa858585610630565b506001949350505050565b6000336102d781858561031883836103ee565b6103229190610ad1565b610492565b61032f6107fe565b6103396000610858565b565b6103436107fe565b61034d81836108aa565b5050565b60606004805461024690610af5565b6000338161036e82866103ee565b9050838110156103d35760405162461bcd60e51b815260206004820152602560248201527f45524332303a2064656372656173656420616c6c6f77616e63652062656c6f77604482015264207a65726f60d81b60648201526084015b60405180910390fd5b6102fa8286868403610492565b6000336102d7818585610630565b6001600160a01b03918216600090815260016020908152604080832093909416825291909152205490565b6104216107fe565b6001600160a01b0381166104865760405162461bcd60e51b815260206004820152602660248201527f4f776e61626c653a206e6577206f776e657220697320746865207a65726f206160448201526564647265737360d01b60648201526084016103ca565b61048f81610858565b50565b6001600160a01b0383166104f45760405162461bcd60e51b8152602060048201526024808201527f45524332303a20617070726f76652066726f6d20746865207a65726f206164646044820152637265737360e01b60648201526084016103ca565b6001600160a01b0382166105555760405162461bcd60e51b815260206004820152602260248201527f45524332303a20617070726f766520746f20746865207a65726f206164647265604482015261737360f01b60648201526084016103ca565b6001600160a01b0383811660008181526001602090815260408083209487168084529482529182902085905590518481527f8c5be1e5ebec7d5bd14f71427d1e84f3dd0314c0f7b2291e5b200ac8c7c3b925910160405180910390a3505050565b60006105c284846103ee565b9050600019811461062a578181101561061d5760405162461bcd60e51b815260206004820152601d60248201527f45524332303a20696e73756666696369656e7420616c6c6f77616e636500000060448201526064016103ca565b61062a8484848403610492565b50505050565b6001600160a01b0383166106945760405162461bcd60e51b815260206004820152602560248201527f45524332303a207472616e736665722066726f6d20746865207a65726f206164604482015264647265737360d81b60648201526084016103ca565b6001600160a01b0382166106f65760405162461bcd60e51b815260206004820152602360248201527f45524332303a207472616e7366657220746f20746865207a65726f206164647260448201526265737360e81b60648201526084016103ca565b6001600160a01b0383166000908152602081905260409020548181101561076e5760405162461bcd60e51b815260206004820152602660248201527f45524332303a207472616e7366657220616d6f756e7420657863656564732062604482015265616c616e636560d01b60648201526084016103ca565b6001600160a01b038085166000908152602081905260408082208585039055918516815290812080548492906107a5908490610ad1565b92505081905550826001600160a01b0316846001600160a01b03167fddf252ad1be2c89b69c2b068fc378daa952ba7f163c4a11628f55a4df523b3ef846040516107f191815260200190565b60405180910390a361062a565b6005546001600160a01b031633146103395760405162461bcd60e51b815260206004820181905260248201527f4f776e61626c653a2063616c6c6572206973206e6f7420746865206f776e657260448201526064016103ca565b600580546001600160a01b038381166001600160a01b0319831681179093556040519116919082907f8be0079c531659141344cd1fd0a4f28419497f9722a3daafe3b4186f6b6457e090600090a35050565b6001600160a01b0382166109005760405162461bcd60e51b815260206004820152601f60248201527f45524332303a206d696e7420746f20746865207a65726f20616464726573730060448201526064016103ca565b80600260008282546109129190610ad1565b90915550506001600160a01b0382166000908152602081905260408120805483929061093f908490610ad1565b90915550506040518181526001600160a01b038316906000907fddf252ad1be2c89b69c2b068fc378daa952ba7f163c4a11628f55a4df523b3ef9060200160405180910390a35050565b80356001600160a01b03811681146109a057600080fd5b919050565b6000602082840312156109b6578081fd5b6109bf82610989565b9392505050565b600080604083850312156109d8578081fd5b6109e183610989565b91506109ef60208401610989565b90509250929050565b600080600060608486031215610a0c578081fd5b610a1584610989565b9250610a2360208501610989565b9150604084013590509250925092565b60008060408385031215610a45578182fd5b610a4e83610989565b946020939093013593505050565b60008060408385031215610a6e578182fd5b823591506109ef60208401610989565b6000602080835283518082850152825b81811015610aaa57858101830151858201604001528201610a8e565b81811115610abb5783604083870101525b50601f01601f1916929092016040019392505050565b60008219821115610af057634e487b7160e01b81526011600452602481fd5b500190565b600181811c90821680610b0957607f821691505b60208210811415610b2a57634e487b7160e01b600052602260045260246000fd5b5091905056fea26469706673582212208896098e4f43c1fb80f82c78d7d5ed0cfd76e4b2931d1e6667002393163d6d3b64736f6c63430008040033a26469706673582212207f3e9deeb6db3f1652b51fe44456e8881efa1bdb1cd62284802d8b665fa177ae64736f6c63430008040033",
  "linkReferences": {},
  "deployedLinkReferences": {}
}