{
  "_format": "hh-sol-artifact-1",
  "contractName": "TokenFactory",
  "sourceName": "contracts/TokenEscrow.sol",
  "abi": [
    {
      "inputs": [
        {
          "internalType": "address",
          "name": "kycContract",
          "type": "address"
        },
        {
          "internalType": "address",
          "name": "tokenContract",
          "type": "address"
        }
      ],
      "stateMutability": "nonpayable",
      "type": "constructor"
    },
    {
      "anonymous": false,
      "inputs": [
        {
          "indexed": true,
          "internalType": "address",
          "name": "previousOwner",
          "type": "address"
        },
        {
          "indexed": true,
          "internalType": "address",
          "name": "newOwner",
          "type": "address"
        }
      ],
      "name": "OwnershipTransferred",
      "type": "event"
    },
    {
      "inputs": [],
      "name": "allProperties",
      "outputs": [
        {
          "components": [
            {
              "internalType": "address",
              "name": "seller",
              "type": "address"
            },
            {
              "internalType": "address",
              "name": "asset",
              "type": "address"
            },
            {
              "internalType": "uint256",
              "name": "pricePer",
              "type": "uint256"
            },
            {
              "internalType": "uint48",
              "name": "created",
              "type": "uint48"
            },
            {
              "internalType": "uint32",
              "name": "time",
              "type": "uint32"
            },
            {
              "internalType": "uint16",
              "name": "tokensLeft",
              "type": "uint16"
            },
            {
              "internalType": "uint16",
              "name": "totalAssets",
              "type": "uint16"
            },
            {
              "internalType": "string",
              "name": "agreement",
              "type": "string"
            },
            {
              "internalType": "uint256",
              "name": "tokenId",
              "type": "uint256"
            }
          ],
          "internalType": "struct TokenFactory.ListedProperty[]",
          "name": "",
          "type": "tuple[]"
        }
      ],
      "stateMutability": "view",
      "type": "function"
    },
    {
      "inputs": [
        {
          "internalType": "uint256",
          "name": "id",
          "type": "uint256"
        },
        {
          "internalType": "uint16",
          "name": "numberOfTokens",
          "type": "uint16"
        },
        {
          "internalType": "bytes",
          "name": "agreementSignature",
          "type": "bytes"
        }
      ],
      "name": "buyToken",
      "outputs": [],
      "stateMutability": "nonpayable",
      "type": "function"
    },
    {
      "inputs": [
        {
          "internalType": "uint256",
          "name": "escrowId",
          "type": "uint256"
        },
        {
          "internalType": "address",
          "name": "addr",
          "type": "address"
        }
      ],
      "name": "createAgreementHash",
      "outputs": [
        {
          "internalType": "bytes32",
          "name": "",
          "type": "bytes32"
        }
      ],
      "stateMutability": "view",
      "type": "function"
    },
    {
      "inputs": [
        {
          "internalType": "uint256",
          "name": "id",
          "type": "uint256"
        }
      ],
      "name": "execute",
      "outputs": [
        {
          "internalType": "address",
          "name": "",
          "type": "address"
        }
      ],
      "stateMutability": "nonpayable",
      "type": "function"
    },
    {
      "inputs": [
        {
          "internalType": "uint256",
          "name": "id",
          "type": "uint256"
        }
      ],
      "name": "getProperty",
      "outputs": [
        {
          "components": [
            {
              "internalType": "address",
              "name": "seller",
              "type": "address"
            },
            {
              "internalType": "address",
              "name": "asset",
              "type": "address"
            },
            {
              "internalType": "uint256",
              "name": "pricePer",
              "type": "uint256"
            },
            {
              "internalType": "uint48",
              "name": "created",
              "type": "uint48"
            },
            {
              "internalType": "uint32",
              "name": "time",
              "type": "uint32"
            },
            {
              "internalType": "uint16",
              "name": "tokensLeft",
              "type": "uint16"
            },
            {
              "internalType": "uint16",
              "name": "totalAssets",
              "type": "uint16"
            },
            {
              "internalType": "string",
              "name": "agreement",
              "type": "string"
            },
            {
              "internalType": "uint256",
              "name": "tokenId",
              "type": "uint256"
            }
          ],
          "internalType": "struct TokenFactory.ListedProperty",
          "name": "",
          "type": "tuple"
        }
      ],
      "stateMutability": "view",
      "type": "function"
    },
    {
      "inputs": [
        {
          "internalType": "uint256",
          "name": "id",
          "type": "uint256"
        }
      ],
      "name": "isOpen",
      "outputs": [
        {
          "internalType": "bool",
          "name": "",
          "type": "bool"
        }
      ],
      "stateMutability": "view",
      "type": "function"
    },
    {
      "inputs": [],
      "name": "kycContract",
      "outputs": [
        {
          "internalType": "address",
          "name": "",
          "type": "address"
        }
      ],
      "stateMutability": "view",
      "type": "function"
    },
    {
      "inputs": [
        {
          "internalType": "address",
          "name": "seller",
          "type": "address"
        },
        {
          "internalType": "address",
          "name": "asset",
          "type": "address"
        },
        {
          "internalType": "uint16",
          "name": "numTokens",
          "type": "uint16"
        },
        {
          "internalType": "uint256",
          "name": "pricePer",
          "type": "uint256"
        },
        {
          "internalType": "uint32",
          "name": "time",
          "type": "uint32"
        },
        {
          "internalType": "string",
          "name": "agreement",
          "type": "string"
        }
      ],
      "name": "listProperty",
      "outputs": [
        {
          "internalType": "uint256",
          "name": "",
          "type": "uint256"
        }
      ],
      "stateMutability": "nonpayable",
      "type": "function"
    },
    {
      "inputs": [
        {
          "internalType": "uint256",
          "name": "id",
          "type": "uint256"
        }
      ],
      "name": "owedTokens",
      "outputs": [
        {
          "internalType": "uint256",
          "name": "",
          "type": "uint256"
        }
      ],
      "stateMutability": "view",
      "type": "function"
    },
    {
      "inputs": [],
      "name": "owner",
      "outputs": [
        {
          "internalType": "address",
          "name": "",
          "type": "address"
        }
      ],
      "stateMutability": "view",
      "type": "function"
    },
    {
      "inputs": [
        {
          "internalType": "uint256",
          "name": "id",
          "type": "uint256"
        }
      ],
      "name": "pricePer",
      "outputs": [
        {
          "internalType": "uint256",
          "name": "",
          "type": "uint256"
        }
      ],
      "stateMutability": "view",
      "type": "function"
    },
    {
      "inputs": [],
      "name": "renounceOwnership",
      "outputs": [],
      "stateMutability": "nonpayable",
      "type": "function"
    },
    {
      "inputs": [
        {
          "internalType": "uint256",
          "name": "id",
          "type": "uint256"
        }
      ],
      "name": "revert",
      "outputs": [],
      "stateMutability": "nonpayable",
      "type": "function"
    },
    {
      "inputs": [
        {
          "internalType": "address",
          "name": "newAddress",
          "type": "address"
        }
      ],
      "name": "setKYCcontract",
      "outputs": [],
      "stateMutability": "nonpayable",
      "type": "function"
    },
    {
      "inputs": [
        {
          "internalType": "uint256",
          "name": "escrowId",
          "type": "uint256"
        }
      ],
      "name": "tokenId",
      "outputs": [
        {
          "internalType": "uint256",
          "name": "",
          "type": "uint256"
        }
      ],
      "stateMutability": "view",
      "type": "function"
    },
    {
      "inputs": [
        {
          "internalType": "uint256",
          "name": "id",
          "type": "uint256"
        }
      ],
      "name": "tokensLeft",
      "outputs": [
        {
          "internalType": "uint256",
          "name": "",
          "type": "uint256"
        }
      ],
      "stateMutability": "view",
      "type": "function"
    },
    {
      "inputs": [
        {
          "internalType": "address",
          "name": "newOwner",
          "type": "address"
        }
      ],
      "name": "transferOwnership",
      "outputs": [],
      "stateMutability": "nonpayable",
      "type": "function"
    }
  ],
  "bytecode": "0x60806040523480156200001157600080fd5b5060405162002135380380620021358339810160408190526200003491620000de565b6200003f3362000071565b600380546001600160a01b039384166001600160a01b0319918216179091556002805492909316911617905562000115565b600080546001600160a01b038381166001600160a01b0319831681178455604051919092169283917f8be0079c531659141344cd1fd0a4f28419497f9722a3daafe3b4186f6b6457e09190a35050565b80516001600160a01b0381168114620000d957600080fd5b919050565b60008060408385031215620000f1578182fd5b620000fc83620000c1565b91506200010c60208401620000c1565b90509250929050565b61201080620001256000396000f3fe608060405234801561001057600080fd5b506004361061010b5760003560e01c8063715018a6116100a2578063b060becd11610071578063b060becd1461025c578063f2fde38b14610287578063fa37aa561461029a578063fcc90307146102ad578063fe0d94c1146102c057600080fd5b8063715018a61461021d5780637dcb0e5f146102255780638436e9d6146102385780638da5cb5b1461024b57600080fd5b806356c1c53b116100de57806356c1c53b146101865780635e7446d7146101a75780635e93d7a5146101d55780636d3123eb146101f857600080fd5b80631558e2ab14610110578063248441fa1461012557806332665ffb146101435780634d6861a614610163575b600080fd5b61012361011e366004611a65565b6102d3565b005b61012d610328565b60405161013a9190611d9a565b60405180910390f35b610156610151366004611b42565b61052b565b60405161013a9190611e6c565b610176610171366004611b42565b610664565b604051901515815260200161013a565b610199610194366004611a7f565b6106a7565b60405190815260200161013a565b6101996101b5366004611b42565b600090815260046020526040902060030154600160501b900461ffff1690565b6101996101e3366004611b42565b60009081526004602052604090206002015490565b6003546001600160a01b03165b6040516001600160a01b03909116815260200161013a565b6101236108b3565b610199610233366004611b42565b6108e9565b610123610246366004611b9d565b610942565b6000546001600160a01b0316610205565b61019961026a366004611b42565b600090815260056020908152604080832033845290915290205490565b610123610295366004611a65565b610d12565b6101996102a8366004611b72565b610dad565b6101236102bb366004611b42565b610e82565b6102056102ce366004611b42565b610ffb565b6000546001600160a01b031633146103065760405162461bcd60e51b81526004016102fd90611e37565b60405180910390fd5b600380546001600160a01b0319166001600160a01b0392909216919091179055565b6060600061033560015490565b905060008167ffffffffffffffff81111561036057634e487b7160e01b600052604160045260246000fd5b60405190808252806020026020018201604052801561039957816020015b6103866118dd565b81526020019060019003908161037e5790505b50905060015b6103aa836001611e7f565b8110156105245760008181526004602081815260409283902083516101208101855281546001600160a01b03908116825260018301541692810192909252600281015493820193909352600383015465ffffffffffff8116606083015263ffffffff600160301b820416608083015261ffff600160501b8204811660a0840152600160601b9091041660c08201529082018054839160e084019161044d90611f2e565b80601f016020809104026020016040519081016040528092919081815260200182805461047990611f2e565b80156104c65780601f1061049b576101008083540402835291602001916104c6565b820191906000526020600020905b8154815290600101906020018083116104a957829003601f168201915b50505050508152602001600582015481525050836001846104e79190611f17565b8151811061050557634e487b7160e01b600052603260045260246000fd5b602002602001018190525050808061051c90611f69565b91505061039f565b5092915050565b6105336118dd565b60008281526004602081815260409283902083516101208101855281546001600160a01b03908116825260018301541692810192909252600281015493820193909352600383015465ffffffffffff8116606083015263ffffffff600160301b820416608083015261ffff600160501b8204811660a0840152600160601b9091041660c0820152908201805491929160e0840191906105d190611f2e565b80601f01602080910402602001604051908101604052809291908181526020018280546105fd90611f2e565b801561064a5780601f1061061f5761010080835404028352916020019161064a565b820191906000526020600020905b81548152906001019060200180831161062d57829003601f168201915b505050505081526020016005820154815250509050919050565b60008181526004602052604081206003015442906106979063ffffffff600160301b8204169065ffffffffffff16611e97565b65ffffffffffff16101592915050565b600080546001600160a01b031633146106d25760405162461bcd60e51b81526004016102fd90611e37565b6001600160a01b0387166107285760405162461bcd60e51b815260206004820152601f60248201527f53656c6c65722061646472657373206d757374206e6f74206265206e756c6c0060448201526064016102fd565b610736600180546001019055565b600061074160015490565b9050604051806101200160405280896001600160a01b03168152602001886001600160a01b03168152602001868152602001640100000000426107849190611f84565b63ffffffff908116825286811660208084019190915261ffff808b16604080860182905260608087019290925260808087018b9052600060a0978801819052898152600480875290839020895181546001600160a01b039182166001600160a01b03199182161783558b89015160018401805491909316911617905592890151600284015592880151600383018054928a0151988a015160c08b01518716600160601b0261ffff60601b1991909716600160501b021663ffffffff60501b1999909816600160301b0269ffffffffffffffffffff1990931665ffffffffffff92909216919091179190911796909616949094179190911790935560e08401518051929361089993908501929190910190611928565b506101009190910151600590910155979650505050505050565b6000546001600160a01b031633146108dd5760405162461bcd60e51b81526004016102fd90611e37565b6108e760006114bf565b565b6000818152600460205260408120600501548061093c5760405162461bcd60e51b8152602060048201526011602482015270151bdad95b881b9bdd0818dc99585d1959607a1b60448201526064016102fd565b92915050565b6003546040516321ca2a8960e11b81523360048201526001600160a01b039091169063439455129060240160206040518083038186803b15801561098557600080fd5b505afa158015610999573d6000803e3d6000fd5b505050506040513d601f19601f820116820180604052508101906109bd9190611b22565b610a095760405162461bcd60e51b815260206004820152601f60248201527f4163636573732064656e6965642c206e6f74204b59432076657269666965640060448201526064016102fd565b82610a1381610664565b610a525760405162461bcd60e51b815260206004820152601060248201526f15da5b991bddc81a5cc818db1bdcd95960821b60448201526064016102fd565b6000610abe83610ab8610a658833610dad565b6040517f19457468657265756d205369676e6564204d6573736167653a0a3332000000006020820152603c8101829052600090605c01604051602081830303815290604052805190602001209050919050565b9061150f565b90506001600160a01b0381163314610b315760405162461bcd60e51b815260206004820152603060248201527f5a79667479546f6b656e466163746f72793a20496e636f72726563742041677260448201526f65656d656e74205369676e617475726560801b60648201526084016102fd565b60008581526004602052604090206003015461ffff80861691600160501b9004161015610b995760405162461bcd60e51b8152602060048201526016602482015275139bdd08195b9bdd59da081d1bdad95b9cc81b19599d60521b60448201526064016102fd565b60008581526004602052604081206002810154909190610bbd9061ffff8816611533565b60018301546040516323b872dd60e01b8152336004820152306024820152604481018390529192506001600160a01b03169081906323b872dd90606401602060405180830381600087803b158015610c1457600080fd5b505af1158015610c28573d6000803e3d6000fd5b505050506040513d601f19601f82011682018060405250810190610c4c9190611b22565b506000888152600560209081526040808320338452909152902054610c9a5760008881526006602090815260408220805460018101825590835291200180546001600160a01b031916331790555b60008881526005602090815260408083203384529091528120805461ffff8a169290610cc7908490611e7f565b9091555050600383018054889190600a90610cee908490600160501b900461ffff16611ef4565b92506101000a81548161ffff021916908361ffff1602179055505050505050505050565b6000546001600160a01b03163314610d3c5760405162461bcd60e51b81526004016102fd90611e37565b6001600160a01b038116610da15760405162461bcd60e51b815260206004820152602660248201527f4f776e61626c653a206e6577206f776e657220697320746865207a65726f206160448201526564647265737360d01b60648201526084016102fd565b610daa816114bf565b50565b60008281526004602081905260408220018054829190610dcc90611f2e565b80601f0160208091040260200160405190810160405280929190818152602001828054610df890611f2e565b8015610e455780601f10610e1a57610100808354040283529160200191610e45565b820191906000526020600020905b815481529060010190602001808311610e2857829003601f168201915b5050505050905080838530604051602001610e639493929190611dfb565b6040516020818303038152906040528051906020012091505092915050565b80610e8c81610664565b15610ed05760405162461bcd60e51b81526020600482015260146024820152732bb4b73237bb9034b99039ba34b6361037b832b760611b60448201526064016102fd565b600082815260056020908152604080832033845290915290205480610f2d5760405162461bcd60e51b8152602060048201526013602482015272139bc81d1bdad95b9cc81c1d5c98da185cd959606a1b60448201526064016102fd565b60008381526004602052604081206002810154909190610f4d9084611533565b600183015460405163a9059cbb60e01b8152336004820152602481018390529192506001600160a01b031690819063a9059cbb90604401602060405180830381600087803b158015610f9e57600080fd5b505af1158015610fb2573d6000803e3d6000fd5b505050506040513d601f19601f82011682018060405250810190610fd69190611b22565b5050506000938452505060056020908152604080842033855290915282209190915550565b6003546040516321ca2a8960e11b81523360048201526000916001600160a01b03169063439455129060240160206040518083038186803b15801561103f57600080fd5b505afa158015611053573d6000803e3d6000fd5b505050506040513d601f19601f820116820180604052508101906110779190611b22565b6110c35760405162461bcd60e51b815260206004820152601f60248201527f4163636573732064656e6965642c206e6f74204b59432076657269666965640060448201526064016102fd565b816110cd81610664565b61110c5760405162461bcd60e51b815260206004820152601060248201526f15da5b991bddc81a5cc818db1bdcd95960821b60448201526064016102fd565b60008381526004602052604090206003810154600160501b900461ffff16156111775760405162461bcd60e51b815260206004820152601860248201527f4e6f7420616c6c20746f6b656e7320707572636861736564000000000000000060448201526064016102fd565b6001810154600382015460028301546001600160a01b03909216916000916111aa9190600160601b900461ffff16611533565b83549091506001600160a01b038084169163a9059cbb91166111cd60c885611ec1565b6111d79085611f17565b6040516001600160e01b031960e085901b1681526001600160a01b0390921660048301526024820152604401602060405180830381600087803b15801561121d57600080fd5b505af1158015611231573d6000803e3d6000fd5b505050506040513d601f19601f820116820180604052508101906112559190611b22565b50816001600160a01b031663a9059cbb6112776000546001600160a01b031690565b61128260c885611ec1565b6040516001600160e01b031960e085901b1681526001600160a01b0390921660048301526024820152604401602060405180830381600087803b1580156112c857600080fd5b505af11580156112dc573d6000803e3d6000fd5b505050506040513d601f19601f820116820180604052508101906113009190611b22565b5060008681526006602052604081205467ffffffffffffffff81111561133657634e487b7160e01b600052604160045260246000fd5b60405190808252806020026020018201604052801561135f578160200160208202803683370190505b50905060005b60008881526006602052604090205481101561141a576000888152600560209081526040808320600690925282208054919291849081106113b657634e487b7160e01b600052603260045260246000fd5b60009182526020808320909101546001600160a01b0316835282019290925260400190205482518390839081106113fd57634e487b7160e01b600052603260045260246000fd5b60209081029190910101528061141281611f69565b915050611365565b50600254600088815260066020526040808220905163181a1f7760e21b815291926001600160a01b0316916360687ddc91611459918690600401611d12565b602060405180830381600087803b15801561147357600080fd5b505af1158015611487573d6000803e3d6000fd5b505050506040513d601f19601f820116820180604052508101906114ab9190611b5a565b600590950194909455509395945050505050565b600080546001600160a01b038381166001600160a01b0319831681178455604051919092169283917f8be0079c531659141344cd1fd0a4f28419497f9722a3daafe3b4186f6b6457e09190a35050565b600080600061151e8585611546565b9150915061152b816115b6565b509392505050565b600061153f8284611ed5565b9392505050565b60008082516041141561157d5760208301516040840151606085015160001a611571878285856117b7565b945094505050506115af565b8251604014156115a7576020830151604084015161159c8683836118a4565b9350935050506115af565b506000905060025b9250929050565b60008160048111156115d857634e487b7160e01b600052602160045260246000fd5b14156115e15750565b600181600481111561160357634e487b7160e01b600052602160045260246000fd5b14156116515760405162461bcd60e51b815260206004820152601860248201527f45434453413a20696e76616c6964207369676e6174757265000000000000000060448201526064016102fd565b600281600481111561167357634e487b7160e01b600052602160045260246000fd5b14156116c15760405162461bcd60e51b815260206004820152601f60248201527f45434453413a20696e76616c6964207369676e6174757265206c656e6774680060448201526064016102fd565b60038160048111156116e357634e487b7160e01b600052602160045260246000fd5b141561173c5760405162461bcd60e51b815260206004820152602260248201527f45434453413a20696e76616c6964207369676e6174757265202773272076616c604482015261756560f01b60648201526084016102fd565b600481600481111561175e57634e487b7160e01b600052602160045260246000fd5b1415610daa5760405162461bcd60e51b815260206004820152602260248201527f45434453413a20696e76616c6964207369676e6174757265202776272076616c604482015261756560f01b60648201526084016102fd565b6000807f7fffffffffffffffffffffffffffffff5d576e7357a4501ddfe92f46681b20a08311156117ee575060009050600361189b565b8460ff16601b1415801561180657508460ff16601c14155b15611817575060009050600461189b565b6040805160008082526020820180845289905260ff881692820192909252606081018690526080810185905260019060a0016020604051602081039080840390855afa15801561186b573d6000803e3d6000fd5b5050604051601f1901519150506001600160a01b0381166118945760006001925092505061189b565b9150600090505b94509492505050565b6000806001600160ff1b038316816118c160ff86901c601b611e7f565b90506118cf878288856117b7565b935093505050935093915050565b604080516101208101825260008082526020820181905291810182905260608082018390526080820183905260a0820183905260c0820183905260e082015261010081019190915290565b82805461193490611f2e565b90600052602060002090601f016020900481019282611956576000855561199c565b82601f1061196f57805160ff191683800117855561199c565b8280016001018555821561199c579182015b8281111561199c578251825591602001919060010190611981565b506119a89291506119ac565b5090565b5b808211156119a857600081556001016119ad565b600067ffffffffffffffff808411156119dc576119dc611fc4565b604051601f8501601f19908116603f01168101908282118183101715611a0457611a04611fc4565b81604052809350858152868686011115611a1d57600080fd5b858560208301376000602087830101525050509392505050565b80356001600160a01b0381168114611a4e57600080fd5b919050565b803561ffff81168114611a4e57600080fd5b600060208284031215611a76578081fd5b61153f82611a37565b60008060008060008060c08789031215611a97578182fd5b611aa087611a37565b9550611aae60208801611a37565b9450611abc60408801611a53565b935060608701359250608087013563ffffffff81168114611adb578283fd5b915060a087013567ffffffffffffffff811115611af6578182fd5b8701601f81018913611b06578182fd5b611b15898235602084016119c1565b9150509295509295509295565b600060208284031215611b33578081fd5b8151801515811461153f578182fd5b600060208284031215611b53578081fd5b5035919050565b600060208284031215611b6b578081fd5b5051919050565b60008060408385031215611b84578182fd5b82359150611b9460208401611a37565b90509250929050565b600080600060608486031215611bb1578283fd5b83359250611bc160208501611a53565b9150604084013567ffffffffffffffff811115611bdc578182fd5b8401601f81018613611bec578182fd5b611bfb868235602084016119c1565b9150509250925092565b60008151808452815b81811015611c2a57602081850181015186830182015201611c0e565b81811115611c3b5782602083870101525b50601f01601f19169290920160200192915050565b600061012060018060a01b0383511684526020830151611c7b60208601826001600160a01b03169052565b50604083015160408501526060830151611c9f606086018265ffffffffffff169052565b506080830151611cb7608086018263ffffffff169052565b5060a0830151611ccd60a086018261ffff169052565b5060c0830151611ce360c086018261ffff169052565b5060e08301518160e0860152611cfb82860182611c05565b610100948501519590940194909452509092915050565b6000604082016040835280855480835260608501915086845260209250828420845b82811015611d595781546001600160a01b031684529284019260019182019101611d34565b50505083810382850152845180825285830191830190845b81811015611d8d57835183529284019291840191600101611d71565b5090979650505050505050565b6000602080830181845280855180835260408601915060408160051b8701019250838701855b82811015611dee57603f19888603018452611ddc858351611c50565b94509285019290850190600101611dc0565b5092979650505050505050565b608081526000611e0e6080830187611c05565b6001600160a01b0395861660208401526040830194909452509216606090920191909152919050565b6020808252818101527f4f776e61626c653a2063616c6c6572206973206e6f7420746865206f776e6572604082015260600190565b60208152600061153f6020830184611c50565b60008219821115611e9257611e92611f98565b500190565b600065ffffffffffff808316818516808303821115611eb857611eb8611f98565b01949350505050565b600082611ed057611ed0611fae565b500490565b6000816000190483118215151615611eef57611eef611f98565b500290565b600061ffff83811690831681811015611f0f57611f0f611f98565b039392505050565b600082821015611f2957611f29611f98565b500390565b600181811c90821680611f4257607f821691505b60208210811415611f6357634e487b7160e01b600052602260045260246000fd5b50919050565b6000600019821415611f7d57611f7d611f98565b5060010190565b600082611f9357611f93611fae565b500690565b634e487b7160e01b600052601160045260246000fd5b634e487b7160e01b600052601260045260246000fd5b634e487b7160e01b600052604160045260246000fdfea2646970667358221220d8bc4025a0ab9efe01a1a32506cae443eaaa9dd3584a5a741b1a583043bfc37764736f6c63430008040033",
  "linkReferences": {},
  "deployedLinkReferences": {}
}