{
  "_format": "hh-sol-artifact-1",
  "contractName": "ParametricLien",
  "sourceName": "contracts/Lien/ParametricLien.sol",
  "abi": [
    {
      "inputs": [
        {
          "internalType": "address",
          "name": "lienProvider",
          "type": "address"
        },
        {
          "internalType": "address",
          "name": "assetType",
          "type": "address"
        },
        {
          "internalType": "uint256",
          "name": "startTime",
          "type": "uint256"
        },
        {
          "internalType": "uint256",
          "name": "initialValue",
          "type": "uint256"
        },
        {
          "internalType": "uint256",
          "name": "valuePerPeriod",
          "type": "uint256"
        },
        {
          "internalType": "uint256",
          "name": "_period",
          "type": "uint256"
        }
      ],
      "stateMutability": "nonpayable",
      "type": "constructor"
    },
    {
      "anonymous": false,
      "inputs": [
        {
          "indexed": false,
          "internalType": "uint256",
          "name": "amount",
          "type": "uint256"
        }
      ],
      "name": "LienDecreased",
      "type": "event"
    },
    {
      "anonymous": false,
      "inputs": [
        {
          "indexed": false,
          "internalType": "uint256",
          "name": "amount",
          "type": "uint256"
        }
      ],
      "name": "LienIncreased",
      "type": "event"
    },
    {
      "inputs": [],
      "name": "asset",
      "outputs": [
        {
          "internalType": "address",
          "name": "",
          "type": "address"
        }
      ],
      "stateMutability": "view",
      "type": "function"
    },
    {
      "inputs": [],
      "name": "balance",
      "outputs": [
        {
          "internalType": "uint256",
          "name": "",
          "type": "uint256"
        }
      ],
      "stateMutability": "nonpayable",
      "type": "function"
    },
    {
      "inputs": [],
      "name": "balanceView",
      "outputs": [
        {
          "internalType": "uint256",
          "name": "",
          "type": "uint256"
        }
      ],
      "stateMutability": "view",
      "type": "function"
    },
    {
      "inputs": [],
      "name": "initialize",
      "outputs": [],
      "stateMutability": "nonpayable",
      "type": "function"
    },
    {
      "inputs": [],
      "name": "lienProvider",
      "outputs": [
        {
          "internalType": "address",
          "name": "",
          "type": "address"
        }
      ],
      "stateMutability": "view",
      "type": "function"
    },
    {
      "inputs": [
        {
          "internalType": "uint256",
          "name": "amount",
          "type": "uint256"
        }
      ],
      "name": "pay",
      "outputs": [
        {
          "internalType": "uint256",
          "name": "remainder",
          "type": "uint256"
        }
      ],
      "stateMutability": "nonpayable",
      "type": "function"
    },
    {
      "inputs": [
        {
          "internalType": "address",
          "name": "newProvider",
          "type": "address"
        }
      ],
      "name": "setLienProvider",
      "outputs": [],
      "stateMutability": "nonpayable",
      "type": "function"
    },
    {
      "inputs": [],
      "name": "start",
      "outputs": [
        {
          "internalType": "uint256",
          "name": "",
          "type": "uint256"
        }
      ],
      "stateMutability": "view",
      "type": "function"
    },
    {
      "inputs": [],
      "name": "update",
      "outputs": [],
      "stateMutability": "nonpayable",
      "type": "function"
    },
    {
      "inputs": [],
      "name": "value",
      "outputs": [
        {
          "internalType": "uint256",
          "name": "",
          "type": "uint256"
        }
      ],
      "stateMutability": "view",
      "type": "function"
    }
  ],
  "bytecode": "0x608060405234801561001057600080fd5b5060405161063038038061063083398101604081905261002f916100a6565b600080546001600160a01b038089166001600160a01b0319928316179092556001805492881692909116919091179055600283905560068490558361007357426006555b42600355600491909155600555506100fd92505050565b80516001600160a01b03811681146100a157600080fd5b919050565b60008060008060008060c087890312156100be578182fd5b6100c78761008a565b95506100d56020880161008a565b945060408701519350606087015192506080870151915060a087015190509295509295509295565b6105248061010c6000396000f3fe608060405234801561001057600080fd5b506004361061009e5760003560e01c8063b69ef8a811610066578063b69ef8a81461010d578063be9a655514610115578063c290d6911461011e578063d8af9eb014610131578063e85641ef1461014457600080fd5b806338d52e0f146100a35780633fa4f245146100cd5780638129fc1c146100e45780639c73cc97146100f4578063a2e6204514610105575b600080fd5b6001546001600160a01b03165b6040516001600160a01b0390911681526020015b60405180910390f35b6100d660025481565b6040519081526020016100c4565b6100f2426006819055600355565b005b6000546001600160a01b03166100b0565b6100f261014c565b6100d66101b5565b6100d660065481565b6100d661012c36600461046a565b6101c6565b6100f261013f36600461041c565b6102be565b6002546100d6565b60006005546006544261015f91906104c1565b6101699190610482565b9050600060055460065460035461018091906104c1565b61018a9190610482565b90506101ad600454828461019e91906104c1565b6101a891906104a2565b6102f7565b505042600355565b60006101bf61014c565b5060025490565b60006101d061014c565b60006101e46001546001600160a01b031690565b90506002548310610204576002546101fc90846104c1565b915060025492505b806001600160a01b03166323b872dd336102266000546001600160a01b031690565b6040516001600160e01b031960e085901b1681526001600160a01b0392831660048201529116602482015260448101869052606401602060405180830381600087803b15801561027557600080fd5b505af1158015610289573d6000803e3d6000fd5b505050506040513d601f19601f820116820180604052508101906102ad919061044a565b506102b783610351565b5050919050565b6000546001600160a01b031633146102d557600080fd5b600080546001600160a01b0319166001600160a01b0392909216919091179055565b60008061030f836002546103f390919063ffffffff16565b600281905560405185815291935091507fe9b92584f324aeed8b697b51a5dda68baa26d4c8cd59031888a1422b395e4e609060200160405180910390a1505050565b600060025482106103ac5760025461036990836104c1565b600060028190556040519081529091507f5e18e4e357cd931333a4b9e224a2597f157cc8797633acedd6482c21eeee025b906020015b60405180910390a1919050565b81600260008282546103be91906104c1565b90915550506040518281527f5e18e4e357cd931333a4b9e224a2597f157cc8797633acedd6482c21eeee025b9060200161039f565b6000808383018481101561040e576000809250925050610415565b6001925090505b9250929050565b60006020828403121561042d578081fd5b81356001600160a01b0381168114610443578182fd5b9392505050565b60006020828403121561045b578081fd5b81518015158114610443578182fd5b60006020828403121561047b578081fd5b5035919050565b60008261049d57634e487b7160e01b81526012600452602481fd5b500490565b60008160001904831182151516156104bc576104bc6104d8565b500290565b6000828210156104d3576104d36104d8565b500390565b634e487b7160e01b600052601160045260246000fdfea264697066735822122060eee5223c6a5737135677aef9125474ac08efeda3137cec5770aecd0db4bd7e64736f6c63430008040033",
  "linkReferences": {},
  "deployedLinkReferences": {}
}