{
  "_format": "hh-sol-artifact-1",
  "contractName": "ZyftyToken",
  "sourceName": "contracts/ZyftyToken.sol",
  "abi": [
    {
      "anonymous": false,
      "inputs": [
        {
          "indexed": true,
          "internalType": "address",
          "name": "account",
          "type": "address"
        },
        {
          "indexed": true,
          "internalType": "address",
          "name": "operator",
          "type": "address"
        },
        {
          "indexed": false,
          "internalType": "bool",
          "name": "approved",
          "type": "bool"
        }
      ],
      "name": "ApprovalForAll",
      "type": "event"
    },
    {
      "anonymous": false,
      "inputs": [
        {
          "indexed": false,
          "internalType": "uint8",
          "name": "version",
          "type": "uint8"
        }
      ],
      "name": "Initialized",
      "type": "event"
    },
    {
      "anonymous": false,
      "inputs": [
        {
          "indexed": false,
          "internalType": "uint256",
          "name": "tokenId",
          "type": "uint256"
        },
        {
          "indexed": false,
          "internalType": "uint256",
          "name": "tokensCreated",
          "type": "uint256"
        }
      ],
      "name": "TokensMinted",
      "type": "event"
    },
    {
      "anonymous": false,
      "inputs": [
        {
          "indexed": true,
          "internalType": "address",
          "name": "operator",
          "type": "address"
        },
        {
          "indexed": true,
          "internalType": "address",
          "name": "from",
          "type": "address"
        },
        {
          "indexed": true,
          "internalType": "address",
          "name": "to",
          "type": "address"
        },
        {
          "indexed": false,
          "internalType": "uint256[]",
          "name": "ids",
          "type": "uint256[]"
        },
        {
          "indexed": false,
          "internalType": "uint256[]",
          "name": "values",
          "type": "uint256[]"
        }
      ],
      "name": "TransferBatch",
      "type": "event"
    },
    {
      "anonymous": false,
      "inputs": [
        {
          "indexed": true,
          "internalType": "address",
          "name": "operator",
          "type": "address"
        },
        {
          "indexed": true,
          "internalType": "address",
          "name": "from",
          "type": "address"
        },
        {
          "indexed": true,
          "internalType": "address",
          "name": "to",
          "type": "address"
        },
        {
          "indexed": false,
          "internalType": "uint256",
          "name": "id",
          "type": "uint256"
        },
        {
          "indexed": false,
          "internalType": "uint256",
          "name": "value",
          "type": "uint256"
        }
      ],
      "name": "TransferSingle",
      "type": "event"
    },
    {
      "anonymous": false,
      "inputs": [
        {
          "indexed": false,
          "internalType": "string",
          "name": "value",
          "type": "string"
        },
        {
          "indexed": true,
          "internalType": "uint256",
          "name": "id",
          "type": "uint256"
        }
      ],
      "name": "URI",
      "type": "event"
    },
    {
      "inputs": [],
      "name": "MINTER_ROLE",
      "outputs": [
        {
          "internalType": "bytes32",
          "name": "",
          "type": "bytes32"
        }
      ],
      "stateMutability": "view",
      "type": "function"
    },
    {
      "inputs": [
        {
          "internalType": "address",
          "name": "account",
          "type": "address"
        },
        {
          "internalType": "uint256",
          "name": "id",
          "type": "uint256"
        }
      ],
      "name": "balanceOf",
      "outputs": [
        {
          "internalType": "uint256",
          "name": "",
          "type": "uint256"
        }
      ],
      "stateMutability": "view",
      "type": "function"
    },
    {
      "inputs": [
        {
          "internalType": "address[]",
          "name": "accounts",
          "type": "address[]"
        },
        {
          "internalType": "uint256[]",
          "name": "ids",
          "type": "uint256[]"
        }
      ],
      "name": "balanceOfBatch",
      "outputs": [
        {
          "internalType": "uint256[]",
          "name": "",
          "type": "uint256[]"
        }
      ],
      "stateMutability": "view",
      "type": "function"
    },
    {
      "inputs": [
        {
          "internalType": "address",
          "name": "minter",
          "type": "address"
        }
      ],
      "name": "initialize",
      "outputs": [],
      "stateMutability": "nonpayable",
      "type": "function"
    },
    {
      "inputs": [
        {
          "internalType": "address",
          "name": "account",
          "type": "address"
        },
        {
          "internalType": "address",
          "name": "operator",
          "type": "address"
        }
      ],
      "name": "isApprovedForAll",
      "outputs": [
        {
          "internalType": "bool",
          "name": "",
          "type": "bool"
        }
      ],
      "stateMutability": "view",
      "type": "function"
    },
    {
      "inputs": [
        {
          "internalType": "address[]",
          "name": "users",
          "type": "address[]"
        },
        {
          "internalType": "uint256[]",
          "name": "amounts",
          "type": "uint256[]"
        }
      ],
      "name": "newToken",
      "outputs": [
        {
          "internalType": "uint256",
          "name": "",
          "type": "uint256"
        }
      ],
      "stateMutability": "nonpayable",
      "type": "function"
    },
    {
      "inputs": [
        {
          "internalType": "address",
          "name": "from",
          "type": "address"
        },
        {
          "internalType": "address",
          "name": "to",
          "type": "address"
        },
        {
          "internalType": "uint256[]",
          "name": "ids",
          "type": "uint256[]"
        },
        {
          "internalType": "uint256[]",
          "name": "amounts",
          "type": "uint256[]"
        },
        {
          "internalType": "bytes",
          "name": "data",
          "type": "bytes"
        }
      ],
      "name": "safeBatchTransferFrom",
      "outputs": [],
      "stateMutability": "nonpayable",
      "type": "function"
    },
    {
      "inputs": [
        {
          "internalType": "address",
          "name": "from",
          "type": "address"
        },
        {
          "internalType": "address",
          "name": "to",
          "type": "address"
        },
        {
          "internalType": "uint256",
          "name": "id",
          "type": "uint256"
        },
        {
          "internalType": "uint256",
          "name": "amount",
          "type": "uint256"
        },
        {
          "internalType": "bytes",
          "name": "data",
          "type": "bytes"
        }
      ],
      "name": "safeTransferFrom",
      "outputs": [],
      "stateMutability": "nonpayable",
      "type": "function"
    },
    {
      "inputs": [
        {
          "internalType": "address",
          "name": "operator",
          "type": "address"
        },
        {
          "internalType": "bool",
          "name": "approved",
          "type": "bool"
        }
      ],
      "name": "setApprovalForAll",
      "outputs": [],
      "stateMutability": "nonpayable",
      "type": "function"
    },
    {
      "inputs": [
        {
          "internalType": "address",
          "name": "_escrow",
          "type": "address"
        }
      ],
      "name": "setEscrow",
      "outputs": [],
      "stateMutability": "nonpayable",
      "type": "function"
    },
    {
      "inputs": [
        {
          "internalType": "address",
          "name": "_minter",
          "type": "address"
        }
      ],
      "name": "setMinter",
      "outputs": [],
      "stateMutability": "nonpayable",
      "type": "function"
    },
    {
      "inputs": [
        {
          "internalType": "bytes4",
          "name": "interfaceId",
          "type": "bytes4"
        }
      ],
      "name": "supportsInterface",
      "outputs": [
        {
          "internalType": "bool",
          "name": "",
          "type": "bool"
        }
      ],
      "stateMutability": "view",
      "type": "function"
    },
    {
      "inputs": [
        {
          "internalType": "uint256",
          "name": "",
          "type": "uint256"
        }
      ],
      "name": "uri",
      "outputs": [
        {
          "internalType": "string",
          "name": "",
          "type": "string"
        }
      ],
      "stateMutability": "view",
      "type": "function"
    }
  ],
  "bytecode": "0x608060405234801561001057600080fd5b50611b7e806100206000396000f3fe608060405234801561001057600080fd5b50600436106100ce5760003560e01c8063a22cb4651161008c578063d539139311610066578063d5391393146101bd578063e985e9c5146101e4578063f242432a14610220578063fca3b5aa1461023357600080fd5b8063a22cb46514610184578063c10c354614610197578063c4d66de8146101aa57600080fd5b8062fdd58e146100d357806301ffc9a7146100f95780630e89341c1461011c5780632eb2c2d61461013c5780634e1273f41461015157806360687ddc14610171575b600080fd5b6100e66100e1366004611575565b610246565b6040519081526020015b60405180910390f35b61010c610107366004611669565b6102de565b60405190151581526020016100f0565b61012f61012a3660046116a1565b6102ef565b6040516100f09190611822565b61014f61014a366004611432565b610383565b005b61016461015f36600461159e565b6103cf565b6040516100f091906117e1565b6100e661017f36600461159e565b610531565b61014f61019236600461153b565b610707565b61014f6101a53660046113df565b610716565b61014f6101b83660046113df565b610738565b6100e67f9f2df0fed2c77648de5860a4cc508cd0818c85b8b8a1ab4ceeef8d981c8956a681565b61010c6101f2366004611400565b6001600160a01b03918216600090815260666020908152604080832093909416825291909152205460ff1690565b61014f61022e3660046114d8565b61089d565b61014f6102413660046113df565b6108e2565b60006001600160a01b0383166102b65760405162461bcd60e51b815260206004820152602a60248201527f455243313135353a2061646472657373207a65726f206973206e6f742061207660448201526930b634b21037bbb732b960b11b60648201526084015b60405180910390fd5b5060009081526065602090815260408083206001600160a01b03949094168352929052205490565b60006102e982610904565b92915050565b6060606780546102fe906119e1565b80601f016020809104026020016040519081016040528092919081815260200182805461032a906119e1565b80156103775780601f1061034c57610100808354040283529160200191610377565b820191906000526020600020905b81548152906001019060200180831161035a57829003601f168201915b50505050509050919050565b6001600160a01b03851633148061039f575061039f85336101f2565b6103bb5760405162461bcd60e51b81526004016102ad9061187d565b6103c88585858585610954565b5050505050565b606081518351146104345760405162461bcd60e51b815260206004820152602960248201527f455243313135353a206163636f756e747320616e6420696473206c656e677468604482015268040dad2e6dac2e8c6d60bb1b60648201526084016102ad565b6000835167ffffffffffffffff81111561045e57634e487b7160e01b600052604160045260246000fd5b604051908082528060200260200182016040528015610487578160200160208202803683370190505b50905060005b8451811015610529576104ee8582815181106104b957634e487b7160e01b600052603260045260246000fd5b60200260200101518583815181106104e157634e487b7160e01b600052603260045260246000fd5b6020026020010151610246565b82828151811061050e57634e487b7160e01b600052603260045260246000fd5b602090810291909101015261052281611a49565b905061048d565b509392505050565b6097546000906001600160a01b0316331461058e5760405162461bcd60e51b815260206004820152601d60248201527f6d7573742068617665206d696e74657220726f6c6520746f206d696e7400000060448201526064016102ad565b81518351146105ed5760405162461bcd60e51b815260206004820152602560248201527f557365727320616e6420416d6f756e7473206d7573742062652073616d65206c6044820152640cadccee8d60db1b60648201526084016102ad565b6105fb609980546001019055565b600061060660995490565b90506000805b85518110156106c55761067e86828151811061063857634e487b7160e01b600052603260045260246000fd5b60200260200101518487848151811061066157634e487b7160e01b600052603260045260246000fd5b602002602001015160405180602001604052806000815250610b5e565b84818151811061069e57634e487b7160e01b600052603260045260246000fd5b6020026020010151826106b191906119c9565b9150806106bd81611a49565b91505061060c565b5060408051838152602081018390527fc61c8e2899bd86923bda7268d6d1b42d8e644ff3dedc13d41d5b798e4aa35237910160405180910390a1509392505050565b610712338383610c83565b5050565b609880546001600160a01b0319166001600160a01b0392909216919091179055565b600054610100900460ff16158080156107585750600054600160ff909116105b806107725750303b158015610772575060005460ff166001145b6107d55760405162461bcd60e51b815260206004820152602e60248201527f496e697469616c697a61626c653a20636f6e747261637420697320616c72656160448201526d191e481a5b9a5d1a585b1a5e995960921b60648201526084016102ad565b6000805460ff1916600117905580156107f8576000805461ff0019166101001790555b6108366040518060400160405280602081526020017f68747470733a2f2f7a796674792e696f2f746f6b656e2f7b69647d2e6a736f6e815250610d64565b60985461084b906001600160a01b0316610716565b610854826108e2565b8015610712576000805461ff0019169055604051600181527f7f26b83ff96e1f2b6a682f133852f6798a09c465da95921460cefb38474024989060200160405180910390a15050565b6001600160a01b0385163314806108b957506108b985336101f2565b6108d55760405162461bcd60e51b81526004016102ad9061187d565b6103c88585858585610d97565b609780546001600160a01b0319166001600160a01b0392909216919091179055565b60006001600160e01b03198216636cdb3d1360e11b148061093557506001600160e01b031982166303a24d0760e21b145b806102e957506301ffc9a760e01b6001600160e01b03198316146102e9565b81518351146109b65760405162461bcd60e51b815260206004820152602860248201527f455243313135353a2069647320616e6420616d6f756e7473206c656e677468206044820152670dad2e6dac2e8c6d60c31b60648201526084016102ad565b6001600160a01b0384166109dc5760405162461bcd60e51b81526004016102ad906118cb565b336109eb818787878787610ed3565b60005b8451811015610af0576000858281518110610a1957634e487b7160e01b600052603260045260246000fd5b602002602001015190506000858381518110610a4557634e487b7160e01b600052603260045260246000fd5b60209081029190910181015160008481526065835260408082206001600160a01b038e168352909352919091205490915081811015610a965760405162461bcd60e51b81526004016102ad90611910565b60008381526065602090815260408083206001600160a01b038e8116855292528083208585039055908b16825281208054849290610ad59084906119c9565b9250508190555050505080610ae990611a49565b90506109ee565b50846001600160a01b0316866001600160a01b0316826001600160a01b03167f4a39dc06d4c0dbc64b70af90fd698a233a518aa5d07e595d983b8c0526c8f7fb8787604051610b409291906117f4565b60405180910390a4610b56818787878787610f80565b505050505050565b6001600160a01b038416610bbe5760405162461bcd60e51b815260206004820152602160248201527f455243313135353a206d696e7420746f20746865207a65726f206164647265736044820152607360f81b60648201526084016102ad565b336000610bca856110eb565b90506000610bd7856110eb565b9050610be883600089858589610ed3565b60008681526065602090815260408083206001600160a01b038b16845290915281208054879290610c1a9084906119c9565b909155505060408051878152602081018790526001600160a01b03808a1692600092918716917fc3d58168c5ae7397731d063d5bbf3d657854427343f4c083240f7aacaa2d0f62910160405180910390a4610c7a83600089898989611144565b50505050505050565b816001600160a01b0316836001600160a01b03161415610cf75760405162461bcd60e51b815260206004820152602960248201527f455243313135353a2073657474696e6720617070726f76616c20737461747573604482015268103337b91039b2b63360b91b60648201526084016102ad565b6001600160a01b03838116600081815260666020908152604080832094871680845294825291829020805460ff191686151590811790915591519182527f17307eab39ab6107e8899845ad3d59bd9653f200f220920489ca2b5937696c31910160405180910390a3505050565b600054610100900460ff16610d8b5760405162461bcd60e51b81526004016102ad9061195a565b610d948161120e565b50565b6001600160a01b038416610dbd5760405162461bcd60e51b81526004016102ad906118cb565b336000610dc9856110eb565b90506000610dd6856110eb565b9050610de6838989858589610ed3565b60008681526065602090815260408083206001600160a01b038c16845290915290205485811015610e295760405162461bcd60e51b81526004016102ad90611910565b60008781526065602090815260408083206001600160a01b038d8116855292528083208985039055908a16825281208054889290610e689084906119c9565b909155505060408051888152602081018890526001600160a01b03808b16928c821692918816917fc3d58168c5ae7397731d063d5bbf3d657854427343f4c083240f7aacaa2d0f62910160405180910390a4610ec8848a8a8a8a8a611144565b505050505050505050565b6001600160a01b0385161580610ef057506001600160a01b038416155b80610f0857506098546001600160a01b038681169116145b80610f2057506098546001600160a01b038581169116145b610b565760405162461bcd60e51b815260206004820152602b60248201527f546f6b656e206d75737420626520706173736564207468726f7567682053616c60448201526a195cc810dbdb9d1c9858dd60aa1b60648201526084016102ad565b6001600160a01b0384163b15610b565760405163bc197c8160e01b81526001600160a01b0385169063bc197c8190610fc4908990899088908890889060040161173e565b602060405180830381600087803b158015610fde57600080fd5b505af192505050801561100e575060408051601f3d908101601f1916820190925261100b91810190611685565b60015b6110bb5761101a611a90565b806308c379a01415611054575061102f611aa8565b8061103a5750611056565b8060405162461bcd60e51b81526004016102ad9190611822565b505b60405162461bcd60e51b815260206004820152603460248201527f455243313135353a207472616e7366657220746f206e6f6e2d455243313135356044820152732932b1b2b4bb32b91034b6b83632b6b2b73a32b960611b60648201526084016102ad565b6001600160e01b0319811663bc197c8160e01b14610c7a5760405162461bcd60e51b81526004016102ad90611835565b6040805160018082528183019092526060916000919060208083019080368337019050509050828160008151811061113357634e487b7160e01b600052603260045260246000fd5b602090810291909101015292915050565b6001600160a01b0384163b15610b565760405163f23a6e6160e01b81526001600160a01b0385169063f23a6e6190611188908990899088908890889060040161179c565b602060405180830381600087803b1580156111a257600080fd5b505af19250505080156111d2575060408051601f3d908101601f191682019092526111cf91810190611685565b60015b6111de5761101a611a90565b6001600160e01b0319811663f23a6e6160e01b14610c7a5760405162461bcd60e51b81526004016102ad90611835565b600054610100900460ff166112355760405162461bcd60e51b81526004016102ad9061195a565b610d94818051610712906067906020840190828054611253906119e1565b90600052602060002090601f01602090048101928261127557600085556112bb565b82601f1061128e57805160ff19168380011785556112bb565b828001600101855582156112bb579182015b828111156112bb5782518255916020019190600101906112a0565b506112c79291506112cb565b5090565b5b808211156112c757600081556001016112cc565b80356001600160a01b03811681146112f757600080fd5b919050565b600082601f83011261130c578081fd5b81356020611319826119a5565b6040516113268282611a1c565b8381528281019150858301600585901b87018401881015611345578586fd5b855b8581101561136357813584529284019290840190600101611347565b5090979650505050505050565b600082601f830112611380578081fd5b813567ffffffffffffffff81111561139a5761139a611a7a565b6040516113b1601f8301601f191660200182611a1c565b8181528460208386010111156113c5578283fd5b816020850160208301379081016020019190915292915050565b6000602082840312156113f0578081fd5b6113f9826112e0565b9392505050565b60008060408385031215611412578081fd5b61141b836112e0565b9150611429602084016112e0565b90509250929050565b600080600080600060a08688031215611449578081fd5b611452866112e0565b9450611460602087016112e0565b9350604086013567ffffffffffffffff8082111561147c578283fd5b61148889838a016112fc565b9450606088013591508082111561149d578283fd5b6114a989838a016112fc565b935060808801359150808211156114be578283fd5b506114cb88828901611370565b9150509295509295909350565b600080600080600060a086880312156114ef578081fd5b6114f8866112e0565b9450611506602087016112e0565b93506040860135925060608601359150608086013567ffffffffffffffff81111561152f578182fd5b6114cb88828901611370565b6000806040838503121561154d578182fd5b611556836112e0565b91506020830135801515811461156a578182fd5b809150509250929050565b60008060408385031215611587578182fd5b611590836112e0565b946020939093013593505050565b600080604083850312156115b0578182fd5b823567ffffffffffffffff808211156115c7578384fd5b818501915085601f8301126115da578384fd5b813560206115e7826119a5565b6040516115f48282611a1c565b8381528281019150858301600585901b870184018b1015611613578889fd5b8896505b8487101561163c57611628816112e0565b835260019690960195918301918301611617565b5096505086013592505080821115611652578283fd5b5061165f858286016112fc565b9150509250929050565b60006020828403121561167a578081fd5b81356113f981611b32565b600060208284031215611696578081fd5b81516113f981611b32565b6000602082840312156116b2578081fd5b5035919050565b6000815180845260208085019450808401835b838110156116e8578151875295820195908201906001016116cc565b509495945050505050565b60008151808452815b81811015611718576020818501810151868301820152016116fc565b818111156117295782602083870101525b50601f01601f19169290920160200192915050565b6001600160a01b0386811682528516602082015260a06040820181905260009061176a908301866116b9565b828103606084015261177c81866116b9565b9050828103608084015261179081856116f3565b98975050505050505050565b6001600160a01b03868116825285166020820152604081018490526060810183905260a0608082018190526000906117d6908301846116f3565b979650505050505050565b6020815260006113f960208301846116b9565b60408152600061180760408301856116b9565b828103602084015261181981856116b9565b95945050505050565b6020815260006113f960208301846116f3565b60208082526028908201527f455243313135353a204552433131353552656365697665722072656a656374656040820152676420746f6b656e7360c01b606082015260800190565b6020808252602e908201527f455243313135353a2063616c6c6572206973206e6f7420746f6b656e206f776e60408201526d195c881bdc88185c1c1c9bdd995960921b606082015260800190565b60208082526025908201527f455243313135353a207472616e7366657220746f20746865207a65726f206164604082015264647265737360d81b606082015260800190565b6020808252602a908201527f455243313135353a20696e73756666696369656e742062616c616e636520666f60408201526939103a3930b739b332b960b11b606082015260800190565b6020808252602b908201527f496e697469616c697a61626c653a20636f6e7472616374206973206e6f74206960408201526a6e697469616c697a696e6760a81b606082015260800190565b600067ffffffffffffffff8211156119bf576119bf611a7a565b5060051b60200190565b600082198211156119dc576119dc611a64565b500190565b600181811c908216806119f557607f821691505b60208210811415611a1657634e487b7160e01b600052602260045260246000fd5b50919050565b601f8201601f1916810167ffffffffffffffff81118282101715611a4257611a42611a7a565b6040525050565b6000600019821415611a5d57611a5d611a64565b5060010190565b634e487b7160e01b600052601160045260246000fd5b634e487b7160e01b600052604160045260246000fd5b600060033d1115611aa557600481823e5160e01c5b90565b600060443d1015611ab65790565b6040516003193d81016004833e81513d67ffffffffffffffff8160248401118184111715611ae657505050505090565b8285019150815181811115611afe5750505050505090565b843d8701016020828501011115611b185750505050505090565b611b2760208286010187611a1c565b509095945050505050565b6001600160e01b031981168114610d9457600080fdfea2646970667358221220e43759e03643bdbc76501363303f332b98c0fe8d6bf3f7a6d854e733c3cde03264736f6c63430008040033",
  "linkReferences": {},
  "deployedLinkReferences": {}
}