{
  "_format": "hh-sol-artifact-1",
  "contractName": "ERC4671Store",
  "sourceName": "contracts/ERC4671/ERC4671Store.sol",
  "abi": [
    {
      "anonymous": false,
      "inputs": [
        {
          "indexed": false,
          "internalType": "address",
          "name": "owner",
          "type": "address"
        },
        {
          "indexed": false,
          "internalType": "address",
          "name": "token",
          "type": "address"
        }
      ],
      "name": "Added",
      "type": "event"
    },
    {
      "anonymous": false,
      "inputs": [
        {
          "indexed": false,
          "internalType": "address",
          "name": "owner",
          "type": "address"
        },
        {
          "indexed": false,
          "internalType": "address",
          "name": "token",
          "type": "address"
        }
      ],
      "name": "Removed",
      "type": "event"
    },
    {
      "inputs": [
        {
          "internalType": "address",
          "name": "token",
          "type": "address"
        }
      ],
      "name": "add",
      "outputs": [],
      "stateMutability": "nonpayable",
      "type": "function"
    },
    {
      "inputs": [
        {
          "internalType": "address",
          "name": "owner",
          "type": "address"
        }
      ],
      "name": "get",
      "outputs": [
        {
          "internalType": "address[]",
          "name": "",
          "type": "address[]"
        }
      ],
      "stateMutability": "view",
      "type": "function"
    },
    {
      "inputs": [
        {
          "internalType": "address",
          "name": "token",
          "type": "address"
        }
      ],
      "name": "remove",
      "outputs": [],
      "stateMutability": "nonpayable",
      "type": "function"
    },
    {
      "inputs": [
        {
          "internalType": "bytes4",
          "name": "interfaceId",
          "type": "bytes4"
        }
      ],
      "name": "supportsInterface",
      "outputs": [
        {
          "internalType": "bool",
          "name": "",
          "type": "bool"
        }
      ],
      "stateMutability": "view",
      "type": "function"
    }
  ],
  "bytecode": "0x608060405234801561001057600080fd5b50610574806100206000396000f3fe608060405234801561001057600080fd5b506004361061004c5760003560e01c806301ffc9a7146100515780630a3b0a4f1461007957806329092d0e1461008e578063c2bc2efc146100a1575b600080fd5b61006461005f3660046104a6565b6100c1565b60405190151581526020015b60405180910390f35b61008c61008736600461047f565b6100f8565b005b61008c61009c36600461047f565b610181565b6100b46100af36600461047f565b610373565b60405161007091906104ce565b60006001600160e01b0319821663e18e09bd60e01b14806100f257506301ffc9a760e01b6001600160e01b03198316145b92915050565b33600081815260208181526040808320805460018085528386206001600160a01b0389168088529086528487208390559082018355828652948490200180546001600160a01b03191685179055815194855291840192909252917f938c63ac3d228b23f6bee7618fefc6790522e338ac202c958a2ea9eb9706c5d1910160405180910390a15050565b600061018d33836103e7565b3360009081526020819052604090208054919250906101ae9060019061051b565b8214156101de573360009081526001602090815260408083206001600160a01b0387168452909152812055610245565b33600090815260016020819052604082208354859391928591610201919061051b565b8154811061021f57634e487b7160e01b600052603260045260246000fd5b60009182526020808320909101546001600160a01b031683528201929092526040019020555b805481906102559060019061051b565b8154811061027357634e487b7160e01b600052603260045260246000fd5b9060005260206000200160009054906101000a90046001600160a01b03168183815481106102b157634e487b7160e01b600052603260045260246000fd5b9060005260206000200160006101000a8154816001600160a01b0302191690836001600160a01b03160217905550808054806102fd57634e487b7160e01b600052603160045260246000fd5b600082815260209020810160001990810180546001600160a01b03191690550190556040517f40e634d0e26d9ec2e860e4dd9b7b2cfbb569b6058362a1a54d3a94718bc495879061036690339086906001600160a01b0392831681529116602082015260400190565b60405180910390a1505050565b6001600160a01b038116600090815260208181526040918290208054835181840281018401909452808452606093928301828280156103db57602002820191906000526020600020905b81546001600160a01b031681526001909101906020018083116103bd575b50505050509050919050565b6001600160a01b0380831660009081526001602090815260408083209385168352929052908120548015158061043457506001600160a01b03841660009081526020819052604090205415155b6104785760405162461bcd60e51b81526020600482015260116024820152701059191c995cdcc81b9bdd08199bdd5b99607a1b604482015260640160405180910390fd5b9392505050565b600060208284031215610490578081fd5b81356001600160a01b0381168114610478578182fd5b6000602082840312156104b7578081fd5b81356001600160e01b031981168114610478578182fd5b6020808252825182820181905260009190848201906040850190845b8181101561050f5783516001600160a01b0316835292840192918401916001016104ea565b50909695505050505050565b60008282101561053957634e487b7160e01b81526011600452602481fd5b50039056fea264697066735822122072cc8a84fc07f625bb1590f8e62a3524221f93028916fd3800fa2b6e9f0921d064736f6c63430008040033",
  "linkReferences": {},
  "deployedLinkReferences": {}
}