{
  "_format": "hh-sol-artifact-1",
  "contractName": "ZyftyNFT",
  "sourceName": "contracts/ZyftyNFT.sol",
  "abi": [
    {
      "inputs": [
        {
          "internalType": "address",
          "name": "_escrow",
          "type": "address"
        }
      ],
      "stateMutability": "nonpayable",
      "type": "constructor"
    },
    {
      "anonymous": false,
      "inputs": [
        {
          "indexed": true,
          "internalType": "address",
          "name": "owner",
          "type": "address"
        },
        {
          "indexed": true,
          "internalType": "address",
          "name": "approved",
          "type": "address"
        },
        {
          "indexed": true,
          "internalType": "uint256",
          "name": "tokenId",
          "type": "uint256"
        }
      ],
      "name": "Approval",
      "type": "event"
    },
    {
      "anonymous": false,
      "inputs": [
        {
          "indexed": true,
          "internalType": "address",
          "name": "owner",
          "type": "address"
        },
        {
          "indexed": true,
          "internalType": "address",
          "name": "operator",
          "type": "address"
        },
        {
          "indexed": false,
          "internalType": "bool",
          "name": "approved",
          "type": "bool"
        }
      ],
      "name": "ApprovalForAll",
      "type": "event"
    },
    {
      "anonymous": false,
      "inputs": [
        {
          "indexed": true,
          "internalType": "uint256",
          "name": "tokenID",
          "type": "uint256"
        },
        {
          "indexed": false,
          "internalType": "address",
          "name": "lienAddress",
          "type": "address"
        }
      ],
      "name": "LienUpdateProposed",
      "type": "event"
    },
    {
      "anonymous": false,
      "inputs": [
        {
          "indexed": true,
          "internalType": "uint256",
          "name": "tokenID",
          "type": "uint256"
        },
        {
          "indexed": false,
          "internalType": "address",
          "name": "oldLienAddress",
          "type": "address"
        },
        {
          "indexed": false,
          "internalType": "address",
          "name": "newLienAddress",
          "type": "address"
        }
      ],
      "name": "LienUpdated",
      "type": "event"
    },
    {
      "anonymous": false,
      "inputs": [
        {
          "indexed": true,
          "internalType": "address",
          "name": "previousOwner",
          "type": "address"
        },
        {
          "indexed": true,
          "internalType": "address",
          "name": "newOwner",
          "type": "address"
        }
      ],
      "name": "OwnershipTransferred",
      "type": "event"
    },
    {
      "anonymous": false,
      "inputs": [
        {
          "indexed": true,
          "internalType": "address",
          "name": "from",
          "type": "address"
        },
        {
          "indexed": true,
          "internalType": "address",
          "name": "to",
          "type": "address"
        },
        {
          "indexed": true,
          "internalType": "uint256",
          "name": "tokenId",
          "type": "uint256"
        }
      ],
      "name": "Transfer",
      "type": "event"
    },
    {
      "inputs": [
        {
          "internalType": "uint256",
          "name": "id",
          "type": "uint256"
        },
        {
          "internalType": "address",
          "name": "confirmLienAddress",
          "type": "address"
        }
      ],
      "name": "acceptLienUpdate",
      "outputs": [],
      "stateMutability": "nonpayable",
      "type": "function"
    },
    {
      "inputs": [
        {
          "internalType": "address",
          "name": "to",
          "type": "address"
        },
        {
          "internalType": "uint256",
          "name": "tokenId",
          "type": "uint256"
        }
      ],
      "name": "approve",
      "outputs": [],
      "stateMutability": "nonpayable",
      "type": "function"
    },
    {
      "inputs": [
        {
          "internalType": "uint256",
          "name": "id",
          "type": "uint256"
        }
      ],
      "name": "asset",
      "outputs": [
        {
          "internalType": "address",
          "name": "addr",
          "type": "address"
        }
      ],
      "stateMutability": "view",
      "type": "function"
    },
    {
      "inputs": [
        {
          "internalType": "address",
          "name": "owner",
          "type": "address"
        }
      ],
      "name": "balanceOf",
      "outputs": [
        {
          "internalType": "uint256",
          "name": "",
          "type": "uint256"
        }
      ],
      "stateMutability": "view",
      "type": "function"
    },
    {
      "inputs": [
        {
          "internalType": "uint256",
          "name": "tokenId",
          "type": "uint256"
        },
        {
          "internalType": "address",
          "name": "addr",
          "type": "address"
        }
      ],
      "name": "createAgreementHash",
      "outputs": [
        {
          "internalType": "bytes32",
          "name": "",
          "type": "bytes32"
        }
      ],
      "stateMutability": "view",
      "type": "function"
    },
    {
      "inputs": [],
      "name": "currentEscrow",
      "outputs": [
        {
          "internalType": "address",
          "name": "e",
          "type": "address"
        }
      ],
      "stateMutability": "view",
      "type": "function"
    },
    {
      "inputs": [
        {
          "internalType": "uint256",
          "name": "id",
          "type": "uint256"
        }
      ],
      "name": "destroyNFT",
      "outputs": [],
      "stateMutability": "nonpayable",
      "type": "function"
    },
    {
      "inputs": [
        {
          "internalType": "uint256",
          "name": "tokenID",
          "type": "uint256"
        }
      ],
      "name": "getAccount",
      "outputs": [
        {
          "components": [
            {
              "internalType": "uint256",
              "name": "reserve",
              "type": "uint256"
            },
            {
              "internalType": "address",
              "name": "primaryLien",
              "type": "address"
            },
            {
              "internalType": "address",
              "name": "proposedLien",
              "type": "address"
            },
            {
              "internalType": "bool",
              "name": "locked",
              "type": "bool"
            },
            {
              "internalType": "string",
              "name": "tokenURI",
              "type": "string"
            },
            {
              "internalType": "string",
              "name": "_leaseHash",
              "type": "string"
            },
            {
              "internalType": "string",
              "name": "_sigMessage",
              "type": "string"
            }
          ],
          "internalType": "struct ZyftyNFT.Account",
          "name": "",
          "type": "tuple"
        }
      ],
      "stateMutability": "view",
      "type": "function"
    },
    {
      "inputs": [
        {
          "internalType": "uint256",
          "name": "tokenId",
          "type": "uint256"
        }
      ],
      "name": "getApproved",
      "outputs": [
        {
          "internalType": "address",
          "name": "",
          "type": "address"
        }
      ],
      "stateMutability": "view",
      "type": "function"
    },
    {
      "inputs": [
        {
          "internalType": "uint256",
          "name": "id",
          "type": "uint256"
        }
      ],
      "name": "getReserve",
      "outputs": [
        {
          "internalType": "uint256",
          "name": "reserve",
          "type": "uint256"
        }
      ],
      "stateMutability": "view",
      "type": "function"
    },
    {
      "inputs": [
        {
          "internalType": "uint256",
          "name": "tokenID",
          "type": "uint256"
        },
        {
          "internalType": "uint256",
          "name": "amount",
          "type": "uint256"
        }
      ],
      "name": "increaseReserve",
      "outputs": [],
      "stateMutability": "nonpayable",
      "type": "function"
    },
    {
      "inputs": [
        {
          "internalType": "address",
          "name": "owner",
          "type": "address"
        },
        {
          "internalType": "address",
          "name": "operator",
          "type": "address"
        }
      ],
      "name": "isApprovedForAll",
      "outputs": [
        {
          "internalType": "bool",
          "name": "",
          "type": "bool"
        }
      ],
      "stateMutability": "view",
      "type": "function"
    },
    {
      "inputs": [
        {
          "internalType": "uint256",
          "name": "tokenID",
          "type": "uint256"
        }
      ],
      "name": "leaseHash",
      "outputs": [
        {
          "internalType": "string",
          "name": "",
          "type": "string"
        }
      ],
      "stateMutability": "view",
      "type": "function"
    },
    {
      "inputs": [
        {
          "internalType": "uint256",
          "name": "tokenID",
          "type": "uint256"
        }
      ],
      "name": "lien",
      "outputs": [
        {
          "internalType": "address",
          "name": "",
          "type": "address"
        }
      ],
      "stateMutability": "view",
      "type": "function"
    },
    {
      "inputs": [
        {
          "internalType": "uint256",
          "name": "id",
          "type": "uint256"
        }
      ],
      "name": "lockNFT",
      "outputs": [],
      "stateMutability": "nonpayable",
      "type": "function"
    },
    {
      "inputs": [
        {
          "internalType": "address",
          "name": "recipient",
          "type": "address"
        },
        {
          "internalType": "string",
          "name": "meta_data_uri",
          "type": "string"
        },
        {
          "internalType": "address",
          "name": "_primaryLien",
          "type": "address"
        },
        {
          "internalType": "string",
          "name": "lease_hash",
          "type": "string"
        },
        {
          "internalType": "string",
          "name": "signMessage",
          "type": "string"
        }
      ],
      "name": "mint",
      "outputs": [
        {
          "internalType": "uint256",
          "name": "",
          "type": "uint256"
        }
      ],
      "stateMutability": "nonpayable",
      "type": "function"
    },
    {
      "inputs": [],
      "name": "name",
      "outputs": [
        {
          "internalType": "string",
          "name": "",
          "type": "string"
        }
      ],
      "stateMutability": "view",
      "type": "function"
    },
    {
      "inputs": [],
      "name": "owner",
      "outputs": [
        {
          "internalType": "address",
          "name": "",
          "type": "address"
        }
      ],
      "stateMutability": "view",
      "type": "function"
    },
    {
      "inputs": [
        {
          "internalType": "uint256",
          "name": "tokenId",
          "type": "uint256"
        }
      ],
      "name": "ownerOf",
      "outputs": [
        {
          "internalType": "address",
          "name": "",
          "type": "address"
        }
      ],
      "stateMutability": "view",
      "type": "function"
    },
    {
      "inputs": [
        {
          "internalType": "uint256",
          "name": "tokenID",
          "type": "uint256"
        },
        {
          "internalType": "uint256",
          "name": "amount",
          "type": "uint256"
        }
      ],
      "name": "payLien",
      "outputs": [
        {
          "internalType": "uint256",
          "name": "",
          "type": "uint256"
        }
      ],
      "stateMutability": "nonpayable",
      "type": "function"
    },
    {
      "inputs": [
        {
          "internalType": "uint256",
          "name": "tokenID",
          "type": "uint256"
        }
      ],
      "name": "payLienFull",
      "outputs": [
        {
          "internalType": "uint256",
          "name": "",
          "type": "uint256"
        }
      ],
      "stateMutability": "nonpayable",
      "type": "function"
    },
    {
      "inputs": [
        {
          "internalType": "uint256",
          "name": "tokenID",
          "type": "uint256"
        },
        {
          "internalType": "address",
          "name": "newLienAddress",
          "type": "address"
        }
      ],
      "name": "proposeLienUpdate",
      "outputs": [],
      "stateMutability": "nonpayable",
      "type": "function"
    },
    {
      "inputs": [
        {
          "internalType": "uint256",
          "name": "tokenID",
          "type": "uint256"
        },
        {
          "internalType": "uint256",
          "name": "amount",
          "type": "uint256"
        }
      ],
      "name": "redeemReserve",
      "outputs": [],
      "stateMutability": "nonpayable",
      "type": "function"
    },
    {
      "inputs": [],
      "name": "renounceOwnership",
      "outputs": [],
      "stateMutability": "nonpayable",
      "type": "function"
    },
    {
      "inputs": [
        {
          "internalType": "address",
          "name": "from",
          "type": "address"
        },
        {
          "internalType": "address",
          "name": "to",
          "type": "address"
        },
        {
          "internalType": "uint256",
          "name": "tokenId",
          "type": "uint256"
        }
      ],
      "name": "safeTransferFrom",
      "outputs": [],
      "stateMutability": "nonpayable",
      "type": "function"
    },
    {
      "inputs": [
        {
          "internalType": "address",
          "name": "from",
          "type": "address"
        },
        {
          "internalType": "address",
          "name": "to",
          "type": "address"
        },
        {
          "internalType": "uint256",
          "name": "tokenId",
          "type": "uint256"
        },
        {
          "internalType": "bytes",
          "name": "_data",
          "type": "bytes"
        }
      ],
      "name": "safeTransferFrom",
      "outputs": [],
      "stateMutability": "nonpayable",
      "type": "function"
    },
    {
      "inputs": [
        {
          "internalType": "address",
          "name": "operator",
          "type": "address"
        },
        {
          "internalType": "bool",
          "name": "approved",
          "type": "bool"
        }
      ],
      "name": "setApprovalForAll",
      "outputs": [],
      "stateMutability": "nonpayable",
      "type": "function"
    },
    {
      "inputs": [
        {
          "internalType": "uint256",
          "name": "tokenId",
          "type": "uint256"
        },
        {
          "internalType": "string",
          "name": "newMessage",
          "type": "string"
        }
      ],
      "name": "setSignMessage",
      "outputs": [],
      "stateMutability": "nonpayable",
      "type": "function"
    },
    {
      "inputs": [
        {
          "internalType": "bytes4",
          "name": "interfaceId",
          "type": "bytes4"
        }
      ],
      "name": "supportsInterface",
      "outputs": [
        {
          "internalType": "bool",
          "name": "",
          "type": "bool"
        }
      ],
      "stateMutability": "view",
      "type": "function"
    },
    {
      "inputs": [],
      "name": "symbol",
      "outputs": [
        {
          "internalType": "string",
          "name": "",
          "type": "string"
        }
      ],
      "stateMutability": "view",
      "type": "function"
    },
    {
      "inputs": [
        {
          "internalType": "uint256",
          "name": "id",
          "type": "uint256"
        }
      ],
      "name": "tokenURI",
      "outputs": [
        {
          "internalType": "string",
          "name": "",
          "type": "string"
        }
      ],
      "stateMutability": "view",
      "type": "function"
    },
    {
      "inputs": [
        {
          "internalType": "address",
          "name": "from",
          "type": "address"
        },
        {
          "internalType": "address",
          "name": "to",
          "type": "address"
        },
        {
          "internalType": "uint256",
          "name": "tokenId",
          "type": "uint256"
        }
      ],
      "name": "transferFrom",
      "outputs": [],
      "stateMutability": "nonpayable",
      "type": "function"
    },
    {
      "inputs": [
        {
          "internalType": "address",
          "name": "newOwner",
          "type": "address"
        }
      ],
      "name": "transferOwnership",
      "outputs": [],
      "stateMutability": "nonpayable",
      "type": "function"
    },
    {
      "inputs": [
        {
          "internalType": "uint256",
          "name": "id",
          "type": "uint256"
        }
      ],
      "name": "unlockNFT",
      "outputs": [],
      "stateMutability": "nonpayable",
      "type": "function"
    },
    {
      "inputs": [
        {
          "internalType": "address",
          "name": "_escrow",
          "type": "address"
        }
      ],
      "name": "updateEscrow",
      "outputs": [],
      "stateMutability": "nonpayable",
      "type": "function"
    }
  ],
  "bytecode": "0x60806040523480156200001157600080fd5b50604051620030a3380380620030a38339810160408190526200003491620001d5565b6040805180820182526008815267169e599d1e53919560c21b6020808301918252835180850190945260048452631693919560e21b90840152815191929162000080916000916200012f565b508051620000969060019060208401906200012f565b505050620000b3620000ad620000d960201b60201c565b620000dd565b600980546001600160a01b0319166001600160a01b039290921691909117905562000242565b3390565b600680546001600160a01b038381166001600160a01b0319831681179093556040519116919082907f8be0079c531659141344cd1fd0a4f28419497f9722a3daafe3b4186f6b6457e090600090a35050565b8280546200013d9062000205565b90600052602060002090601f016020900481019282620001615760008555620001ac565b82601f106200017c57805160ff1916838001178555620001ac565b82800160010185558215620001ac579182015b82811115620001ac5782518255916020019190600101906200018f565b50620001ba929150620001be565b5090565b5b80821115620001ba5760008155600101620001bf565b600060208284031215620001e7578081fd5b81516001600160a01b0381168114620001fe578182fd5b9392505050565b600181811c908216806200021a57607f821691505b602082108114156200023c57634e487b7160e01b600052602260045260246000fd5b50919050565b612e5180620002526000396000f3fe608060405234801561001057600080fd5b50600436106102115760003560e01c8063715018a611610125578063c40412b5116100ad578063d9ca30f91161007c578063d9ca30f914610482578063e985e9c514610495578063f2fde38b146104d1578063f826276c146104e4578063fa37aa56146104f757600080fd5b8063c40412b514610429578063c87b56dd1461043c578063ce88b1451461044f578063d982beb21461046f57600080fd5b80638ea06f81116100f45780638ea06f81146103d557806395d89b41146103e8578063a22cb465146103f0578063b88d4fde14610403578063bf2b30e01461041657600080fd5b8063715018a61461039657806377778db31461039e5780638b6a101a146103b15780638da5cb5b146103c457600080fd5b806334927e9d116101a8578063506369611161017757806350636961146103375780636352211e1461034a578063641e57791461035d5780636d71be4c1461037057806370a082311461038357600080fd5b806334927e9d146102df5780633a6441e0146102f257806342842e0e1461030357806343349e4a1461031657600080fd5b8063081812fc116101e4578063081812fc14610293578063095ea7b3146102a657806323b872dd146102b95780632b7170d0146102cc57600080fd5b806301ffc9a7146102165780630312ddfb1461023e578063060298711461026957806306fdde031461027e575b600080fd5b6102296102243660046129c2565b61050a565b60405190151581526020015b60405180910390f35b61025161024c3660046129fa565b61055c565b6040516001600160a01b039091168152602001610235565b61027c610277366004612a4e565b6105ab565b005b6102866106f0565b6040516102359190612b3c565b6102516102a13660046129fa565b610782565b61027c6102b436600461297b565b61080a565b61027c6102c73660046127e5565b610920565b61027c6102da3660046129fa565b610951565b61027c6102ed366004612a2a565b61099f565b6009546001600160a01b0316610251565b61027c6103113660046127e5565b610b5a565b6103296103243660046128cf565b610b75565b604051908152602001610235565b6103296103453660046129fa565b610c92565b6102516103583660046129fa565b610d9f565b61028661036b3660046129fa565b610e16565b61027c61037e366004612a93565b610ede565b610329610391366004612775565b610fc0565b61027c611047565b6103296103ac3660046129fa565b61107d565b61027c6103bf366004612775565b6110b7565b6006546001600160a01b0316610251565b6102516103e33660046129fa565b611103565b6102866111b4565b61027c6103fe3660046128a2565b6111c3565b61027c610411366004612825565b6111d2565b61027c610424366004612a93565b611204565b61027c6104373660046129fa565b61133d565b61028661044a3660046129fa565b6113cf565b61046261045d3660046129fa565b6113ef565b6040516102359190612caf565b61027c61047d366004612a2a565b61165b565b610329610490366004612a93565b6118d6565b6102296104a33660046127ad565b6001600160a01b03918216600090815260056020908152604080832093909416825291909152205460ff1690565b61027c6104df366004612775565b611a6e565b61027c6104f23660046129fa565b611b09565b610329610505366004612a2a565b611b51565b60006001600160e01b031982166380ac58cd60e01b148061053b57506001600160e01b03198216635b5e139f60e01b145b8061055657506301ffc9a760e01b6001600160e01b03198316145b92915050565b600061056782611da5565b61058c5760405162461bcd60e51b815260040161058390612c27565b60405180910390fd5b506000908152600860205260409020600101546001600160a01b031690565b60008281526008602052604090206105c283610d9f565b6001600160a01b0316336001600160a01b0316148061066a57506105e58361055c565b6001600160a01b0316639c73cc976040518163ffffffff1660e01b815260040160206040518083038186803b15801561061d57600080fd5b505afa158015610631573d6000803e3d6000fd5b505050506040513d601f19601f820116820180604052508101906106559190612791565b6001600160a01b0316336001600160a01b0316145b6106d55760405162461bcd60e51b815260206004820152603660248201527f596f7520646f206e6f7420686176652061636365737320746f206368616e6765604482015275207468652061677265656d656e74206d65737361676560501b6064820152608401610583565b81516106ea906005830190602085019061260a565b50505050565b6060600080546106ff90612d7b565b80601f016020809104026020016040519081016040528092919081815260200182805461072b90612d7b565b80156107785780601f1061074d57610100808354040283529160200191610778565b820191906000526020600020905b81548152906001019060200180831161075b57829003601f168201915b5050505050905090565b600061078d82611da5565b6107ee5760405162461bcd60e51b815260206004820152602c60248201527f4552433732313a20617070726f76656420717565727920666f72206e6f6e657860448201526b34b9ba32b73a103a37b5b2b760a11b6064820152608401610583565b506000908152600460205260409020546001600160a01b031690565b600061081582610d9f565b9050806001600160a01b0316836001600160a01b031614156108835760405162461bcd60e51b815260206004820152602160248201527f4552433732313a20617070726f76616c20746f2063757272656e74206f776e656044820152603960f91b6064820152608401610583565b336001600160a01b038216148061089f575061089f81336104a3565b6109115760405162461bcd60e51b815260206004820152603860248201527f4552433732313a20617070726f76652063616c6c6572206973206e6f74206f7760448201527f6e6572206e6f7220617070726f76656420666f7220616c6c00000000000000006064820152608401610583565b61091b8383611dc2565b505050565b61092a3382611e30565b6109465760405162461bcd60e51b815260040161058390612c5e565b61091b838383611f16565b6006546001600160a01b0316331461097b5760405162461bcd60e51b815260040161058390612bf2565b6000908152600860205260409020600201805460ff60a01b1916600160a01b179055565b600082815260086020526040902060028101546001600160a01b03166109fa5760405162461bcd60e51b815260206004820152601060248201526f139bc81b1a595b881c1c9bdc1bdcd95960821b6044820152606401610583565b60028101546001600160a01b03838116911614610a6f5760405162461bcd60e51b815260206004820152602d60248201527f4c69656e2061646472657373206163636570746564206973206e6f742074686560448201526c081bdb99481c1c9bdc1bdcd959609a1b6064820152608401610583565b81610a7984610d9f565b6001600160a01b0316336001600160a01b031614610ae55760405162461bcd60e51b815260206004820152602360248201527f4f6e6c7920746865206f776e65722063616e206163636570742074686973206c60448201526234b2b760e91b6064820152608401610583565b6001820180546001600160a01b038581166001600160a01b031980841682179094556002860180549094169093556040805191909216808252602082019390935286917fa326b35970f2767ac2a5f0f0c389f1e951222af2a63529cd431089ec7e689be0910160405180910390a25050505050565b61091b838383604051806020016040528060008152506111d2565b6000610b85600780546001019055565b6000610b9060075490565b9050610b9c87826120bd565b6040805160e08101825260008082526001600160a01b03808916602080850191825284860184815260608601858152608087018e815260a088018d905260c088018c905289875260088452979095208651815592516001840180549186166001600160a01b03199092169190911790555160028301805495511515600160a01b026001600160a81b031990961691909416179390931790915592518051929392610c4c926003850192019061260a565b5060a08201518051610c6891600484019160209091019061260a565b5060c08201518051610c8491600584019160209091019061260a565b509198975050505050505050565b6000610c9d82610d9f565b6001600160a01b0316336001600160a01b031614610d095760405162461bcd60e51b815260206004820152602360248201527f596f75206d75737420626520746865206f776e6572206f722074686520657363604482015262726f7760e81b6064820152608401610583565b6000610d148361055c565b90506000816001600160a01b031663b69ef8a86040518163ffffffff1660e01b8152600401602060405180830381600087803b158015610d5357600080fd5b505af1158015610d67573d6000803e3d6000fd5b505050506040513d601f19601f82011682018060405250810190610d8b9190612a12565b9050610d9784826118d6565b949350505050565b6000818152600260205260408120546001600160a01b0316806105565760405162461bcd60e51b815260206004820152602960248201527f4552433732313a206f776e657220717565727920666f72206e6f6e657869737460448201526832b73a103a37b5b2b760b91b6064820152608401610583565b6060610e2182611da5565b610e3d5760405162461bcd60e51b815260040161058390612c27565b60008281526008602052604090206004018054610e5990612d7b565b80601f0160208091040260200160405190810160405280929190818152602001828054610e8590612d7b565b8015610ed25780601f10610ea757610100808354040283529160200191610ed2565b820191906000526020600020905b815481529060010190602001808311610eb557829003601f168201915b50505050509050919050565b610ee782611da5565b610f035760405162461bcd60e51b815260040161058390612c27565b6000610f0e83611103565b6040516323b872dd60e01b8152336004820152306024820152604481018490529091506001600160a01b038216906323b872dd90606401602060405180830381600087803b158015610f5f57600080fd5b505af1158015610f73573d6000803e3d6000fd5b505050506040513d601f19601f82011682018060405250810190610f9791906129a6565b5060008381526008602052604081208054849290610fb6908490612d4c565b9091555050505050565b60006001600160a01b03821661102b5760405162461bcd60e51b815260206004820152602a60248201527f4552433732313a2062616c616e636520717565727920666f7220746865207a65604482015269726f206164647265737360b01b6064820152608401610583565b506001600160a01b031660009081526003602052604090205490565b6006546001600160a01b031633146110715760405162461bcd60e51b815260040161058390612bf2565b61107b60006121fc565b565b600061108882611da5565b6110a45760405162461bcd60e51b815260040161058390612c27565b5060009081526008602052604090205490565b6006546001600160a01b031633146110e15760405162461bcd60e51b815260040161058390612bf2565b600980546001600160a01b0319166001600160a01b0392909216919091179055565b600061110e82611da5565b61112a5760405162461bcd60e51b815260040161058390612c27565b6000828152600860209081526040918290206001015482516338d52e0f60e01b815292516001600160a01b03909116926338d52e0f926004808301939192829003018186803b15801561117c57600080fd5b505afa158015611190573d6000803e3d6000fd5b505050506040513d601f19601f820116820180604052508101906105569190612791565b6060600180546106ff90612d7b565b6111ce33838361224e565b5050565b6111dc3383611e30565b6111f85760405162461bcd60e51b815260040161058390612c5e565b6106ea8484848461231d565b61120d82611da5565b6112295760405162461bcd60e51b815260040161058390612c27565b3361123383610d9f565b6001600160a01b0316146112815760405162461bcd60e51b81526020600482015260156024820152742cb7ba9030b932903737ba103a34329037bbb732b960591b6044820152606401610583565b6000828152600860205260409020805482111561129d57805491505b6112a683611103565b60405163a9059cbb60e01b8152336004820152602481018490526001600160a01b03919091169063a9059cbb90604401602060405180830381600087803b1580156112f057600080fd5b505af1158015611304573d6000803e3d6000fd5b505050506040513d601f19601f8201168201806040525081019061132891906129a6565b5081816000016000828254610fb69190612d64565b6006546001600160a01b031633146113675760405162461bcd60e51b815260040161058390612bf2565b61137081612350565b60008181526008602052604081208181556001810180546001600160a01b03191690556002810180546001600160a81b0319169055906113b3600383018261268e565b6113c160048301600061268e565b61091b60058301600061268e565b6000818152600860205260409020600301805460609190610e5990612d7b565b6114436040518060e001604052806000815260200160006001600160a01b0316815260200160006001600160a01b031681526020016000151581526020016060815260200160608152602001606081525090565b600082815260086020908152604091829020825160e0810184528154815260018201546001600160a01b0390811693820193909352600282015492831693810193909352600160a01b90910460ff16151560608301526003810180546080840191906114ae90612d7b565b80601f01602080910402602001604051908101604052809291908181526020018280546114da90612d7b565b80156115275780601f106114fc57610100808354040283529160200191611527565b820191906000526020600020905b81548152906001019060200180831161150a57829003601f168201915b5050505050815260200160048201805461154090612d7b565b80601f016020809104026020016040519081016040528092919081815260200182805461156c90612d7b565b80156115b95780601f1061158e576101008083540402835291602001916115b9565b820191906000526020600020905b81548152906001019060200180831161159c57829003601f168201915b505050505081526020016005820180546115d290612d7b565b80601f01602080910402602001604051908101604052809291908181526020018280546115fe90612d7b565b801561164b5780601f106116205761010080835404028352916020019161164b565b820191906000526020600020905b81548152906001019060200180831161162e57829003601f168201915b5050505050815250509050919050565b61166482611da5565b6116805760405162461bcd60e51b815260040161058390612c27565b60008281526008602090815260409182902060018101548351639c73cc9760e01b81529351919333936001600160a01b0390921692639c73cc9792600480840193919291829003018186803b1580156116d857600080fd5b505afa1580156116ec573d6000803e3d6000fd5b505050506040513d601f19601f820116820180604052508101906117109190612791565b6001600160a01b0316146117705760405162461bcd60e51b815260206004820152602160248201527f596f7520617265206e6f7420746865206f6c64206c69656e2070726f766964656044820152603960f91b6064820152608401610583565b8161177a84611103565b6001600160a01b0316816001600160a01b03166338d52e0f6040518163ffffffff1660e01b815260040160206040518083038186803b1580156117bc57600080fd5b505afa1580156117d0573d6000803e3d6000fd5b505050506040513d601f19601f820116820180604052508101906117f49190612791565b6001600160a01b03161461187b5760405162461bcd60e51b815260206004820152604260248201527f5468652061737365742074797065206f662074686973206c69656e206d75737460448201527f206265207468652061737365742074797065206f662074686520636f6e74726160648201526118dd60f21b608482015260a401610583565b6002820180546001600160a01b0319166001600160a01b03851690811790915560405190815284907feb95260b0443f4ad8d4614d070d8a18fcfc094a612187c79088bdb4cf92065729060200160405180910390a250505050565b60006118e183611da5565b6118fd5760405162461bcd60e51b815260040161058390612c27565b60006119088461055c565b60008581526008602052604090208054919250829185111561192957805494505b61193286611103565b60405163095ea7b360e01b81526001600160a01b03858116600483015260248201889052919091169063095ea7b390604401602060405180830381600087803b15801561197e57600080fd5b505af1158015611992573d6000803e3d6000fd5b505050506040513d601f19601f820116820180604052508101906119b691906129a6565b5060405163c290d69160e01b8152600481018690526000906001600160a01b0384169063c290d69190602401602060405180830381600087803b1580156119fc57600080fd5b505af1158015611a10573d6000803e3d6000fd5b505050506040513d601f19601f82011682018060405250810190611a349190612a12565b9050611a408187612d64565b826000016000828254611a539190612d64565b90915550611a6390508187612d64565b979650505050505050565b6006546001600160a01b03163314611a985760405162461bcd60e51b815260040161058390612bf2565b6001600160a01b038116611afd5760405162461bcd60e51b815260206004820152602660248201527f4f776e61626c653a206e6577206f776e657220697320746865207a65726f206160448201526564647265737360d01b6064820152608401610583565b611b06816121fc565b50565b6006546001600160a01b03163314611b335760405162461bcd60e51b815260040161058390612bf2565b6000908152600860205260409020600201805460ff60a01b19169055565b6000828152600860209081526040808320815160e0810183528154815260018201546001600160a01b0390811694820194909452600282015493841692810192909252600160a01b90920460ff16151560608201526003820180548493916080840191611bbd90612d7b565b80601f0160208091040260200160405190810160405280929190818152602001828054611be990612d7b565b8015611c365780601f10611c0b57610100808354040283529160200191611c36565b820191906000526020600020905b815481529060010190602001808311611c1957829003601f168201915b50505050508152602001600482018054611c4f90612d7b565b80601f0160208091040260200160405190810160405280929190818152602001828054611c7b90612d7b565b8015611cc85780601f10611c9d57610100808354040283529160200191611cc8565b820191906000526020600020905b815481529060010190602001808311611cab57829003601f168201915b50505050508152602001600582018054611ce190612d7b565b80601f0160208091040260200160405190810160405280929190818152602001828054611d0d90612d7b565b8015611d5a5780601f10611d2f57610100808354040283529160200191611d5a565b820191906000526020600020905b815481529060010190602001808311611d3d57829003601f168201915b50505050508152505090508060c00151838260a001518630604051602001611d86959493929190612b4f565b6040516020818303038152906040528051906020012091505092915050565b6000908152600260205260409020546001600160a01b0316151590565b600081815260046020526040902080546001600160a01b0319166001600160a01b0384169081179091558190611df782610d9f565b6001600160a01b03167f8c5be1e5ebec7d5bd14f71427d1e84f3dd0314c0f7b2291e5b200ac8c7c3b92560405160405180910390a45050565b6000611e3b82611da5565b611e9c5760405162461bcd60e51b815260206004820152602c60248201527f4552433732313a206f70657261746f7220717565727920666f72206e6f6e657860448201526b34b9ba32b73a103a37b5b2b760a11b6064820152608401610583565b6000611ea783610d9f565b9050806001600160a01b0316846001600160a01b03161480611ee25750836001600160a01b0316611ed784610782565b6001600160a01b0316145b80610d9757506001600160a01b0380821660009081526005602090815260408083209388168352929052205460ff16610d97565b826001600160a01b0316611f2982610d9f565b6001600160a01b031614611f8d5760405162461bcd60e51b815260206004820152602560248201527f4552433732313a207472616e736665722066726f6d20696e636f72726563742060448201526437bbb732b960d91b6064820152608401610583565b6001600160a01b038216611fef5760405162461bcd60e51b8152602060048201526024808201527f4552433732313a207472616e7366657220746f20746865207a65726f206164646044820152637265737360e01b6064820152608401610583565b611ffa8383836123f7565b612005600082611dc2565b6001600160a01b038316600090815260036020526040812080546001929061202e908490612d64565b90915550506001600160a01b038216600090815260036020526040812080546001929061205c908490612d4c565b909155505060008181526002602052604080822080546001600160a01b0319166001600160a01b0386811691821790925591518493918716917fddf252ad1be2c89b69c2b068fc378daa952ba7f163c4a11628f55a4df523b3ef91a4505050565b6001600160a01b0382166121135760405162461bcd60e51b815260206004820181905260248201527f4552433732313a206d696e7420746f20746865207a65726f20616464726573736044820152606401610583565b61211c81611da5565b156121695760405162461bcd60e51b815260206004820152601c60248201527f4552433732313a20746f6b656e20616c7265616479206d696e746564000000006044820152606401610583565b612175600083836123f7565b6001600160a01b038216600090815260036020526040812080546001929061219e908490612d4c565b909155505060008181526002602052604080822080546001600160a01b0319166001600160a01b03861690811790915590518392907fddf252ad1be2c89b69c2b068fc378daa952ba7f163c4a11628f55a4df523b3ef908290a45050565b600680546001600160a01b038381166001600160a01b0319831681179093556040519116919082907f8be0079c531659141344cd1fd0a4f28419497f9722a3daafe3b4186f6b6457e090600090a35050565b816001600160a01b0316836001600160a01b031614156122b05760405162461bcd60e51b815260206004820152601960248201527f4552433732313a20617070726f766520746f2063616c6c6572000000000000006044820152606401610583565b6001600160a01b03838116600081815260056020908152604080832094871680845294825291829020805460ff191686151590811790915591519182527f17307eab39ab6107e8899845ad3d59bd9653f200f220920489ca2b5937696c31910160405180910390a3505050565b612328848484611f16565b612334848484846124fd565b6106ea5760405162461bcd60e51b815260040161058390612ba0565b600061235b82610d9f565b9050612369816000846123f7565b612374600083611dc2565b6001600160a01b038116600090815260036020526040812080546001929061239d908490612d64565b909155505060008281526002602052604080822080546001600160a01b0319169055518391906001600160a01b038416907fddf252ad1be2c89b69c2b068fc378daa952ba7f163c4a11628f55a4df523b3ef908390a45050565b6001600160a01b038316158061241457506001600160a01b038216155b8061242c57506009546001600160a01b038481169116145b8061244457506009546001600160a01b038381169116145b6124a45760405162461bcd60e51b815260206004820152602b60248201527f546f6b656e206d75737420626520706173736564207468726f7567682053616c60448201526a195cc810dbdb9d1c9858dd60aa1b6064820152608401610583565b600081815260086020526040902060020154600160a01b900460ff161561091b5760405162461bcd60e51b815260206004820152600d60248201526c139195081a5cc81b1bd8dad959609a1b6044820152606401610583565b60006001600160a01b0384163b156125ff57604051630a85bd0160e11b81526001600160a01b0385169063150b7a0290612541903390899088908890600401612aff565b602060405180830381600087803b15801561255b57600080fd5b505af192505050801561258b575060408051601f3d908101601f19168201909252612588918101906129de565b60015b6125e5573d8080156125b9576040519150601f19603f3d011682016040523d82523d6000602084013e6125be565b606091505b5080516125dd5760405162461bcd60e51b815260040161058390612ba0565b805181602001fd5b6001600160e01b031916630a85bd0160e11b149050610d97565b506001949350505050565b82805461261690612d7b565b90600052602060002090601f016020900481019282612638576000855561267e565b82601f1061265157805160ff191683800117855561267e565b8280016001018555821561267e579182015b8281111561267e578251825591602001919060010190612663565b5061268a9291506126c4565b5090565b50805461269a90612d7b565b6000825580601f106126aa575050565b601f016020900490600052602060002090810190611b0691905b5b8082111561268a57600081556001016126c5565b600067ffffffffffffffff808411156126f4576126f4612dcc565b604051601f8501601f19908116603f0116810190828211818310171561271c5761271c612dcc565b8160405280935085815286868601111561273557600080fd5b858560208301376000602087830101525050509392505050565b600082601f83011261275f578081fd5b61276e838335602085016126d9565b9392505050565b600060208284031215612786578081fd5b813561276e81612de2565b6000602082840312156127a2578081fd5b815161276e81612de2565b600080604083850312156127bf578081fd5b82356127ca81612de2565b915060208301356127da81612de2565b809150509250929050565b6000806000606084860312156127f9578081fd5b833561280481612de2565b9250602084013561281481612de2565b929592945050506040919091013590565b6000806000806080858703121561283a578081fd5b843561284581612de2565b9350602085013561285581612de2565b925060408501359150606085013567ffffffffffffffff811115612877578182fd5b8501601f81018713612887578182fd5b612896878235602084016126d9565b91505092959194509250565b600080604083850312156128b4578182fd5b82356128bf81612de2565b915060208301356127da81612df7565b600080600080600060a086880312156128e6578081fd5b85356128f181612de2565b9450602086013567ffffffffffffffff8082111561290d578283fd5b61291989838a0161274f565b95506040880135915061292b82612de2565b90935060608701359080821115612940578283fd5b61294c89838a0161274f565b93506080880135915080821115612961578283fd5b5061296e8882890161274f565b9150509295509295909350565b6000806040838503121561298d578182fd5b823561299881612de2565b946020939093013593505050565b6000602082840312156129b7578081fd5b815161276e81612df7565b6000602082840312156129d3578081fd5b813561276e81612e05565b6000602082840312156129ef578081fd5b815161276e81612e05565b600060208284031215612a0b578081fd5b5035919050565b600060208284031215612a23578081fd5b5051919050565b60008060408385031215612a3c578182fd5b8235915060208301356127da81612de2565b60008060408385031215612a60578182fd5b82359150602083013567ffffffffffffffff811115612a7d578182fd5b612a898582860161274f565b9150509250929050565b60008060408385031215612aa5578182fd5b50508035926020909101359150565b60008151808452815b81811015612ad957602081850181015186830182015201612abd565b81811115612aea5782602083870101525b50601f01601f19169290920160200192915050565b6001600160a01b0385811682528416602082015260408101839052608060608201819052600090612b3290830184612ab4565b9695505050505050565b60208152600061276e6020830184612ab4565b60a081526000612b6260a0830188612ab4565b6001600160a01b0387811660208501528382036040850152612b848288612ab4565b9250856060850152808516608085015250509695505050505050565b60208082526032908201527f4552433732313a207472616e7366657220746f206e6f6e20455243373231526560408201527131b2b4bb32b91034b6b83632b6b2b73a32b960711b606082015260800190565b6020808252818101527f4f776e61626c653a2063616c6c6572206973206e6f7420746865206f776e6572604082015260600190565b60208082526019908201527f5468697320546f6b656e20646f6573206e6f7420657869737400000000000000604082015260600190565b60208082526031908201527f4552433732313a207472616e736665722063616c6c6572206973206e6f74206f6040820152701ddb995c881b9bdc88185c1c1c9bdd9959607a1b606082015260800190565b60208082528251828201528201516001600160a01b0390811660408084019190915283015116606080830191909152820151801515608083015260009050608083015160e060a0840152612d07610100840182612ab4565b905060a0840151601f19808584030160c0860152612d258383612ab4565b925060c08601519150808584030160e086015250612d438282612ab4565b95945050505050565b60008219821115612d5f57612d5f612db6565b500190565b600082821015612d7657612d76612db6565b500390565b600181811c90821680612d8f57607f821691505b60208210811415612db057634e487b7160e01b600052602260045260246000fd5b50919050565b634e487b7160e01b600052601160045260246000fd5b634e487b7160e01b600052604160045260246000fd5b6001600160a01b0381168114611b0657600080fd5b8015158114611b0657600080fd5b6001600160e01b031981168114611b0657600080fdfea2646970667358221220b8064a486e071085a32d33f714d6675cbff0788d8a9cb8c42a2497f5bc521ef164736f6c63430008040033",
  "linkReferences": {},
  "deployedLinkReferences": {}
}