{
  "_format": "hh-sol-artifact-1",
  "contractName": "ZyftyNFT",
  "sourceName": "contracts/ZyftyNFT.sol",
  "abi": [
    {
      "inputs": [
        {
          "internalType": "address",
          "name": "_escrow",
          "type": "address"
        }
      ],
      "stateMutability": "nonpayable",
      "type": "constructor"
    },
    {
      "anonymous": false,
      "inputs": [
        {
          "indexed": true,
          "internalType": "address",
          "name": "owner",
          "type": "address"
        },
        {
          "indexed": true,
          "internalType": "address",
          "name": "approved",
          "type": "address"
        },
        {
          "indexed": true,
          "internalType": "uint256",
          "name": "tokenId",
          "type": "uint256"
        }
      ],
      "name": "Approval",
      "type": "event"
    },
    {
      "anonymous": false,
      "inputs": [
        {
          "indexed": true,
          "internalType": "address",
          "name": "owner",
          "type": "address"
        },
        {
          "indexed": true,
          "internalType": "address",
          "name": "operator",
          "type": "address"
        },
        {
          "indexed": false,
          "internalType": "bool",
          "name": "approved",
          "type": "bool"
        }
      ],
      "name": "ApprovalForAll",
      "type": "event"
    },
    {
      "anonymous": false,
      "inputs": [
        {
          "indexed": true,
          "internalType": "uint256",
          "name": "tokenID",
          "type": "uint256"
        },
        {
          "indexed": false,
          "internalType": "address",
          "name": "lienAddress",
          "type": "address"
        }
      ],
      "name": "LienUpdateProposed",
      "type": "event"
    },
    {
      "anonymous": false,
      "inputs": [
        {
          "indexed": true,
          "internalType": "uint256",
          "name": "tokenID",
          "type": "uint256"
        },
        {
          "indexed": false,
          "internalType": "address",
          "name": "oldLienAddress",
          "type": "address"
        },
        {
          "indexed": false,
          "internalType": "address",
          "name": "newLienAddress",
          "type": "address"
        }
      ],
      "name": "LienUpdated",
      "type": "event"
    },
    {
      "anonymous": false,
      "inputs": [
        {
          "indexed": true,
          "internalType": "address",
          "name": "previousOwner",
          "type": "address"
        },
        {
          "indexed": true,
          "internalType": "address",
          "name": "newOwner",
          "type": "address"
        }
      ],
      "name": "OwnershipTransferred",
      "type": "event"
    },
    {
      "anonymous": false,
      "inputs": [
        {
          "indexed": true,
          "internalType": "address",
          "name": "from",
          "type": "address"
        },
        {
          "indexed": true,
          "internalType": "address",
          "name": "to",
          "type": "address"
        },
        {
          "indexed": true,
          "internalType": "uint256",
          "name": "tokenId",
          "type": "uint256"
        }
      ],
      "name": "Transfer",
      "type": "event"
    },
    {
      "inputs": [
        {
          "internalType": "uint256",
          "name": "id",
          "type": "uint256"
        },
        {
          "internalType": "address",
          "name": "confirmLienAddress",
          "type": "address"
        }
      ],
      "name": "acceptLienUpdate",
      "outputs": [],
      "stateMutability": "nonpayable",
      "type": "function"
    },
    {
      "inputs": [
        {
          "internalType": "address",
          "name": "to",
          "type": "address"
        },
        {
          "internalType": "uint256",
          "name": "tokenId",
          "type": "uint256"
        }
      ],
      "name": "approve",
      "outputs": [],
      "stateMutability": "nonpayable",
      "type": "function"
    },
    {
      "inputs": [
        {
          "internalType": "uint256",
          "name": "id",
          "type": "uint256"
        }
      ],
      "name": "asset",
      "outputs": [
        {
          "internalType": "address",
          "name": "addr",
          "type": "address"
        }
      ],
      "stateMutability": "view",
      "type": "function"
    },
    {
      "inputs": [
        {
          "internalType": "address",
          "name": "owner",
          "type": "address"
        }
      ],
      "name": "balanceOf",
      "outputs": [
        {
          "internalType": "uint256",
          "name": "",
          "type": "uint256"
        }
      ],
      "stateMutability": "view",
      "type": "function"
    },
    {
      "inputs": [
        {
          "internalType": "uint256",
          "name": "tokenId",
          "type": "uint256"
        },
        {
          "internalType": "address",
          "name": "addr",
          "type": "address"
        }
      ],
      "name": "createAgreementHash",
      "outputs": [
        {
          "internalType": "bytes32",
          "name": "",
          "type": "bytes32"
        }
      ],
      "stateMutability": "view",
      "type": "function"
    },
    {
      "inputs": [],
      "name": "currentEscrow",
      "outputs": [
        {
          "internalType": "address",
          "name": "e",
          "type": "address"
        }
      ],
      "stateMutability": "view",
      "type": "function"
    },
    {
      "inputs": [
        {
          "internalType": "uint256",
          "name": "id",
          "type": "uint256"
        }
      ],
      "name": "destroyNFT",
      "outputs": [],
      "stateMutability": "nonpayable",
      "type": "function"
    },
    {
      "inputs": [
        {
          "internalType": "uint256",
          "name": "tokenID",
          "type": "uint256"
        }
      ],
      "name": "getAccount",
      "outputs": [
        {
          "components": [
            {
              "internalType": "uint256",
              "name": "reserve",
              "type": "uint256"
            },
            {
              "internalType": "address",
              "name": "primaryLien",
              "type": "address"
            },
            {
              "internalType": "address",
              "name": "proposedLien",
              "type": "address"
            },
            {
              "internalType": "bool",
              "name": "locked",
              "type": "bool"
            },
            {
              "internalType": "string",
              "name": "tokenURI",
              "type": "string"
            },
            {
              "internalType": "string",
              "name": "_leaseHash",
              "type": "string"
            },
            {
              "internalType": "string",
              "name": "_sigMessage",
              "type": "string"
            }
          ],
          "internalType": "struct ZyftyNFT.Account",
          "name": "",
          "type": "tuple"
        }
      ],
      "stateMutability": "view",
      "type": "function"
    },
    {
      "inputs": [
        {
          "internalType": "uint256",
          "name": "tokenId",
          "type": "uint256"
        }
      ],
      "name": "getApproved",
      "outputs": [
        {
          "internalType": "address",
          "name": "",
          "type": "address"
        }
      ],
      "stateMutability": "view",
      "type": "function"
    },
    {
      "inputs": [
        {
          "internalType": "uint256",
          "name": "id",
          "type": "uint256"
        }
      ],
      "name": "getReserve",
      "outputs": [
        {
          "internalType": "uint256",
          "name": "reserve",
          "type": "uint256"
        }
      ],
      "stateMutability": "view",
      "type": "function"
    },
    {
      "inputs": [
        {
          "internalType": "uint256",
          "name": "tokenID",
          "type": "uint256"
        },
        {
          "internalType": "uint256",
          "name": "amount",
          "type": "uint256"
        }
      ],
      "name": "increaseReserve",
      "outputs": [],
      "stateMutability": "nonpayable",
      "type": "function"
    },
    {
      "inputs": [
        {
          "internalType": "address",
          "name": "owner",
          "type": "address"
        },
        {
          "internalType": "address",
          "name": "operator",
          "type": "address"
        }
      ],
      "name": "isApprovedForAll",
      "outputs": [
        {
          "internalType": "bool",
          "name": "",
          "type": "bool"
        }
      ],
      "stateMutability": "view",
      "type": "function"
    },
    {
      "inputs": [
        {
          "internalType": "uint256",
          "name": "tokenID",
          "type": "uint256"
        }
      ],
      "name": "leaseHash",
      "outputs": [
        {
          "internalType": "string",
          "name": "",
          "type": "string"
        }
      ],
      "stateMutability": "view",
      "type": "function"
    },
    {
      "inputs": [
        {
          "internalType": "uint256",
          "name": "tokenID",
          "type": "uint256"
        }
      ],
      "name": "lien",
      "outputs": [
        {
          "internalType": "address",
          "name": "",
          "type": "address"
        }
      ],
      "stateMutability": "view",
      "type": "function"
    },
    {
      "inputs": [
        {
          "internalType": "uint256",
          "name": "id",
          "type": "uint256"
        }
      ],
      "name": "lockNFT",
      "outputs": [],
      "stateMutability": "nonpayable",
      "type": "function"
    },
    {
      "inputs": [
        {
          "internalType": "address",
          "name": "recipient",
          "type": "address"
        },
        {
          "internalType": "string",
          "name": "meta_data_uri",
          "type": "string"
        },
        {
          "internalType": "address",
          "name": "_primaryLien",
          "type": "address"
        },
        {
          "internalType": "string",
          "name": "lease_hash",
          "type": "string"
        },
        {
          "internalType": "string",
          "name": "signMessage",
          "type": "string"
        }
      ],
      "name": "mint",
      "outputs": [
        {
          "internalType": "uint256",
          "name": "",
          "type": "uint256"
        }
      ],
      "stateMutability": "nonpayable",
      "type": "function"
    },
    {
      "inputs": [],
      "name": "name",
      "outputs": [
        {
          "internalType": "string",
          "name": "",
          "type": "string"
        }
      ],
      "stateMutability": "view",
      "type": "function"
    },
    {
      "inputs": [],
      "name": "owner",
      "outputs": [
        {
          "internalType": "address",
          "name": "",
          "type": "address"
        }
      ],
      "stateMutability": "view",
      "type": "function"
    },
    {
      "inputs": [
        {
          "internalType": "uint256",
          "name": "tokenId",
          "type": "uint256"
        }
      ],
      "name": "ownerOf",
      "outputs": [
        {
          "internalType": "address",
          "name": "",
          "type": "address"
        }
      ],
      "stateMutability": "view",
      "type": "function"
    },
    {
      "inputs": [
        {
          "internalType": "uint256",
          "name": "tokenID",
          "type": "uint256"
        },
        {
          "internalType": "uint256",
          "name": "amount",
          "type": "uint256"
        }
      ],
      "name": "payLien",
      "outputs": [
        {
          "internalType": "uint256",
          "name": "",
          "type": "uint256"
        }
      ],
      "stateMutability": "nonpayable",
      "type": "function"
    },
    {
      "inputs": [
        {
          "internalType": "uint256",
          "name": "tokenID",
          "type": "uint256"
        }
      ],
      "name": "payLienFull",
      "outputs": [
        {
          "internalType": "uint256",
          "name": "",
          "type": "uint256"
        }
      ],
      "stateMutability": "nonpayable",
      "type": "function"
    },
    {
      "inputs": [
        {
          "internalType": "uint256",
          "name": "tokenID",
          "type": "uint256"
        },
        {
          "internalType": "address",
          "name": "newLienAddress",
          "type": "address"
        }
      ],
      "name": "proposeLienUpdate",
      "outputs": [],
      "stateMutability": "nonpayable",
      "type": "function"
    },
    {
      "inputs": [
        {
          "internalType": "uint256",
          "name": "tokenID",
          "type": "uint256"
        },
        {
          "internalType": "uint256",
          "name": "amount",
          "type": "uint256"
        }
      ],
      "name": "redeemReserve",
      "outputs": [],
      "stateMutability": "nonpayable",
      "type": "function"
    },
    {
      "inputs": [],
      "name": "renounceOwnership",
      "outputs": [],
      "stateMutability": "nonpayable",
      "type": "function"
    },
    {
      "inputs": [
        {
          "internalType": "address",
          "name": "from",
          "type": "address"
        },
        {
          "internalType": "address",
          "name": "to",
          "type": "address"
        },
        {
          "internalType": "uint256",
          "name": "tokenId",
          "type": "uint256"
        }
      ],
      "name": "safeTransferFrom",
      "outputs": [],
      "stateMutability": "nonpayable",
      "type": "function"
    },
    {
      "inputs": [
        {
          "internalType": "address",
          "name": "from",
          "type": "address"
        },
        {
          "internalType": "address",
          "name": "to",
          "type": "address"
        },
        {
          "internalType": "uint256",
          "name": "tokenId",
          "type": "uint256"
        },
        {
          "internalType": "bytes",
          "name": "data",
          "type": "bytes"
        }
      ],
      "name": "safeTransferFrom",
      "outputs": [],
      "stateMutability": "nonpayable",
      "type": "function"
    },
    {
      "inputs": [
        {
          "internalType": "address",
          "name": "operator",
          "type": "address"
        },
        {
          "internalType": "bool",
          "name": "approved",
          "type": "bool"
        }
      ],
      "name": "setApprovalForAll",
      "outputs": [],
      "stateMutability": "nonpayable",
      "type": "function"
    },
    {
      "inputs": [
        {
          "internalType": "uint256",
          "name": "tokenId",
          "type": "uint256"
        },
        {
          "internalType": "string",
          "name": "newMessage",
          "type": "string"
        }
      ],
      "name": "setSignMessage",
      "outputs": [],
      "stateMutability": "nonpayable",
      "type": "function"
    },
    {
      "inputs": [
        {
          "internalType": "bytes4",
          "name": "interfaceId",
          "type": "bytes4"
        }
      ],
      "name": "supportsInterface",
      "outputs": [
        {
          "internalType": "bool",
          "name": "",
          "type": "bool"
        }
      ],
      "stateMutability": "view",
      "type": "function"
    },
    {
      "inputs": [],
      "name": "symbol",
      "outputs": [
        {
          "internalType": "string",
          "name": "",
          "type": "string"
        }
      ],
      "stateMutability": "view",
      "type": "function"
    },
    {
      "inputs": [
        {
          "internalType": "uint256",
          "name": "id",
          "type": "uint256"
        }
      ],
      "name": "tokenURI",
      "outputs": [
        {
          "internalType": "string",
          "name": "",
          "type": "string"
        }
      ],
      "stateMutability": "view",
      "type": "function"
    },
    {
      "inputs": [
        {
          "internalType": "address",
          "name": "from",
          "type": "address"
        },
        {
          "internalType": "address",
          "name": "to",
          "type": "address"
        },
        {
          "internalType": "uint256",
          "name": "tokenId",
          "type": "uint256"
        }
      ],
      "name": "transferFrom",
      "outputs": [],
      "stateMutability": "nonpayable",
      "type": "function"
    },
    {
      "inputs": [
        {
          "internalType": "address",
          "name": "newOwner",
          "type": "address"
        }
      ],
      "name": "transferOwnership",
      "outputs": [],
      "stateMutability": "nonpayable",
      "type": "function"
    },
    {
      "inputs": [
        {
          "internalType": "uint256",
          "name": "id",
          "type": "uint256"
        }
      ],
      "name": "unlockNFT",
      "outputs": [],
      "stateMutability": "nonpayable",
      "type": "function"
    },
    {
      "inputs": [
        {
          "internalType": "address",
          "name": "_escrow",
          "type": "address"
        }
      ],
      "name": "updateEscrow",
      "outputs": [],
      "stateMutability": "nonpayable",
      "type": "function"
    }
  ],
  "bytecode": "0x60806040523480156200001157600080fd5b5060405162002f6838038062002f688339810160408190526200003491620001d5565b6040805180820182526008815267169e599d1e53919560c21b6020808301918252835180850190945260048452631693919560e21b90840152815191929162000080916000916200012f565b508051620000969060019060208401906200012f565b505050620000b3620000ad620000d960201b60201c565b620000dd565b600980546001600160a01b0319166001600160a01b039290921691909117905562000242565b3390565b600680546001600160a01b038381166001600160a01b0319831681179093556040519116919082907f8be0079c531659141344cd1fd0a4f28419497f9722a3daafe3b4186f6b6457e090600090a35050565b8280546200013d9062000205565b90600052602060002090601f016020900481019282620001615760008555620001ac565b82601f106200017c57805160ff1916838001178555620001ac565b82800160010185558215620001ac579182015b82811115620001ac5782518255916020019190600101906200018f565b50620001ba929150620001be565b5090565b5b80821115620001ba5760008155600101620001bf565b600060208284031215620001e7578081fd5b81516001600160a01b0381168114620001fe578182fd5b9392505050565b600181811c908216806200021a57607f821691505b602082108114156200023c57634e487b7160e01b600052602260045260246000fd5b50919050565b612d1680620002526000396000f3fe608060405234801561001057600080fd5b50600436106102115760003560e01c8063715018a611610125578063c40412b5116100ad578063d9ca30f91161007c578063d9ca30f914610482578063e985e9c514610495578063f2fde38b146104d1578063f826276c146104e4578063fa37aa56146104f757600080fd5b8063c40412b514610429578063c87b56dd1461043c578063ce88b1451461044f578063d982beb21461046f57600080fd5b80638ea06f81116100f45780638ea06f81146103d557806395d89b41146103e8578063a22cb465146103f0578063b88d4fde14610403578063bf2b30e01461041657600080fd5b8063715018a61461039657806377778db31461039e5780638b6a101a146103b15780638da5cb5b146103c457600080fd5b806334927e9d116101a8578063506369611161017757806350636961146103375780636352211e1461034a578063641e57791461035d5780636d71be4c1461037057806370a082311461038357600080fd5b806334927e9d146102df5780633a6441e0146102f257806342842e0e1461030357806343349e4a1461031657600080fd5b8063081812fc116101e4578063081812fc14610293578063095ea7b3146102a657806323b872dd146102b95780632b7170d0146102cc57600080fd5b806301ffc9a7146102165780630312ddfb1461023e578063060298711461026957806306fdde031461027e575b600080fd5b6102296102243660046128bf565b61050a565b60405190151581526020015b60405180910390f35b61025161024c3660046128f7565b61055c565b6040516001600160a01b039091168152602001610235565b61027c61027736600461294b565b6105ab565b005b6102866106f0565b6040516102359190612a39565b6102516102a13660046128f7565b610782565b61027c6102b4366004612878565b6107a9565b61027c6102c73660046126e2565b6108bf565b61027c6102da3660046128f7565b6108f0565b61027c6102ed366004612927565b61091c565b6009546001600160a01b0316610251565b61027c6103113660046126e2565b610ad7565b6103296103243660046127cc565b610af2565b604051908152602001610235565b6103296103453660046128f7565b610c0f565b6102516103583660046128f7565b610d1c565b61028661036b3660046128f7565b610d7c565b61027c61037e366004612990565b610e44565b610329610391366004612672565b610f26565b61027c610fac565b6103296103ac3660046128f7565b610fc0565b61027c6103bf366004612672565b610ffa565b6006546001600160a01b0316610251565b6102516103e33660046128f7565b611024565b6102866110d5565b61027c6103fe36600461279f565b6110e4565b61027c610411366004612722565b6110f3565b61027c610424366004612990565b611125565b61027c6104373660046128f7565b61125e565b61028661044a3660046128f7565b6112ce565b61046261045d3660046128f7565b6112ee565b6040516102359190612b74565b61027c61047d366004612927565b61155a565b610329610490366004612990565b6117d5565b6102296104a33660046126aa565b6001600160a01b03918216600090815260056020908152604080832093909416825291909152205460ff1690565b61027c6104df366004612672565b61196d565b61027c6104f23660046128f7565b6119e6565b610329610505366004612927565b611a0c565b60006001600160e01b031982166380ac58cd60e01b148061053b57506001600160e01b03198216635b5e139f60e01b145b8061055657506301ffc9a760e01b6001600160e01b03198316145b92915050565b600061056782611c60565b61058c5760405162461bcd60e51b815260040161058390612aef565b60405180910390fd5b506000908152600860205260409020600101546001600160a01b031690565b60008281526008602052604090206105c283610d1c565b6001600160a01b0316336001600160a01b0316148061066a57506105e58361055c565b6001600160a01b0316639c73cc976040518163ffffffff1660e01b815260040160206040518083038186803b15801561061d57600080fd5b505afa158015610631573d6000803e3d6000fd5b505050506040513d601f19601f82011682018060405250810190610655919061268e565b6001600160a01b0316336001600160a01b0316145b6106d55760405162461bcd60e51b815260206004820152603660248201527f596f7520646f206e6f7420686176652061636365737320746f206368616e6765604482015275207468652061677265656d656e74206d65737361676560501b6064820152608401610583565b81516106ea9060058301906020850190612507565b50505050565b6060600080546106ff90612c40565b80601f016020809104026020016040519081016040528092919081815260200182805461072b90612c40565b80156107785780601f1061074d57610100808354040283529160200191610778565b820191906000526020600020905b81548152906001019060200180831161075b57829003601f168201915b5050505050905090565b600061078d82611c7d565b506000908152600460205260409020546001600160a01b031690565b60006107b482610d1c565b9050806001600160a01b0316836001600160a01b031614156108225760405162461bcd60e51b815260206004820152602160248201527f4552433732313a20617070726f76616c20746f2063757272656e74206f776e656044820152603960f91b6064820152608401610583565b336001600160a01b038216148061083e575061083e81336104a3565b6108b05760405162461bcd60e51b815260206004820152603e60248201527f4552433732313a20617070726f76652063616c6c6572206973206e6f7420746f60448201527f6b656e206f776e6572206e6f7220617070726f76656420666f7220616c6c00006064820152608401610583565b6108ba8383611ccd565b505050565b6108c93382611d3b565b6108e55760405162461bcd60e51b815260040161058390612b26565b6108ba838383611db9565b6108f8611f60565b6000908152600860205260409020600201805460ff60a01b1916600160a01b179055565b600082815260086020526040902060028101546001600160a01b03166109775760405162461bcd60e51b815260206004820152601060248201526f139bc81b1a595b881c1c9bdc1bdcd95960821b6044820152606401610583565b60028101546001600160a01b038381169116146109ec5760405162461bcd60e51b815260206004820152602d60248201527f4c69656e2061646472657373206163636570746564206973206e6f742074686560448201526c081bdb99481c1c9bdc1bdcd959609a1b6064820152608401610583565b816109f684610d1c565b6001600160a01b0316336001600160a01b031614610a625760405162461bcd60e51b815260206004820152602360248201527f4f6e6c7920746865206f776e65722063616e206163636570742074686973206c60448201526234b2b760e91b6064820152608401610583565b6001820180546001600160a01b038581166001600160a01b031980841682179094556002860180549094169093556040805191909216808252602082019390935286917fa326b35970f2767ac2a5f0f0c389f1e951222af2a63529cd431089ec7e689be0910160405180910390a25050505050565b6108ba838383604051806020016040528060008152506110f3565b6000610b02600780546001019055565b6000610b0d60075490565b9050610b198782611fba565b6040805160e08101825260008082526001600160a01b03808916602080850191825284860184815260608601858152608087018e815260a088018d905260c088018c905289875260088452979095208651815592516001840180549186166001600160a01b03199092169190911790555160028301805495511515600160a01b026001600160a81b031990961691909416179390931790915592518051929392610bc99260038501920190612507565b5060a08201518051610be5916004840191602090910190612507565b5060c08201518051610c01916005840191602090910190612507565b509198975050505050505050565b6000610c1a82610d1c565b6001600160a01b0316336001600160a01b031614610c865760405162461bcd60e51b815260206004820152602360248201527f596f75206d75737420626520746865206f776e6572206f722074686520657363604482015262726f7760e81b6064820152608401610583565b6000610c918361055c565b90506000816001600160a01b031663b69ef8a86040518163ffffffff1660e01b8152600401602060405180830381600087803b158015610cd057600080fd5b505af1158015610ce4573d6000803e3d6000fd5b505050506040513d601f19601f82011682018060405250810190610d08919061290f565b9050610d1484826117d5565b949350505050565b6000818152600260205260408120546001600160a01b0316806105565760405162461bcd60e51b8152602060048201526018602482015277115490cdcc8c4e881a5b9d985b1a59081d1bdad95b88125160421b6044820152606401610583565b6060610d8782611c60565b610da35760405162461bcd60e51b815260040161058390612aef565b60008281526008602052604090206004018054610dbf90612c40565b80601f0160208091040260200160405190810160405280929190818152602001828054610deb90612c40565b8015610e385780601f10610e0d57610100808354040283529160200191610e38565b820191906000526020600020905b815481529060010190602001808311610e1b57829003601f168201915b50505050509050919050565b610e4d82611c60565b610e695760405162461bcd60e51b815260040161058390612aef565b6000610e7483611024565b6040516323b872dd60e01b8152336004820152306024820152604481018490529091506001600160a01b038216906323b872dd90606401602060405180830381600087803b158015610ec557600080fd5b505af1158015610ed9573d6000803e3d6000fd5b505050506040513d601f19601f82011682018060405250810190610efd91906128a3565b5060008381526008602052604081208054849290610f1c908490612c11565b9091555050505050565b60006001600160a01b038216610f905760405162461bcd60e51b815260206004820152602960248201527f4552433732313a2061646472657373207a65726f206973206e6f7420612076616044820152683634b21037bbb732b960b91b6064820152608401610583565b506001600160a01b031660009081526003602052604090205490565b610fb4611f60565b610fbe60006120f9565b565b6000610fcb82611c60565b610fe75760405162461bcd60e51b815260040161058390612aef565b5060009081526008602052604090205490565b611002611f60565b600980546001600160a01b0319166001600160a01b0392909216919091179055565b600061102f82611c60565b61104b5760405162461bcd60e51b815260040161058390612aef565b6000828152600860209081526040918290206001015482516338d52e0f60e01b815292516001600160a01b03909116926338d52e0f926004808301939192829003018186803b15801561109d57600080fd5b505afa1580156110b1573d6000803e3d6000fd5b505050506040513d601f19601f82011682018060405250810190610556919061268e565b6060600180546106ff90612c40565b6110ef33838361214b565b5050565b6110fd3383611d3b565b6111195760405162461bcd60e51b815260040161058390612b26565b6106ea8484848461221a565b61112e82611c60565b61114a5760405162461bcd60e51b815260040161058390612aef565b3361115483610d1c565b6001600160a01b0316146111a25760405162461bcd60e51b81526020600482015260156024820152742cb7ba9030b932903737ba103a34329037bbb732b960591b6044820152606401610583565b600082815260086020526040902080548211156111be57805491505b6111c783611024565b60405163a9059cbb60e01b8152336004820152602481018490526001600160a01b03919091169063a9059cbb90604401602060405180830381600087803b15801561121157600080fd5b505af1158015611225573d6000803e3d6000fd5b505050506040513d601f19601f8201168201806040525081019061124991906128a3565b5081816000016000828254610f1c9190612c29565b611266611f60565b61126f8161224d565b60008181526008602052604081208181556001810180546001600160a01b03191690556002810180546001600160a81b0319169055906112b2600383018261258b565b6112c060048301600061258b565b6108ba60058301600061258b565b6000818152600860205260409020600301805460609190610dbf90612c40565b6113426040518060e001604052806000815260200160006001600160a01b0316815260200160006001600160a01b031681526020016000151581526020016060815260200160608152602001606081525090565b600082815260086020908152604091829020825160e0810184528154815260018201546001600160a01b0390811693820193909352600282015492831693810193909352600160a01b90910460ff16151560608301526003810180546080840191906113ad90612c40565b80601f01602080910402602001604051908101604052809291908181526020018280546113d990612c40565b80156114265780601f106113fb57610100808354040283529160200191611426565b820191906000526020600020905b81548152906001019060200180831161140957829003601f168201915b5050505050815260200160048201805461143f90612c40565b80601f016020809104026020016040519081016040528092919081815260200182805461146b90612c40565b80156114b85780601f1061148d576101008083540402835291602001916114b8565b820191906000526020600020905b81548152906001019060200180831161149b57829003601f168201915b505050505081526020016005820180546114d190612c40565b80601f01602080910402602001604051908101604052809291908181526020018280546114fd90612c40565b801561154a5780601f1061151f5761010080835404028352916020019161154a565b820191906000526020600020905b81548152906001019060200180831161152d57829003601f168201915b5050505050815250509050919050565b61156382611c60565b61157f5760405162461bcd60e51b815260040161058390612aef565b60008281526008602090815260409182902060018101548351639c73cc9760e01b81529351919333936001600160a01b0390921692639c73cc9792600480840193919291829003018186803b1580156115d757600080fd5b505afa1580156115eb573d6000803e3d6000fd5b505050506040513d601f19601f8201168201806040525081019061160f919061268e565b6001600160a01b03161461166f5760405162461bcd60e51b815260206004820152602160248201527f596f7520617265206e6f7420746865206f6c64206c69656e2070726f766964656044820152603960f91b6064820152608401610583565b8161167984611024565b6001600160a01b0316816001600160a01b03166338d52e0f6040518163ffffffff1660e01b815260040160206040518083038186803b1580156116bb57600080fd5b505afa1580156116cf573d6000803e3d6000fd5b505050506040513d601f19601f820116820180604052508101906116f3919061268e565b6001600160a01b03161461177a5760405162461bcd60e51b815260206004820152604260248201527f5468652061737365742074797065206f662074686973206c69656e206d75737460448201527f206265207468652061737365742074797065206f662074686520636f6e74726160648201526118dd60f21b608482015260a401610583565b6002820180546001600160a01b0319166001600160a01b03851690811790915560405190815284907feb95260b0443f4ad8d4614d070d8a18fcfc094a612187c79088bdb4cf92065729060200160405180910390a250505050565b60006117e083611c60565b6117fc5760405162461bcd60e51b815260040161058390612aef565b60006118078461055c565b60008581526008602052604090208054919250829185111561182857805494505b61183186611024565b60405163095ea7b360e01b81526001600160a01b03858116600483015260248201889052919091169063095ea7b390604401602060405180830381600087803b15801561187d57600080fd5b505af1158015611891573d6000803e3d6000fd5b505050506040513d601f19601f820116820180604052508101906118b591906128a3565b5060405163c290d69160e01b8152600481018690526000906001600160a01b0384169063c290d69190602401602060405180830381600087803b1580156118fb57600080fd5b505af115801561190f573d6000803e3d6000fd5b505050506040513d601f19601f82011682018060405250810190611933919061290f565b905061193f8187612c29565b8260000160008282546119529190612c29565b9091555061196290508187612c29565b979650505050505050565b611975611f60565b6001600160a01b0381166119da5760405162461bcd60e51b815260206004820152602660248201527f4f776e61626c653a206e6577206f776e657220697320746865207a65726f206160448201526564647265737360d01b6064820152608401610583565b6119e3816120f9565b50565b6119ee611f60565b6000908152600860205260409020600201805460ff60a01b19169055565b6000828152600860209081526040808320815160e0810183528154815260018201546001600160a01b0390811694820194909452600282015493841692810192909252600160a01b90920460ff16151560608201526003820180548493916080840191611a7890612c40565b80601f0160208091040260200160405190810160405280929190818152602001828054611aa490612c40565b8015611af15780601f10611ac657610100808354040283529160200191611af1565b820191906000526020600020905b815481529060010190602001808311611ad457829003601f168201915b50505050508152602001600482018054611b0a90612c40565b80601f0160208091040260200160405190810160405280929190818152602001828054611b3690612c40565b8015611b835780601f10611b5857610100808354040283529160200191611b83565b820191906000526020600020905b815481529060010190602001808311611b6657829003601f168201915b50505050508152602001600582018054611b9c90612c40565b80601f0160208091040260200160405190810160405280929190818152602001828054611bc890612c40565b8015611c155780601f10611bea57610100808354040283529160200191611c15565b820191906000526020600020905b815481529060010190602001808311611bf857829003601f168201915b50505050508152505090508060c00151838260a001518630604051602001611c41959493929190612a4c565b6040516020818303038152906040528051906020012091505092915050565b6000908152600260205260409020546001600160a01b0316151590565b611c8681611c60565b6119e35760405162461bcd60e51b8152602060048201526018602482015277115490cdcc8c4e881a5b9d985b1a59081d1bdad95b88125160421b6044820152606401610583565b600081815260046020526040902080546001600160a01b0319166001600160a01b0384169081179091558190611d0282610d1c565b6001600160a01b03167f8c5be1e5ebec7d5bd14f71427d1e84f3dd0314c0f7b2291e5b200ac8c7c3b92560405160405180910390a45050565b600080611d4783610d1c565b9050806001600160a01b0316846001600160a01b03161480611d8e57506001600160a01b0380821660009081526005602090815260408083209388168352929052205460ff165b80610d145750836001600160a01b0316611da784610782565b6001600160a01b031614949350505050565b826001600160a01b0316611dcc82610d1c565b6001600160a01b031614611e305760405162461bcd60e51b815260206004820152602560248201527f4552433732313a207472616e736665722066726f6d20696e636f72726563742060448201526437bbb732b960d91b6064820152608401610583565b6001600160a01b038216611e925760405162461bcd60e51b8152602060048201526024808201527f4552433732313a207472616e7366657220746f20746865207a65726f206164646044820152637265737360e01b6064820152608401610583565b611e9d8383836122f4565b611ea8600082611ccd565b6001600160a01b0383166000908152600360205260408120805460019290611ed1908490612c29565b90915550506001600160a01b0382166000908152600360205260408120805460019290611eff908490612c11565b909155505060008181526002602052604080822080546001600160a01b0319166001600160a01b0386811691821790925591518493918716917fddf252ad1be2c89b69c2b068fc378daa952ba7f163c4a11628f55a4df523b3ef91a4505050565b6006546001600160a01b03163314610fbe5760405162461bcd60e51b815260206004820181905260248201527f4f776e61626c653a2063616c6c6572206973206e6f7420746865206f776e65726044820152606401610583565b6001600160a01b0382166120105760405162461bcd60e51b815260206004820181905260248201527f4552433732313a206d696e7420746f20746865207a65726f20616464726573736044820152606401610583565b61201981611c60565b156120665760405162461bcd60e51b815260206004820152601c60248201527f4552433732313a20746f6b656e20616c7265616479206d696e746564000000006044820152606401610583565b612072600083836122f4565b6001600160a01b038216600090815260036020526040812080546001929061209b908490612c11565b909155505060008181526002602052604080822080546001600160a01b0319166001600160a01b03861690811790915590518392907fddf252ad1be2c89b69c2b068fc378daa952ba7f163c4a11628f55a4df523b3ef908290a45050565b600680546001600160a01b038381166001600160a01b0319831681179093556040519116919082907f8be0079c531659141344cd1fd0a4f28419497f9722a3daafe3b4186f6b6457e090600090a35050565b816001600160a01b0316836001600160a01b031614156121ad5760405162461bcd60e51b815260206004820152601960248201527f4552433732313a20617070726f766520746f2063616c6c6572000000000000006044820152606401610583565b6001600160a01b03838116600081815260056020908152604080832094871680845294825291829020805460ff191686151590811790915591519182527f17307eab39ab6107e8899845ad3d59bd9653f200f220920489ca2b5937696c31910160405180910390a3505050565b612225848484611db9565b612231848484846123fa565b6106ea5760405162461bcd60e51b815260040161058390612a9d565b600061225882610d1c565b9050612266816000846122f4565b612271600083611ccd565b6001600160a01b038116600090815260036020526040812080546001929061229a908490612c29565b909155505060008281526002602052604080822080546001600160a01b0319169055518391906001600160a01b038416907fddf252ad1be2c89b69c2b068fc378daa952ba7f163c4a11628f55a4df523b3ef908390a45050565b6001600160a01b038316158061231157506001600160a01b038216155b8061232957506009546001600160a01b038481169116145b8061234157506009546001600160a01b038381169116145b6123a15760405162461bcd60e51b815260206004820152602b60248201527f546f6b656e206d75737420626520706173736564207468726f7567682053616c60448201526a195cc810dbdb9d1c9858dd60aa1b6064820152608401610583565b600081815260086020526040902060020154600160a01b900460ff16156108ba5760405162461bcd60e51b815260206004820152600d60248201526c139195081a5cc81b1bd8dad959609a1b6044820152606401610583565b60006001600160a01b0384163b156124fc57604051630a85bd0160e11b81526001600160a01b0385169063150b7a029061243e9033908990889088906004016129fc565b602060405180830381600087803b15801561245857600080fd5b505af1925050508015612488575060408051601f3d908101601f19168201909252612485918101906128db565b60015b6124e2573d8080156124b6576040519150601f19603f3d011682016040523d82523d6000602084013e6124bb565b606091505b5080516124da5760405162461bcd60e51b815260040161058390612a9d565b805181602001fd5b6001600160e01b031916630a85bd0160e11b149050610d14565b506001949350505050565b82805461251390612c40565b90600052602060002090601f016020900481019282612535576000855561257b565b82601f1061254e57805160ff191683800117855561257b565b8280016001018555821561257b579182015b8281111561257b578251825591602001919060010190612560565b506125879291506125c1565b5090565b50805461259790612c40565b6000825580601f106125a7575050565b601f0160209004906000526020600020908101906119e391905b5b8082111561258757600081556001016125c2565b600067ffffffffffffffff808411156125f1576125f1612c91565b604051601f8501601f19908116603f0116810190828211818310171561261957612619612c91565b8160405280935085815286868601111561263257600080fd5b858560208301376000602087830101525050509392505050565b600082601f83011261265c578081fd5b61266b838335602085016125d6565b9392505050565b600060208284031215612683578081fd5b813561266b81612ca7565b60006020828403121561269f578081fd5b815161266b81612ca7565b600080604083850312156126bc578081fd5b82356126c781612ca7565b915060208301356126d781612ca7565b809150509250929050565b6000806000606084860312156126f6578081fd5b833561270181612ca7565b9250602084013561271181612ca7565b929592945050506040919091013590565b60008060008060808587031215612737578081fd5b843561274281612ca7565b9350602085013561275281612ca7565b925060408501359150606085013567ffffffffffffffff811115612774578182fd5b8501601f81018713612784578182fd5b612793878235602084016125d6565b91505092959194509250565b600080604083850312156127b1578182fd5b82356127bc81612ca7565b915060208301356126d781612cbc565b600080600080600060a086880312156127e3578081fd5b85356127ee81612ca7565b9450602086013567ffffffffffffffff8082111561280a578283fd5b61281689838a0161264c565b95506040880135915061282882612ca7565b9093506060870135908082111561283d578283fd5b61284989838a0161264c565b9350608088013591508082111561285e578283fd5b5061286b8882890161264c565b9150509295509295909350565b6000806040838503121561288a578182fd5b823561289581612ca7565b946020939093013593505050565b6000602082840312156128b4578081fd5b815161266b81612cbc565b6000602082840312156128d0578081fd5b813561266b81612cca565b6000602082840312156128ec578081fd5b815161266b81612cca565b600060208284031215612908578081fd5b5035919050565b600060208284031215612920578081fd5b5051919050565b60008060408385031215612939578182fd5b8235915060208301356126d781612ca7565b6000806040838503121561295d578182fd5b82359150602083013567ffffffffffffffff81111561297a578182fd5b6129868582860161264c565b9150509250929050565b600080604083850312156129a2578182fd5b50508035926020909101359150565b60008151808452815b818110156129d6576020818501810151868301820152016129ba565b818111156129e75782602083870101525b50601f01601f19169290920160200192915050565b6001600160a01b0385811682528416602082015260408101839052608060608201819052600090612a2f908301846129b1565b9695505050505050565b60208152600061266b60208301846129b1565b60a081526000612a5f60a08301886129b1565b6001600160a01b0387811660208501528382036040850152612a8182886129b1565b9250856060850152808516608085015250509695505050505050565b60208082526032908201527f4552433732313a207472616e7366657220746f206e6f6e20455243373231526560408201527131b2b4bb32b91034b6b83632b6b2b73a32b960711b606082015260800190565b60208082526019908201527f5468697320546f6b656e20646f6573206e6f7420657869737400000000000000604082015260600190565b6020808252602e908201527f4552433732313a2063616c6c6572206973206e6f7420746f6b656e206f776e6560408201526d1c881b9bdc88185c1c1c9bdd995960921b606082015260800190565b60208082528251828201528201516001600160a01b0390811660408084019190915283015116606080830191909152820151801515608083015260009050608083015160e060a0840152612bcc6101008401826129b1565b905060a0840151601f19808584030160c0860152612bea83836129b1565b925060c08601519150808584030160e086015250612c0882826129b1565b95945050505050565b60008219821115612c2457612c24612c7b565b500190565b600082821015612c3b57612c3b612c7b565b500390565b600181811c90821680612c5457607f821691505b60208210811415612c7557634e487b7160e01b600052602260045260246000fd5b50919050565b634e487b7160e01b600052601160045260246000fd5b634e487b7160e01b600052604160045260246000fd5b6001600160a01b03811681146119e357600080fd5b80151581146119e357600080fd5b6001600160e01b0319811681146119e357600080fdfea2646970667358221220c9a38e77838e0b96d8427975812879c438310646e0ceb74fbb17c98ae323a38364736f6c63430008040033",
  "linkReferences": {},
  "deployedLinkReferences": {}
}