{
  "_format": "hh-sol-artifact-1",
  "contractName": "ZyftyAuction",
  "sourceName": "contracts/ZyftyAuction.sol",
  "abi": [
    {
      "anonymous": false,
      "inputs": [
        {
          "indexed": true,
          "internalType": "address",
          "name": "previousOwner",
          "type": "address"
        },
        {
          "indexed": true,
          "internalType": "address",
          "name": "newOwner",
          "type": "address"
        }
      ],
      "name": "OwnershipTransferred",
      "type": "event"
    },
    {
      "inputs": [
        {
          "internalType": "uint256",
          "name": "auctionId",
          "type": "uint256"
        }
      ],
      "name": "auctionClosed",
      "outputs": [
        {
          "internalType": "bool",
          "name": "",
          "type": "bool"
        }
      ],
      "stateMutability": "view",
      "type": "function"
    },
    {
      "inputs": [
        {
          "internalType": "uint256",
          "name": "id",
          "type": "uint256"
        },
        {
          "internalType": "uint256",
          "name": "amount",
          "type": "uint256"
        },
        {
          "internalType": "bytes",
          "name": "agreementSignature",
          "type": "bytes"
        }
      ],
      "name": "bid",
      "outputs": [],
      "stateMutability": "nonpayable",
      "type": "function"
    },
    {
      "inputs": [
        {
          "internalType": "uint256",
          "name": "id",
          "type": "uint256"
        }
      ],
      "name": "close",
      "outputs": [],
      "stateMutability": "nonpayable",
      "type": "function"
    },
    {
      "inputs": [
        {
          "internalType": "address",
          "name": "zyftyContract",
          "type": "address"
        },
        {
          "internalType": "uint256",
          "name": "tokenId",
          "type": "uint256"
        },
        {
          "internalType": "uint256",
          "name": "startingPrice",
          "type": "uint256"
        },
        {
          "internalType": "uint256",
          "name": "maxPrice",
          "type": "uint256"
        },
        {
          "internalType": "address",
          "name": "asset",
          "type": "address"
        },
        {
          "internalType": "uint256",
          "name": "duration",
          "type": "uint256"
        }
      ],
      "name": "createAuction",
      "outputs": [
        {
          "internalType": "uint256",
          "name": "",
          "type": "uint256"
        }
      ],
      "stateMutability": "nonpayable",
      "type": "function"
    },
    {
      "inputs": [
        {
          "internalType": "uint256",
          "name": "auctionId",
          "type": "uint256"
        },
        {
          "internalType": "address",
          "name": "bidder",
          "type": "address"
        }
      ],
      "name": "getDeposit",
      "outputs": [
        {
          "internalType": "uint256",
          "name": "",
          "type": "uint256"
        }
      ],
      "stateMutability": "view",
      "type": "function"
    },
    {
      "inputs": [],
      "name": "owner",
      "outputs": [
        {
          "internalType": "address",
          "name": "",
          "type": "address"
        }
      ],
      "stateMutability": "view",
      "type": "function"
    },
    {
      "inputs": [],
      "name": "renounceOwnership",
      "outputs": [],
      "stateMutability": "nonpayable",
      "type": "function"
    },
    {
      "inputs": [
        {
          "internalType": "address",
          "name": "newOwner",
          "type": "address"
        }
      ],
      "name": "transferOwnership",
      "outputs": [],
      "stateMutability": "nonpayable",
      "type": "function"
    },
    {
      "inputs": [
        {
          "internalType": "uint256",
          "name": "id",
          "type": "uint256"
        }
      ],
      "name": "withdrawFromAuction",
      "outputs": [],
      "stateMutability": "nonpayable",
      "type": "function"
    }
  ],
  "bytecode": "0x608060405234801561001057600080fd5b5061001a3361001f565b61006f565b600080546001600160a01b038381166001600160a01b0319831681178455604051919092169283917f8be0079c531659141344cd1fd0a4f28419497f9722a3daafe3b4186f6b6457e09190a35050565b6114d88061007e6000396000f3fe608060405234801561001057600080fd5b50600436106100935760003560e01c8063715018a611610066578063715018a6146100f95780638da5cb5b146101015780639f489e4e1461011c578063af3eb39b14610152578063f2fde38b1461017557600080fd5b806306fdd531146100985780630aebeb4e146100be578063422927ad146100d357806354cb64db146100e6575b600080fd5b6100ab6100a6366004611240565b610188565b6040519081526020015b60405180910390f35b6100d16100cc3660046112cf565b610403565b005b6100d16100e13660046112cf565b6106c2565b6100d16100f4366004611312565b6108b3565b6100d1610c16565b6000546040516001600160a01b0390911681526020016100b5565b6100ab61012a3660046112e7565b60009182526003602090815260408084206001600160a01b0393909316845291905290205490565b6101656101603660046112cf565b610c7c565b60405190151581526020016100b5565b6100d161018336600461121f565b610ca8565b6000846101f25760405162461bcd60e51b815260206004820152602d60248201527f5a7966747941756374696f6e3a205374617274696e67207072696365206d757360448201526c74206265206e6f6e2d7a65726f60981b60648201526084015b60405180910390fd5b610200600180546001019055565b6040516323b872dd60e01b815287906001600160a01b038216906323b872dd9061023290339030908c906004016113d1565b600060405180830381600087803b15801561024c57600080fd5b505af1158015610260573d6000803e3d6000fd5b50505050600061026f60015490565b9050604051806101600160405280336001600160a01b031681526020018a6001600160a01b03168152602001898152602001888152602001878152602001866001600160a01b031681526020014281526020018581526020016000815260200160006001600160a01b0316815260200160008152506002600083815260200190815260200160002060008201518160000160006101000a8154816001600160a01b0302191690836001600160a01b0316021790555060208201518160010160006101000a8154816001600160a01b0302191690836001600160a01b0316021790555060408201518160020155606082015181600301556080820151816004015560a08201518160050160006101000a8154816001600160a01b0302191690836001600160a01b0316021790555060c0820151816006015560e0820151816007015561010082015181600801556101208201518160090160006101000a8154816001600160a01b0302191690836001600160a01b0316021790555061014082015181600a015590505050509695505050505050565b8061040d81610c7c565b6104595760405162461bcd60e51b815260206004820152601a60248201527f5468652061756374696f6e206d75737420626520636c6f73656400000000000060448201526064016101e9565b6000828152600260205260409020600181015460098201546001600160a01b0391821691166104f257815460028301546040516323b872dd60e01b81526001600160a01b03848116936323b872dd936104ba933093909216916004016113d1565b600060405180830381600087803b1580156104d457600080fd5b505af11580156104e8573d6000803e3d6000fd5b5050505050505050565b6008820154600061050460c88361140d565b60058501549091506001600160a01b03168063a9059cbb61052d6000546001600160a01b031690565b6040516001600160e01b031960e084901b1681526001600160a01b03909116600482015260248101859052604401602060405180830381600087803b15801561057557600080fd5b505af1158015610589573d6000803e3d6000fd5b505050506040513d601f19601f820116820180604052508101906105ad9190611297565b5084546001600160a01b038083169163a9059cbb91166105cd858761142d565b6040516001600160e01b031960e085901b1681526001600160a01b0390921660048301526024820152604401602060405180830381600087803b15801561061357600080fd5b505af1158015610627573d6000803e3d6000fd5b505050506040513d601f19601f8201168201806040525081019061064b9190611297565b50600985015460028601546040516323b872dd60e01b81526001600160a01b03878116936323b872dd93610687933093909216916004016113d1565b600060405180830381600087803b1580156106a157600080fd5b505af11580156106b5573d6000803e3d6000fd5b5050505050505050505050565b6000818152600360209081526040808320338452909152902054806107295760405162461bcd60e51b815260206004820181905260248201527f5a7966747941756374696f6e3a204e6f2066756e6473206465706f736974656460448201526064016101e9565b6000828152600260205260409020600901546001600160a01b031633141580610756575061075682610c7c565b6107d45760405162461bcd60e51b815260206004820152604360248201527f5a7966747941756374696f6e3a2048696768657374206269646465722063616e60448201527f277420776974686472617720756e74696c2061756374696f6e20697320636c6f6064820152621cd95960ea1b608482015260a4016101e9565b6000828152600260205260409081902060050154905163a9059cbb60e01b8152336004820152602481018390526001600160a01b0390911690819063a9059cbb90604401602060405180830381600087803b15801561083257600080fd5b505af1158015610846573d6000803e3d6000fd5b505050506040513d601f19601f8201168201806040525081019061086a9190611297565b506000838152600360209081526040808320338452825280832083905585835260029091528120600a018054916108a083611444565b91905055506108ae83610d73565b505050565b826108bd81610c7c565b1561090a5760405162461bcd60e51b815260206004820152601a60248201527f5468652061756374696f6e206d757374206265206f70656e656400000000000060448201526064016101e9565b60008481526002602081905260408083206001810154928101549151637d1bd52b60e11b81526004810192909252336024830152926001600160a01b039092169190610a0a908690610a0490859063fa37aa569060440160206040518083038186803b15801561097957600080fd5b505afa15801561098d573d6000803e3d6000fd5b505050506040513d601f19601f820116820180604052508101906109b191906112b7565b6040517f19457468657265756d205369676e6564204d6573736167653a0a3332000000006020820152603c8101829052600090605c01604051602081830303815290604052805190602001209050919050565b90610df8565b90506001600160a01b0381163314610a785760405162461bcd60e51b815260206004820152602b60248201527f5a7966747941756374696f6e3a20496e636f72726563742041677265656d656e60448201526a74205369676e617475726560a81b60648201526084016101e9565b6000878152600360209081526040808320338452909152902054610a9d9087906113f5565b60008881526003602090815260408083203384529091529020819055600884015410610b155760405162461bcd60e51b815260206004820152602160248201527f5a7966747941756374696f6e3a20426964206d757374206265206772656174656044820152603960f91b60648201526084016101e9565b6000878152600360209081526040808320338452909152902054861415610b4e57600a83018054906000610b488361145b565b91905055505b60058301546040516323b872dd60e01b81526001600160a01b039091169081906323b872dd90610b8690339030908c906004016113d1565b602060405180830381600087803b158015610ba057600080fd5b505af1158015610bb4573d6000803e3d6000fd5b505050506040513d601f19601f82011682018060405250810190610bd89190611297565b50505060009586525060036020908152604080872033808952925290952054600882015560090180546001600160a01b031916909417909355505050565b6000546001600160a01b03163314610c705760405162461bcd60e51b815260206004820181905260248201527f4f776e61626c653a2063616c6c6572206973206e6f7420746865206f776e657260448201526064016101e9565b610c7a6000610e1c565b565b60008181526002602052604081206007810154600690910154610c9f91906113f5565b42101592915050565b6000546001600160a01b03163314610d025760405162461bcd60e51b815260206004820181905260248201527f4f776e61626c653a2063616c6c6572206973206e6f7420746865206f776e657260448201526064016101e9565b6001600160a01b038116610d675760405162461bcd60e51b815260206004820152602660248201527f4f776e61626c653a206e6577206f776e657220697320746865207a65726f206160448201526564647265737360d01b60648201526084016101e9565b610d7081610e1c565b50565b6000818152600260205260409020600a0154610d70576000908152600260208190526040822080546001600160a01b0319908116825560018201805482169055918101839055600381018390556004810183905560058101805483169055600681018390556007810183905560088101839055600981018054909216909155600a0155565b6000806000610e078585610e6c565b91509150610e1481610edc565b509392505050565b600080546001600160a01b038381166001600160a01b0319831681178455604051919092169283917f8be0079c531659141344cd1fd0a4f28419497f9722a3daafe3b4186f6b6457e09190a35050565b600080825160411415610ea35760208301516040840151606085015160001a610e97878285856110dd565b94509450505050610ed5565b825160401415610ecd5760208301516040840151610ec28683836111ca565b935093505050610ed5565b506000905060025b9250929050565b6000816004811115610efe57634e487b7160e01b600052602160045260246000fd5b1415610f075750565b6001816004811115610f2957634e487b7160e01b600052602160045260246000fd5b1415610f775760405162461bcd60e51b815260206004820152601860248201527f45434453413a20696e76616c6964207369676e6174757265000000000000000060448201526064016101e9565b6002816004811115610f9957634e487b7160e01b600052602160045260246000fd5b1415610fe75760405162461bcd60e51b815260206004820152601f60248201527f45434453413a20696e76616c6964207369676e6174757265206c656e6774680060448201526064016101e9565b600381600481111561100957634e487b7160e01b600052602160045260246000fd5b14156110625760405162461bcd60e51b815260206004820152602260248201527f45434453413a20696e76616c6964207369676e6174757265202773272076616c604482015261756560f01b60648201526084016101e9565b600481600481111561108457634e487b7160e01b600052602160045260246000fd5b1415610d705760405162461bcd60e51b815260206004820152602260248201527f45434453413a20696e76616c6964207369676e6174757265202776272076616c604482015261756560f01b60648201526084016101e9565b6000807f7fffffffffffffffffffffffffffffff5d576e7357a4501ddfe92f46681b20a083111561111457506000905060036111c1565b8460ff16601b1415801561112c57508460ff16601c14155b1561113d57506000905060046111c1565b6040805160008082526020820180845289905260ff881692820192909252606081018690526080810185905260019060a0016020604051602081039080840390855afa158015611191573d6000803e3d6000fd5b5050604051601f1901519150506001600160a01b0381166111ba576000600192509250506111c1565b9150600090505b94509492505050565b6000806001600160ff1b038316816111e760ff86901c601b6113f5565b90506111f5878288856110dd565b935093505050935093915050565b80356001600160a01b038116811461121a57600080fd5b919050565b600060208284031215611230578081fd5b61123982611203565b9392505050565b60008060008060008060c08789031215611258578182fd5b61126187611203565b955060208701359450604087013593506060870135925061128460808801611203565b915060a087013590509295509295509295565b6000602082840312156112a8578081fd5b81518015158114611239578182fd5b6000602082840312156112c8578081fd5b5051919050565b6000602082840312156112e0578081fd5b5035919050565b600080604083850312156112f9578182fd5b8235915061130960208401611203565b90509250929050565b600080600060608486031215611326578283fd5b8335925060208401359150604084013567ffffffffffffffff8082111561134b578283fd5b818601915086601f83011261135e578283fd5b8135818111156113705761137061148c565b604051601f8201601f19908116603f011681019083821181831017156113985761139861148c565b816040528281528960208487010111156113b0578586fd5b82602086016020830137856020848301015280955050505050509250925092565b6001600160a01b039384168152919092166020820152604081019190915260600190565b6000821982111561140857611408611476565b500190565b60008261142857634e487b7160e01b81526012600452602481fd5b500490565b60008282101561143f5761143f611476565b500390565b60008161145357611453611476565b506000190190565b600060001982141561146f5761146f611476565b5060010190565b634e487b7160e01b600052601160045260246000fd5b634e487b7160e01b600052604160045260246000fdfea264697066735822122080b3ea4a5fe24795b57753e5a96efb832e0d96dab56708c9dd31f3fc411ce51b64736f6c63430008040033",
  "linkReferences": {},
  "deployedLinkReferences": {}
}