{
  "_format": "hh-sol-artifact-1",
  "contractName": "Lien",
  "sourceName": "contracts/Lien/Lien.sol",
  "abi": [
    {
      "inputs": [
        {
          "internalType": "address",
          "name": "_provider",
          "type": "address"
        },
        {
          "internalType": "uint256",
          "name": "_value",
          "type": "uint256"
        },
        {
          "internalType": "address",
          "name": "assetType",
          "type": "address"
        }
      ],
      "stateMutability": "nonpayable",
      "type": "constructor"
    },
    {
      "anonymous": false,
      "inputs": [
        {
          "indexed": false,
          "internalType": "uint256",
          "name": "amount",
          "type": "uint256"
        }
      ],
      "name": "LienDecreased",
      "type": "event"
    },
    {
      "anonymous": false,
      "inputs": [
        {
          "indexed": false,
          "internalType": "uint256",
          "name": "amount",
          "type": "uint256"
        }
      ],
      "name": "LienIncreased",
      "type": "event"
    },
    {
      "inputs": [],
      "name": "asset",
      "outputs": [
        {
          "internalType": "address",
          "name": "",
          "type": "address"
        }
      ],
      "stateMutability": "view",
      "type": "function"
    },
    {
      "inputs": [],
      "name": "balance",
      "outputs": [
        {
          "internalType": "uint256",
          "name": "",
          "type": "uint256"
        }
      ],
      "stateMutability": "nonpayable",
      "type": "function"
    },
    {
      "inputs": [],
      "name": "balanceView",
      "outputs": [
        {
          "internalType": "uint256",
          "name": "",
          "type": "uint256"
        }
      ],
      "stateMutability": "view",
      "type": "function"
    },
    {
      "inputs": [],
      "name": "initialize",
      "outputs": [],
      "stateMutability": "nonpayable",
      "type": "function"
    },
    {
      "inputs": [],
      "name": "lienProvider",
      "outputs": [
        {
          "internalType": "address",
          "name": "",
          "type": "address"
        }
      ],
      "stateMutability": "view",
      "type": "function"
    },
    {
      "inputs": [
        {
          "internalType": "uint256",
          "name": "amount",
          "type": "uint256"
        }
      ],
      "name": "pay",
      "outputs": [
        {
          "internalType": "uint256",
          "name": "remainder",
          "type": "uint256"
        }
      ],
      "stateMutability": "nonpayable",
      "type": "function"
    },
    {
      "inputs": [
        {
          "internalType": "address",
          "name": "newProvider",
          "type": "address"
        }
      ],
      "name": "setLienProvider",
      "outputs": [],
      "stateMutability": "nonpayable",
      "type": "function"
    },
    {
      "inputs": [],
      "name": "update",
      "outputs": [],
      "stateMutability": "nonpayable",
      "type": "function"
    },
    {
      "inputs": [],
      "name": "value",
      "outputs": [
        {
          "internalType": "uint256",
          "name": "",
          "type": "uint256"
        }
      ],
      "stateMutability": "view",
      "type": "function"
    }
  ],
  "bytecode": "0x608060405234801561001057600080fd5b5060405161046d38038061046d83398101604081905261002f91610080565b600080546001600160a01b039485166001600160a01b03199182161790915560018054929094169116179091556002556100bb565b80516001600160a01b038116811461007b57600080fd5b919050565b600080600060608486031215610094578283fd5b61009d84610064565b9250602084015191506100b260408501610064565b90509250925092565b6103a3806100ca6000396000f3fe608060405234801561001057600080fd5b50600436106100935760003560e01c8063a2e6204511610066578063a2e62045146100d9578063b69ef8a8146100ec578063c290d691146100f4578063d8af9eb014610107578063e85641ef146100ec57600080fd5b806338d52e0f146100985780633fa4f245146100c25780638129fc1c146100d95780639c73cc97146100db575b600080fd5b6001546001600160a01b03165b6040516001600160a01b0390911681526020015b60405180910390f35b6100cb60025481565b6040519081526020016100b9565b005b6000546001600160a01b03166100a5565b6002546100cb565b6100cb610102366004610332565b61011a565b6100d96101153660046102e4565b610209565b60008061012f6001546001600160a01b031690565b9050600254831061014f57600254610147908461034a565b915060025492505b806001600160a01b03166323b872dd336101716000546001600160a01b031690565b6040516001600160e01b031960e085901b1681526001600160a01b0392831660048201529116602482015260448101869052606401602060405180830381600087803b1580156101c057600080fd5b505af11580156101d4573d6000803e3d6000fd5b505050506040513d601f19601f820116820180604052508101906101f89190610312565b5061020283610242565b5050919050565b6000546001600160a01b0316331461022057600080fd5b600080546001600160a01b0319166001600160a01b0392909216919091179055565b6000600254821061029d5760025461025a908361034a565b600060028190556040519081529091507f5e18e4e357cd931333a4b9e224a2597f157cc8797633acedd6482c21eeee025b906020015b60405180910390a1919050565b81600260008282546102af919061034a565b90915550506040518281527f5e18e4e357cd931333a4b9e224a2597f157cc8797633acedd6482c21eeee025b90602001610290565b6000602082840312156102f5578081fd5b81356001600160a01b038116811461030b578182fd5b9392505050565b600060208284031215610323578081fd5b8151801515811461030b578182fd5b600060208284031215610343578081fd5b5035919050565b60008282101561036857634e487b7160e01b81526011600452602481fd5b50039056fea26469706673582212204294e8ebe2bf08af6b7f0266f989d8bdf4acf9f39de04b22d4bd4cf7e208e38064736f6c63430008040033",
  "linkReferences": {},
  "deployedLinkReferences": {}
}