{
  "_format": "hh-sol-artifact-1",
  "contractName": "ERC4671Consensus",
  "sourceName": "contracts/ERC4671/ERC4671Consensus.sol",
  "abi": [
    {
      "inputs": [
        {
          "internalType": "string",
          "name": "name_",
          "type": "string"
        },
        {
          "internalType": "string",
          "name": "symbol_",
          "type": "string"
        },
        {
          "internalType": "address[]",
          "name": "voters_",
          "type": "address[]"
        }
      ],
      "stateMutability": "nonpayable",
      "type": "constructor"
    },
    {
      "anonymous": false,
      "inputs": [
        {
          "indexed": false,
          "internalType": "address",
          "name": "owner",
          "type": "address"
        },
        {
          "indexed": false,
          "internalType": "uint256",
          "name": "tokenId",
          "type": "uint256"
        }
      ],
      "name": "Minted",
      "type": "event"
    },
    {
      "anonymous": false,
      "inputs": [
        {
          "indexed": false,
          "internalType": "address",
          "name": "owner",
          "type": "address"
        },
        {
          "indexed": false,
          "internalType": "uint256",
          "name": "tokenId",
          "type": "uint256"
        }
      ],
      "name": "Revoked",
      "type": "event"
    },
    {
      "inputs": [
        {
          "internalType": "address",
          "name": "owner",
          "type": "address"
        }
      ],
      "name": "approveMint",
      "outputs": [],
      "stateMutability": "nonpayable",
      "type": "function"
    },
    {
      "inputs": [
        {
          "internalType": "uint256",
          "name": "tokenId",
          "type": "uint256"
        }
      ],
      "name": "approveRevoke",
      "outputs": [],
      "stateMutability": "nonpayable",
      "type": "function"
    },
    {
      "inputs": [
        {
          "internalType": "address",
          "name": "owner",
          "type": "address"
        }
      ],
      "name": "balanceOf",
      "outputs": [
        {
          "internalType": "uint256",
          "name": "",
          "type": "uint256"
        }
      ],
      "stateMutability": "view",
      "type": "function"
    },
    {
      "inputs": [],
      "name": "emittedCount",
      "outputs": [
        {
          "internalType": "uint256",
          "name": "",
          "type": "uint256"
        }
      ],
      "stateMutability": "view",
      "type": "function"
    },
    {
      "inputs": [
        {
          "internalType": "address",
          "name": "owner",
          "type": "address"
        }
      ],
      "name": "hasValid",
      "outputs": [
        {
          "internalType": "bool",
          "name": "",
          "type": "bool"
        }
      ],
      "stateMutability": "view",
      "type": "function"
    },
    {
      "inputs": [],
      "name": "holdersCount",
      "outputs": [
        {
          "internalType": "uint256",
          "name": "",
          "type": "uint256"
        }
      ],
      "stateMutability": "view",
      "type": "function"
    },
    {
      "inputs": [
        {
          "internalType": "uint256",
          "name": "tokenId",
          "type": "uint256"
        }
      ],
      "name": "isValid",
      "outputs": [
        {
          "internalType": "bool",
          "name": "",
          "type": "bool"
        }
      ],
      "stateMutability": "view",
      "type": "function"
    },
    {
      "inputs": [],
      "name": "name",
      "outputs": [
        {
          "internalType": "string",
          "name": "",
          "type": "string"
        }
      ],
      "stateMutability": "view",
      "type": "function"
    },
    {
      "inputs": [
        {
          "internalType": "uint256",
          "name": "tokenId",
          "type": "uint256"
        }
      ],
      "name": "ownerOf",
      "outputs": [
        {
          "internalType": "address",
          "name": "",
          "type": "address"
        }
      ],
      "stateMutability": "view",
      "type": "function"
    },
    {
      "inputs": [
        {
          "internalType": "bytes4",
          "name": "interfaceId",
          "type": "bytes4"
        }
      ],
      "name": "supportsInterface",
      "outputs": [
        {
          "internalType": "bool",
          "name": "",
          "type": "bool"
        }
      ],
      "stateMutability": "view",
      "type": "function"
    },
    {
      "inputs": [],
      "name": "symbol",
      "outputs": [
        {
          "internalType": "string",
          "name": "",
          "type": "string"
        }
      ],
      "stateMutability": "view",
      "type": "function"
    },
    {
      "inputs": [
        {
          "internalType": "uint256",
          "name": "index",
          "type": "uint256"
        }
      ],
      "name": "tokenByIndex",
      "outputs": [
        {
          "internalType": "uint256",
          "name": "",
          "type": "uint256"
        }
      ],
      "stateMutability": "view",
      "type": "function"
    },
    {
      "inputs": [
        {
          "internalType": "address",
          "name": "owner",
          "type": "address"
        },
        {
          "internalType": "uint256",
          "name": "index",
          "type": "uint256"
        }
      ],
      "name": "tokenOfOwnerByIndex",
      "outputs": [
        {
          "internalType": "uint256",
          "name": "",
          "type": "uint256"
        }
      ],
      "stateMutability": "view",
      "type": "function"
    },
    {
      "inputs": [
        {
          "internalType": "uint256",
          "name": "tokenId",
          "type": "uint256"
        }
      ],
      "name": "tokenURI",
      "outputs": [
        {
          "internalType": "string",
          "name": "",
          "type": "string"
        }
      ],
      "stateMutability": "view",
      "type": "function"
    },
    {
      "inputs": [],
      "name": "voters",
      "outputs": [
        {
          "internalType": "address[]",
          "name": "",
          "type": "address[]"
        }
      ],
      "stateMutability": "view",
      "type": "function"
    }
  ],
  "bytecode": "0x60806040523480156200001157600080fd5b5060405162001535380380620015358339810160408190526200003491620002a2565b8251839083906200004d90600490602085019062000113565b5080516200006390600590602084019062000113565b5050600880546001600160a01b031916331790555080516200008d90600a906020840190620001a2565b5060005b81518110156200010957600160096000848481518110620000c257634e487b7160e01b600052603260045260246000fd5b6020908102919091018101516001600160a01b03168252810191909152604001600020805460ff191691151591909117905580620001008162000427565b91505062000091565b5050505062000465565b8280546200012190620003ea565b90600052602060002090601f01602090048101928262000145576000855562000190565b82601f106200016057805160ff191683800117855562000190565b8280016001018555821562000190579182015b828111156200019057825182559160200191906001019062000173565b506200019e929150620001fa565b5090565b82805482825590600052602060002090810192821562000190579160200282015b828111156200019057825182546001600160a01b0319166001600160a01b03909116178255602090920191600190910190620001c3565b5b808211156200019e5760008155600101620001fb565b600082601f83011262000222578081fd5b81516001600160401b038111156200023e576200023e6200044f565b602062000254601f8301601f19168201620003b7565b828152858284870101111562000268578384fd5b835b83811015620002875785810183015182820184015282016200026a565b838111156200029857848385840101525b5095945050505050565b600080600060608486031215620002b7578283fd5b83516001600160401b0380821115620002ce578485fd5b620002dc8783880162000211565b9450602091508186015181811115620002f3578485fd5b620003018882890162000211565b94505060408601518181111562000316578384fd5b8601601f8101881362000327578384fd5b8051828111156200033c576200033c6200044f565b8060051b92506200034f848401620003b7565b8181528481019083860185850187018c10156200036a578788fd5b8795505b83861015620003a657805194506001600160a01b038516851462000390578788fd5b848352600195909501949186019186016200036e565b508096505050505050509250925092565b604051601f8201601f191681016001600160401b0381118282101715620003e257620003e26200044f565b604052919050565b600181811c90821680620003ff57607f821691505b602082108114156200042157634e487b7160e01b600052602260045260246000fd5b50919050565b60006000198214156200044857634e487b7160e01b81526011600452602481fd5b5060010190565b634e487b7160e01b600052604160045260246000fd5b6110c080620004756000396000f3fe608060405234801561001057600080fd5b50600436106100f55760003560e01c80634f6ccce71161009757806395d89b411161006657806395d89b411461021e578063c87b56dd14610226578063df97f56f14610239578063f577a5001461024c57600080fd5b80634f6ccce7146101b15780636352211e146101c25780636b4ed21b146101ed57806370a08231146101f557600080fd5b806326019c18116100d357806326019c181461014c5780632f745c591461015e578063350580ea14610171578063439455121461018657600080fd5b806301ffc9a7146100fa57806306fdde03146101225780630e801ee114610137575b600080fd5b61010d610108366004610e59565b61025f565b60405190151581526020015b60405180910390f35b61012a61028a565b6040516101199190610f15565b61014a610145366004610e16565b61031c565b005b6006545b604051908152602001610119565b61015061016c366004610e30565b610441565b6101796104d4565b6040516101199190610ec8565b61010d610194366004610e16565b6001600160a01b0316600090815260036020526040902054151590565b6101506101bf366004610e81565b90565b6101d56101d0366004610e81565b610535565b6040516001600160a01b039091168152602001610119565b600754610150565b610150610203366004610e16565b6001600160a01b031660009081526001602052604090205490565b61012a610553565b61012a610234366004610e81565b610562565b61014a610247366004610e81565b6105d9565b61010d61025a366004610e81565b6106d8565b60006001600160e01b031982166339049ad960e21b14806102845750610284826106f7565b92915050565b6060600480546102999061101e565b80601f01602080910402602001604051908101604052809291908181526020018280546102c59061101e565b80156103125780601f106102e757610100808354040283529160200191610312565b820191906000526020600020905b8154815290600101906020018083116102f557829003601f168201915b5050505050905090565b3360009081526009602052604090205460ff166103765760405162461bcd60e51b81526020600482015260136024820152722cb7ba9030b932903737ba1030903b37ba32b960691b60448201526064015b60405180910390fd5b336000908152600b602090815260408083206001600160a01b038516845290915290205460ff16156103ba5760405162461bcd60e51b815260040161036d90610f48565b336000908152600b602090815260408083206001600160a01b03851684528252808320805460ff19166001908117909155600c9092528220805491929091610403908490610f89565b9091555050600a546001600160a01b0382166000908152600c6020526040902054141561043e5761043381610762565b61043c81610807565b505b50565b6001600160a01b0382166000908152600160205260408120805483106104a05760405162461bcd60e51b8152602060048201526014602482015273151bdad95b88191bd95cc81b9bdd08195e1a5cdd60621b604482015260640161036d565b8083815481106104c057634e487b7160e01b600052603260045260246000fd5b906000526020600020015491505092915050565b6060600a80548060200260200160405190810160405280929190818152602001828054801561031257602002820191906000526020600020905b81546001600160a01b0316815260019091019060200180831161050e575050505050905090565b600061054082610876565b600101546001600160a01b031692915050565b6060600580546102999061101e565b606061056d82610876565b50600061058560408051602081019091526000815290565b8051909150156105c3578061059b8460206108d5565b6040516020016105ac929190610e99565b604051602081830303815290604052915050919050565b5050604080516020810190915260008152919050565b3360009081526009602052604090205460ff1661062e5760405162461bcd60e51b81526020600482015260136024820152722cb7ba9030b932903737ba1030903b37ba32b960691b604482015260640161036d565b336000908152600d6020908152604080832084845290915290205460ff16156106695760405162461bcd60e51b815260040161036d90610f48565b336000908152600d602090815260408083208484528252808320805460ff19166001908117909155600e90925282208054919290916106a9908490610f89565b9091555050600a546000828152600e6020526040902054141561043e576106cf81610abe565b61043e81610b55565b60006106e382610876565b60010154600160a01b900460ff1692915050565b60006001600160e01b0319821663a511533d60e01b148061072857506001600160e01b03198216635b5e139f60e01b145b8061074357506001600160e01b03198216632d57debd60e01b145b8061028457506301ffc9a760e01b6001600160e01b0319831614610284565b60005b600a548110156107ec576000600b6000600a848154811061079657634e487b7160e01b600052603260045260246000fd5b6000918252602080832091909101546001600160a01b03908116845283820194909452604092830182209387168252929092529020805460ff1916911515919091179055806107e481611059565b915050610765565b506001600160a01b03166000908152600c6020526040812055565b60065461081682826001610c7f565b604080516001600160a01b0384168152602081018390527f30385c845b448a36257a6a1716e6ad2e1bc2cbe333cde1e69fe849ad6511adfe910160405180910390a160016006600082825461086b9190610f89565b909155509092915050565b600081815260208190526040812060018101546001600160a01b03166102845760405162461bcd60e51b8152602060048201526014602482015273151bdad95b88191bd95cc81b9bdd08195e1a5cdd60621b604482015260640161036d565b606060006108e4836002610fa1565b6108ef906002610f89565b67ffffffffffffffff81111561091557634e487b7160e01b600052604160045260246000fd5b6040519080825280601f01601f19166020018201604052801561093f576020820181803683370190505b509050600360fc1b8160008151811061096857634e487b7160e01b600052603260045260246000fd5b60200101906001600160f81b031916908160001a905350600f60fb1b816001815181106109a557634e487b7160e01b600052603260045260246000fd5b60200101906001600160f81b031916908160001a90535060006109c9846002610fa1565b6109d4906001610f89565b90505b6001811115610a68576f181899199a1a9b1b9c1cb0b131b232b360811b85600f1660108110610a1657634e487b7160e01b600052603260045260246000fd5b1a60f81b828281518110610a3a57634e487b7160e01b600052603260045260246000fd5b60200101906001600160f81b031916908160001a90535060049490941c93610a6181611007565b90506109d7565b508315610ab75760405162461bcd60e51b815260206004820181905260248201527f537472696e67733a20686578206c656e67746820696e73756666696369656e74604482015260640161036d565b9392505050565b60005b600a54811015610b43576000600d6000600a8481548110610af257634e487b7160e01b600052603260045260246000fd5b6000918252602080832091909101546001600160a01b0316835282810193909352604091820181208682529092529020805460ff191691151591909117905580610b3b81611059565b915050610ac1565b506000908152600e6020526040812055565b6000610b6082610876565b6001810154909150600160a01b900460ff16610bbe5760405162461bcd60e51b815260206004820152601860248201527f546f6b656e20697320616c726561647920696e76616c69640000000000000000604482015260640161036d565b60018101805460ff60a01b1981169091556001600160a01b0316600090815260036020526040902054610c0157634e487b7160e01b600052600160045260246000fd5b6001818101546001600160a01b031660009081526003602052604081208054909190610c2e908490610fc0565b90915550506001810154604080516001600160a01b039092168252602082018490527f713b90881ad62c4fa8ab6bd9197fa86481fc0c11b2edba60026514281b2dbac4910160405180910390a15050565b6000828152602081905260409020600101546001600160a01b031615610ce75760405162461bcd60e51b815260206004820152601d60248201527f43616e6e6f74206d696e7420616e2061737369676e656420746f6b656e000000604482015260640161036d565b6001600160a01b038316600090815260016020526040902054610d1d57600160076000828254610d179190610f89565b90915550505b604080516060810182523381526001600160a01b0385811660208084018281528615801586880190815260008a8152808552888120975188549088166001600160a01b031990911617885592516001978801805492511515600160a01b026001600160a81b03199093169190971617179094559182528381528482208054600283528684208985528352958320869055848252938501845592815291909120909101839055610df5576001600160a01b0383166000908152600360205260408120805460019290610def908490610f89565b90915550505b505050565b80356001600160a01b0381168114610e1157600080fd5b919050565b600060208284031215610e27578081fd5b610ab782610dfa565b60008060408385031215610e42578081fd5b610e4b83610dfa565b946020939093013593505050565b600060208284031215610e6a578081fd5b81356001600160e01b031981168114610ab7578182fd5b600060208284031215610e92578081fd5b5035919050565b60008351610eab818460208801610fd7565b835190830190610ebf818360208801610fd7565b01949350505050565b6020808252825182820181905260009190848201906040850190845b81811015610f095783516001600160a01b031683529284019291840191600101610ee4565b50909695505050505050565b6020815260008251806020840152610f34816040850160208701610fd7565b601f01601f19169190910160400192915050565b60208082526021908201527f596f7520616c726561647920617070726f7665642074686973206164647265736040820152607360f81b606082015260800190565b60008219821115610f9c57610f9c611074565b500190565b6000816000190483118215151615610fbb57610fbb611074565b500290565b600082821015610fd257610fd2611074565b500390565b60005b83811015610ff2578181015183820152602001610fda565b83811115611001576000848401525b50505050565b60008161101657611016611074565b506000190190565b600181811c9082168061103257607f821691505b6020821081141561105357634e487b7160e01b600052602260045260246000fd5b50919050565b600060001982141561106d5761106d611074565b5060010190565b634e487b7160e01b600052601160045260246000fdfea2646970667358221220fc8d3f94ce668f7c19c79d0b979fa033f3850dc8ec4caf9fb7528eb16ee3721164736f6c63430008040033",
  "linkReferences": {},
  "deployedLinkReferences": {}
}